{
	"data": {
		"bytecode": {
			"linkReferences": {},
			"object": "60806040526000600660006101000a81548160ff0219169083151502179055506040518060800160405280662386f26fc1000066ffffffffffffff1681526020016611c37937e0800066ffffffffffffff168152602001660aa87bee53800066ffffffffffffff16815260200166038d7ea4c6800066ffffffffffffff16815250600c90600462000092929190620004d1565b50604051806080016040528068d8d726b7177a80000068ffffffffffffffffff168152602001686c6b935b8bbd40000068ffffffffffffffffff168152602001683635c9adc5dea0000068ffffffffffffffffff168152602001681b1ae4d6e2ef50000068ffffffffffffffffff16815250600d906004620001169291906200052e565b50604051806080016040528061138861ffff168152602001611b5861ffff168152602001611f4061ffff16815260200161216b61ffff16815250600e906004620001629291906200058d565b5061216b600f5560006010556000601160006101000a81548160ff0219169083151502179055506040518060c00160405280600115151515815260200160011515151581526020016001151515158152602001600015151515815260200160001515151581526020016000151515158152506013906006620001e6929190620005e5565b50348015620001f457600080fd5b506040518060400160405280600b81526020017f44656375706c65204e46540000000000000000000000000000000000000000008152506040518060400160405280600481526020017f4344504e000000000000000000000000000000000000000000000000000000008152508160009081620002729190620009d8565b508060019081620002849190620009d8565b5050506000600960006101000a81548160ff021916908315150217905550620002c2620002b66200033d60201b60201c565b6200035960201b60201c565b6001600f54620002d3919062000aee565b67ffffffffffffffff811115620002ef57620002ee62000769565b5b6040519080825280602002602001820160405280156200031e5781602001602082028036833780820191505090505b50600a90805190602001906200033692919062000692565b5062000b29565b6000620003546200041f60201b620021921760201c565b905090565b6000600960019054906101000a900473ffffffffffffffffffffffffffffffffffffffff16905081600960016101000a81548173ffffffffffffffffffffffffffffffffffffffff021916908373ffffffffffffffffffffffffffffffffffffffff1602179055508173ffffffffffffffffffffffffffffffffffffffff168173ffffffffffffffffffffffffffffffffffffffff167f8be0079c531659141344cd1fd0a4f28419497f9722a3daafe3b4186f6b6457e060405160405180910390a35050565b60003073ffffffffffffffffffffffffffffffffffffffff163373ffffffffffffffffffffffffffffffffffffffff1603620004ca57600080368080601f016020809104026020016040519081016040528093929190818152602001838380828437600081840152601f19601f820116905080830192505050505050509050600080369050905073ffffffffffffffffffffffffffffffffffffffff818301511692505050620004ce565b3390505b90565b8280548282559060005260206000209081019282156200051b579160200282015b828111156200051a578251829066ffffffffffffff16905591602001919060010190620004f2565b5b5090506200052a91906200073f565b5090565b8280548282559060005260206000209081019282156200057a579160200282015b8281111562000579578251829068ffffffffffffffffff169055916020019190600101906200054f565b5b5090506200058991906200073f565b5090565b828054828255906000526020600020908101928215620005d2579160200282015b82811115620005d1578251829061ffff16905591602001919060010190620005ae565b5b509050620005e191906200073f565b5090565b82805482825590600052602060002090601f016020900481019282156200067f5791602002820160005b838211156200064e57835183826101000a81548160ff02191690831515021790555092602001926001016020816000010492830192600103026200060f565b80156200067d5782816101000a81549060ff02191690556001016020816000010492830192600103026200064e565b505b5090506200068e91906200073f565b5090565b82805482825590600052602060002090601f016020900481019282156200072c5791602002820160005b83821115620006fb57835183826101000a81548160ff0219169083151502179055509260200192600101602081600001049283019260010302620006bc565b80156200072a5782816101000a81549060ff0219169055600101602081600001049283019260010302620006fb565b505b5090506200073b91906200073f565b5090565b5b808211156200075a57600081600090555060010162000740565b5090565b600081519050919050565b7f4e487b7100000000000000000000000000000000000000000000000000000000600052604160045260246000fd5b7f4e487b7100000000000000000000000000000000000000000000000000000000600052602260045260246000fd5b60006002820490506001821680620007e057607f821691505b602082108103620007f657620007f562000798565b5b50919050565b60008190508160005260206000209050919050565b60006020601f8301049050919050565b600082821b905092915050565b600060088302620008607fffffffffffffffffffffffffffffffffffffffffffffffffffffffffffffffff8262000821565b6200086c868362000821565b95508019841693508086168417925050509392505050565b6000819050919050565b6000819050919050565b6000620008b9620008b3620008ad8462000884565b6200088e565b62000884565b9050919050565b6000819050919050565b620008d58362000898565b620008ed620008e482620008c0565b8484546200082e565b825550505050565b600090565b62000904620008f5565b62000911818484620008ca565b505050565b5b8181101562000939576200092d600082620008fa565b60018101905062000917565b5050565b601f82111562000988576200095281620007fc565b6200095d8462000811565b810160208510156200096d578190505b620009856200097c8562000811565b83018262000916565b50505b505050565b600082821c905092915050565b6000620009ad600019846008026200098d565b1980831691505092915050565b6000620009c883836200099a565b9150826002028217905092915050565b620009e3826200075e565b67ffffffffffffffff811115620009ff57620009fe62000769565b5b62000a0b8254620007c7565b62000a188282856200093d565b600060209050601f83116001811462000a50576000841562000a3b578287015190505b62000a478582620009ba565b86555062000ab7565b601f19841662000a6086620007fc565b60005b8281101562000a8a5784890151825560018201915060208501945060208101905062000a63565b8683101562000aaa578489015162000aa6601f8916826200099a565b8355505b6001600288020188555050505b505050505050565b7f4e487b7100000000000000000000000000000000000000000000000000000000600052601160045260246000fd5b600062000afb8262000884565b915062000b088362000884565b925082820190508082111562000b235762000b2262000abf565b5b92915050565b6157d18062000b396000396000f3fe6080604052600436106102725760003560e01c80636352211e1161014f578063bf687504116100c1578063d5abeb011161007a578063d5abeb011461098b578063d780c9d7146109b6578063e48513dc146109d2578063e80af73a146109fb578063e985e9c514610a38578063f2fde38b14610a7557610272565b8063bf68750414610831578063c25b23681461086e578063c26b265f146108ab578063c45dd18f146108e8578063c4f5735114610911578063c87b56dd1461094e57610272565b80638456cb59116101135780638456cb59146107495780638da5cb5b1461076057806395d89b411461078b578063a1448194146107b6578063a22cb465146107df578063b88d4fde1461080857610272565b80636352211e1461066657806370a08231146106a3578063715018a6146106e057806373acc408146106f757806379cf92d31461072057610272565b80632d0335ab116101e85780633f4ba83a116101ac5780633f4ba83a1461058057806342842e0e146105975780634f3dfe8a146105c05780635a6fd817146105e95780635c975abb146106125780635fc26ba31461063d57610272565b80632d0335ab1461047357806330d72acb146104b057806333c41a90146104db5780633408e470146105185780633904d0ba1461054357610272565b80630f7e59701161023a5780630f7e59701461037557806315a88d22146103a057806318160ddd146103cb5780631b2ef1ca146103f657806320379ee51461041f57806323b872dd1461044a57610272565b806301ffc9a71461027757806306fdde03146102b4578063081812fc146102df578063095ea7b31461031c5780630c53c51c14610345575b600080fd5b34801561028357600080fd5b5061029e60048036038101906102999190613bd6565b610a9e565b6040516102ab9190613c1e565b60405180910390f35b3480156102c057600080fd5b506102c9610b80565b6040516102d69190613cc9565b60405180910390f35b3480156102eb57600080fd5b5061030660048036038101906103019190613d21565b610c12565b6040516103139190613d8f565b60405180910390f35b34801561032857600080fd5b50610343600480360381019061033e9190613dd6565b610c58565b005b61035f600480360381019061035a9190613fba565b610d6f565b60405161036c91906140a6565b60405180910390f35b34801561038157600080fd5b5061038a610fe1565b6040516103979190613cc9565b60405180910390f35b3480156103ac57600080fd5b506103b561101a565b6040516103c29190613d8f565b60405180910390f35b3480156103d757600080fd5b506103e0611040565b6040516103ed91906140d7565b60405180910390f35b34801561040257600080fd5b5061041d600480360381019061041891906140f2565b611046565b005b34801561042b57600080fd5b50610434611267565b6040516104419190614141565b60405180910390f35b34801561045657600080fd5b50610471600480360381019061046c919061415c565b611271565b005b34801561047f57600080fd5b5061049a600480360381019061049591906141af565b6112d1565b6040516104a791906140d7565b60405180910390f35b3480156104bc57600080fd5b506104c561131a565b6040516104d29190613c1e565b60405180910390f35b3480156104e757600080fd5b5061050260048036038101906104fd9190613d21565b61132d565b60405161050f9190613c1e565b60405180910390f35b34801561052457600080fd5b5061052d611361565b60405161053a91906140d7565b60405180910390f35b34801561054f57600080fd5b5061056a60048036038101906105659190613d21565b61136e565b60405161057791906140d7565b60405180910390f35b34801561058c57600080fd5b50610595611392565b005b3480156105a357600080fd5b506105be60048036038101906105b9919061415c565b6113a4565b005b3480156105cc57600080fd5b506105e760048036038101906105e29190614208565b6113c4565b005b3480156105f557600080fd5b50610610600480360381019061060b9190614235565b6113e9565b005b34801561061e57600080fd5b5061062761160d565b6040516106349190613c1e565b60405180910390f35b34801561064957600080fd5b50610664600480360381019061065f9190614350565b611624565b005b34801561067257600080fd5b5061068d60048036038101906106889190613d21565b611646565b60405161069a9190613d8f565b60405180910390f35b3480156106af57600080fd5b506106ca60048036038101906106c591906141af565b6116cc565b6040516106d791906140d7565b60405180910390f35b3480156106ec57600080fd5b506106f5611783565b005b34801561070357600080fd5b5061071e600480360381019061071991906141af565b611797565b005b34801561072c57600080fd5b506107476004803603810190610742919061445c565b611846565b005b34801561075557600080fd5b5061075e611876565b005b34801561076c57600080fd5b50610775611888565b6040516107829190613d8f565b60405180910390f35b34801561079757600080fd5b506107a06118b2565b6040516107ad9190613cc9565b60405180910390f35b3480156107c257600080fd5b506107dd60048036038101906107d89190613dd6565b611944565b005b3480156107eb57600080fd5b50610806600480360381019061080191906144a5565b6119fa565b005b34801561081457600080fd5b5061082f600480360381019061082a91906144e5565b611a10565b005b34801561083d57600080fd5b5061085860048036038101906108539190613d21565b611a72565b60405161086591906140d7565b60405180910390f35b34801561087a57600080fd5b5061089560048036038101906108909190613d21565b611a96565b6040516108a291906140d7565b60405180910390f35b3480156108b757600080fd5b506108d260048036038101906108cd9190613d21565b611b3b565b6040516108df91906140d7565b60405180910390f35b3480156108f457600080fd5b5061090f600480360381019061090a9190614568565b611c8a565b005b34801561091d57600080fd5b5061093860048036038101906109339190613d21565b611e20565b6040516109459190613c1e565b60405180910390f35b34801561095a57600080fd5b5061097560048036038101906109709190613d21565b611e54565b6040516109829190613cc9565b60405180910390f35b34801561099757600080fd5b506109a0611ebc565b6040516109ad91906140d7565b60405180910390f35b6109d060048036038101906109cb9190613dd6565b611ec2565b005b3480156109de57600080fd5b506109f960048036038101906109f4919061445c565b611fc9565b005b348015610a0757600080fd5b50610a226004803603810190610a1d9190613d21565b611ff9565b604051610a2f91906140d7565b60405180910390f35b348015610a4457600080fd5b50610a5f6004803603810190610a5a91906145f5565b61201d565b604051610a6c9190613c1e565b60405180910390f35b348015610a8157600080fd5b50610a9c6004803603810190610a9791906141af565b61210f565b005b60007f80ac58cd000000000000000000000000000000000000000000000000000000007bffffffffffffffffffffffffffffffffffffffffffffffffffffffff1916827bffffffffffffffffffffffffffffffffffffffffffffffffffffffff19161480610b6957507f5b5e139f000000000000000000000000000000000000000000000000000000007bffffffffffffffffffffffffffffffffffffffffffffffffffffffff1916827bffffffffffffffffffffffffffffffffffffffffffffffffffffffff1916145b80610b795750610b7882612242565b5b9050919050565b606060008054610b8f90614664565b80601f0160208091040260200160405190810160405280929190818152602001828054610bbb90614664565b8015610c085780601f10610bdd57610100808354040283529160200191610c08565b820191906000526020600020905b815481529060010190602001808311610beb57829003601f168201915b5050505050905090565b6000610c1d826122ac565b6004600083815260200190815260200160002060009054906101000a900473ffffffffffffffffffffffffffffffffffffffff169050919050565b6000610c6382611646565b90508073ffffffffffffffffffffffffffffffffffffffff168373ffffffffffffffffffffffffffffffffffffffff1603610cd3576040517f08c379a0000000000000000000000000000000000000000000000000000000008152600401610cca90614707565b60405180910390fd5b8073ffffffffffffffffffffffffffffffffffffffff16610cf26122f7565b73ffffffffffffffffffffffffffffffffffffffff161480610d215750610d2081610d1b6122f7565b61201d565b5b610d60576040517f08c379a0000000000000000000000000000000000000000000000000000000008152600401610d5790614799565b60405180910390fd5b610d6a8383612306565b505050565b606060006040518060600160405280600860008a73ffffffffffffffffffffffffffffffffffffffff1673ffffffffffffffffffffffffffffffffffffffff1681526020019081526020016000205481526020018873ffffffffffffffffffffffffffffffffffffffff168152602001878152509050610df287828787876123bf565b610e31576040517f08c379a0000000000000000000000000000000000000000000000000000000008152600401610e289061482b565b60405180910390fd5b610e846001600860008a73ffffffffffffffffffffffffffffffffffffffff1673ffffffffffffffffffffffffffffffffffffffff168152602001908152602001600020546124c790919063ffffffff16565b600860008973ffffffffffffffffffffffffffffffffffffffff1673ffffffffffffffffffffffffffffffffffffffff168152602001908152602001600020819055507f5845892132946850460bff5a0083f71031bc5bf9aadcd40f1de79423eac9b10b873388604051610efa9392919061486c565b60405180910390a16000803073ffffffffffffffffffffffffffffffffffffffff16888a604051602001610f2f92919061492e565b604051602081830303815290604052604051610f4b9190614956565b6000604051808303816000865af19150503d8060008114610f88576040519150601f19603f3d011682016040523d82523d6000602084013e610f8d565b606091505b509150915081610fd2576040517f08c379a0000000000000000000000000000000000000000000000000000000008152600401610fc9906149b9565b60405180910390fd5b80935050505095945050505050565b6040518060400160405280600181526020017f310000000000000000000000000000000000000000000000000000000000000081525081565b601260009054906101000a900473ffffffffffffffffffffffffffffffffffffffff1681565b60105481565b61104e6124dd565b60138181548110611062576110616149d9565b5b90600052602060002090602091828204019190069054906101000a900460ff166110c1576040517f08c379a00000000000000000000000000000000000000000000000000000000081526004016110b890614a54565b60405180910390fd5b6110ca82612527565b1561110a576040517f08c379a000000000000000000000000000000000000000000000000000000000815260040161110190614ac0565b60405180910390fd5b6000600d600161111985611b3b565b6111239190614b0f565b81548110611134576111336149d9565b5b9060005260206000200154905060003290506000611153828486612568565b9050801561126057611165828661299b565b6010600081548092919061117890614b43565b91905055506001600a8681548110611193576111926149d9565b5b90600052602060002090602091828204019190066101000a81548160ff021916908315150217905550601160009054906101000a900460ff161561125f57601160019054906101000a900473ffffffffffffffffffffffffffffffffffffffff1673ffffffffffffffffffffffffffffffffffffffff16638b0d354b836040518263ffffffff1660e01b815260040161122c9190613d8f565b600060405180830381600087803b15801561124657600080fd5b505af115801561125a573d6000803e3d6000fd5b505050505b5b5050505050565b6000600754905090565b61128261127c6122f7565b826129b9565b6112c1576040517f08c379a00000000000000000000000000000000000000000000000000000000081526004016112b890614bfd565b60405180910390fd5b6112cc838383612a4e565b505050565b6000600860008373ffffffffffffffffffffffffffffffffffffffff1673ffffffffffffffffffffffffffffffffffffffff168152602001908152602001600020549050919050565b601160009054906101000a900460ff1681565b600a818154811061133d57600080fd5b9060005260206000209060209182820401919006915054906101000a900460ff1681565b6000804690508091505090565b600d818154811061137e57600080fd5b906000526020600020016000915090505481565b61139a612d47565b6113a2612dc5565b565b6113bf83838360405180602001604052806000815250611a10565b505050565b6113cc612d47565b80601160006101000a81548160ff02191690831515021790555050565b6113f16124dd565b60138281548110611405576114046149d9565b5b90600052602060002090602091828204019190069054906101000a900460ff16611464576040517f08c379a000000000000000000000000000000000000000000000000000000000815260040161145b90614a54565b60405180910390fd5b61146d83612527565b156114ad576040517f08c379a00000000000000000000000000000000000000000000000000000000081526004016114a490614ac0565b60405180910390fd5b6000600d60016114bc86611b3b565b6114c69190614b0f565b815481106114d7576114d66149d9565b5b90600052602060002001549050600032905060006114f6828487612568565b9050801561160557611508828761299b565b6010600081548092919061151b90614b43565b91905055506001600a8781548110611536576115356149d9565b5b90600052602060002090602091828204019190066101000a81548160ff021916908315150217905550601160009054906101000a900460ff161561160457601160019054906101000a900473ffffffffffffffffffffffffffffffffffffffff1673ffffffffffffffffffffffffffffffffffffffff16635eee810885846040518363ffffffff1660e01b81526004016115d1929190614c1d565b600060405180830381600087803b1580156115eb57600080fd5b505af11580156115ff573d6000803e3d6000fd5b505050505b5b505050505050565b6000600960009054906101000a900460ff16905090565b61162c612d47565b8060139080519060200190611642929190613a5a565b5050565b60008061165283612e28565b9050600073ffffffffffffffffffffffffffffffffffffffff168173ffffffffffffffffffffffffffffffffffffffff16036116c3576040517f08c379a00000000000000000000000000000000000000000000000000000000081526004016116ba90614c92565b60405180910390fd5b80915050919050565b60008073ffffffffffffffffffffffffffffffffffffffff168273ffffffffffffffffffffffffffffffffffffffff160361173c576040517f08c379a000000000000000000000000000000000000000000000000000000000815260040161173390614d24565b60405180910390fd5b600360008373ffffffffffffffffffffffffffffffffffffffff1673ffffffffffffffffffffffffffffffffffffffff168152602001908152602001600020549050919050565b61178b612d47565b6117956000612e65565b565b61179f612d47565b80601260006101000a81548173ffffffffffffffffffffffffffffffffffffffff021916908373ffffffffffffffffffffffffffffffffffffffff160217905550601260009054906101000a900473ffffffffffffffffffffffffffffffffffffffff16601160016101000a81548173ffffffffffffffffffffffffffffffffffffffff021916908373ffffffffffffffffffffffffffffffffffffffff16021790555050565b61184e612d47565b600481511461185c57600080fd5b80600d9080519060200190611872929190613b00565b5050565b61187e612d47565b611886612f2b565b565b6000600960019054906101000a900473ffffffffffffffffffffffffffffffffffffffff16905090565b6060600180546118c190614664565b80601f01602080910402602001604051908101604052809291908181526020018280546118ed90614664565b801561193a5780601f1061190f5761010080835404028352916020019161193a565b820191906000526020600020905b81548152906001019060200180831161191d57829003601f168201915b5050505050905090565b61194c612d47565b61195581612527565b15611995576040517f08c379a000000000000000000000000000000000000000000000000000000000815260040161198c90614ac0565b60405180910390fd5b61199f828261299b565b601060008154809291906119b290614b43565b91905055506001600a82815481106119cd576119cc6149d9565b5b90600052602060002090602091828204019190066101000a81548160ff0219169083151502179055505050565b611a0c611a056122f7565b8383612f8e565b5050565b611a21611a1b6122f7565b836129b9565b611a60576040517f08c379a0000000000000000000000000000000000000000000000000000000008152600401611a5790614bfd565b60405180910390fd5b611a6c848484846130fa565b50505050565b600c8181548110611a8257600080fd5b906000526020600020016000915090505481565b6000601160019054906101000a900473ffffffffffffffffffffffffffffffffffffffff1673ffffffffffffffffffffffffffffffffffffffff1663c25b2368836040518263ffffffff1660e01b8152600401611af391906140d7565b602060405180830381865afa158015611b10573d6000803e3d6000fd5b505050506040513d601f19601f82011682018060405250810190611b349190614d59565b9050919050565b6000808211611b7f576040517f08c379a0000000000000000000000000000000000000000000000000000000008152600401611b7690614dd2565b60405180910390fd5b600f54821115611bc4576040517f08c379a0000000000000000000000000000000000000000000000000000000008152600401611bbb90614dd2565b60405180910390fd5b600e600081548110611bd957611bd86149d9565b5b90600052602060002001548211611bf35760049050611c85565b600e600181548110611c0857611c076149d9565b5b90600052602060002001548211611c225760039050611c85565b600e600281548110611c3757611c366149d9565b5b90600052602060002001548211611c515760029050611c85565b600e600381548110611c6657611c656149d9565b5b90600052602060002001548211611c805760019050611c85565b600090505b919050565b611c92612d47565b85601460006101000a81548173ffffffffffffffffffffffffffffffffffffffff021916908373ffffffffffffffffffffffffffffffffffffffff16021790555084601560006101000a81548173ffffffffffffffffffffffffffffffffffffffff021916908373ffffffffffffffffffffffffffffffffffffffff16021790555083601660006101000a81548173ffffffffffffffffffffffffffffffffffffffff021916908373ffffffffffffffffffffffffffffffffffffffff16021790555082601760006101000a81548173ffffffffffffffffffffffffffffffffffffffff021916908373ffffffffffffffffffffffffffffffffffffffff16021790555081601860006101000a81548173ffffffffffffffffffffffffffffffffffffffff021916908373ffffffffffffffffffffffffffffffffffffffff16021790555080601960006101000a81548173ffffffffffffffffffffffffffffffffffffffff021916908373ffffffffffffffffffffffffffffffffffffffff160217905550505050505050565b60138181548110611e3057600080fd5b9060005260206000209060209182820401919006915054906101000a900460ff1681565b6060611e5f826122ac565b6000611e69613156565b90506000815111611e895760405180602001604052806000815250611eb4565b80611e938461316d565b604051602001611ea4929190614e2e565b6040516020818303038152906040525b915050919050565b600f5481565b611eca6124dd565b6000600c6001611ed984611b3b565b611ee39190614b0f565b81548110611ef457611ef36149d9565b5b90600052602060002001549050803414611f43576040517f08c379a0000000000000000000000000000000000000000000000000000000008152600401611f3a90614ec4565b60405180910390fd5b611f4c82611646565b73ffffffffffffffffffffffffffffffffffffffff163273ffffffffffffffffffffffffffffffffffffffff1614611fb9576040517f08c379a0000000000000000000000000000000000000000000000000000000008152600401611fb090614f30565b60405180910390fd5b611fc43284846113a4565b505050565b611fd1612d47565b6004815114611fdf57600080fd5b80600c9080519060200190611ff5929190613b00565b5050565b600e818154811061200957600080fd5b906000526020600020016000915090505481565b600080600b60009054906101000a900473ffffffffffffffffffffffffffffffffffffffff1690508273ffffffffffffffffffffffffffffffffffffffff168173ffffffffffffffffffffffffffffffffffffffff1663c4552791866040518263ffffffff1660e01b81526004016120959190613d8f565b602060405180830381865afa1580156120b2573d6000803e3d6000fd5b505050506040513d601f19601f820116820180604052508101906120d69190614f8e565b73ffffffffffffffffffffffffffffffffffffffff16036120fb576001915050612109565b612105848461323b565b9150505b92915050565b612117612d47565b600073ffffffffffffffffffffffffffffffffffffffff168173ffffffffffffffffffffffffffffffffffffffff1603612186576040517f08c379a000000000000000000000000000000000000000000000000000000000815260040161217d9061502d565b60405180910390fd5b61218f81612e65565b50565b60003073ffffffffffffffffffffffffffffffffffffffff163373ffffffffffffffffffffffffffffffffffffffff160361223b57600080368080601f016020809104026020016040519081016040528093929190818152602001838380828437600081840152601f19601f820116905080830192505050505050509050600080369050905073ffffffffffffffffffffffffffffffffffffffff81830151169250505061223f565b3390505b90565b60007f01ffc9a7000000000000000000000000000000000000000000000000000000007bffffffffffffffffffffffffffffffffffffffffffffffffffffffff1916827bffffffffffffffffffffffffffffffffffffffffffffffffffffffff1916149050919050565b6122b581612527565b6122f4576040517f08c379a00000000000000000000000000000000000000000000000000000000081526004016122eb90614c92565b60405180910390fd5b50565b6000612301612192565b905090565b816004600083815260200190815260200160002060006101000a81548173ffffffffffffffffffffffffffffffffffffffff021916908373ffffffffffffffffffffffffffffffffffffffff160217905550808273ffffffffffffffffffffffffffffffffffffffff1661237983611646565b73ffffffffffffffffffffffffffffffffffffffff167f8c5be1e5ebec7d5bd14f71427d1e84f3dd0314c0f7b2291e5b200ac8c7c3b92560405160405180910390a45050565b60008073ffffffffffffffffffffffffffffffffffffffff168673ffffffffffffffffffffffffffffffffffffffff160361242f576040517f08c379a0000000000000000000000000000000000000000000000000000000008152600401612426906150bf565b60405180910390fd5b600161244261243d876132cf565b613337565b8386866040516000815260200160405260405161246294939291906150ee565b6020604051602081039080840390855afa158015612484573d6000803e3d6000fd5b5050506020604051035173ffffffffffffffffffffffffffffffffffffffff168673ffffffffffffffffffffffffffffffffffffffff1614905095945050505050565b600081836124d59190615133565b905092915050565b6124e561160d565b15612525576040517f08c379a000000000000000000000000000000000000000000000000000000000815260040161251c906151b3565b60405180910390fd5b565b60008073ffffffffffffffffffffffffffffffffffffffff1661254983612e28565b73ffffffffffffffffffffffffffffffffffffffff1614159050919050565b600080820361261a57601460009054906101000a900473ffffffffffffffffffffffffffffffffffffffff1673ffffffffffffffffffffffffffffffffffffffff166323b872dd8530866040518463ffffffff1660e01b81526004016125d0939291906151d3565b6020604051808303816000875af11580156125ef573d6000803e3d6000fd5b505050506040513d601f19601f82011682018060405250810190612613919061521f565b9050612994565b600182036126cb57601560009054906101000a900473ffffffffffffffffffffffffffffffffffffffff1673ffffffffffffffffffffffffffffffffffffffff166323b872dd8530866040518463ffffffff1660e01b8152600401612681939291906151d3565b6020604051808303816000875af11580156126a0573d6000803e3d6000fd5b505050506040513d601f19601f820116820180604052508101906126c4919061521f565b9050612994565b6002820361277c57601660009054906101000a900473ffffffffffffffffffffffffffffffffffffffff1673ffffffffffffffffffffffffffffffffffffffff166323b872dd8530866040518463ffffffff1660e01b8152600401612732939291906151d3565b6020604051808303816000875af1158015612751573d6000803e3d6000fd5b505050506040513d601f19601f82011682018060405250810190612775919061521f565b9050612994565b6003820361282d57601760009054906101000a900473ffffffffffffffffffffffffffffffffffffffff1673ffffffffffffffffffffffffffffffffffffffff166323b872dd8530866040518463ffffffff1660e01b81526004016127e3939291906151d3565b6020604051808303816000875af1158015612802573d6000803e3d6000fd5b505050506040513d601f19601f82011682018060405250810190612826919061521f565b9050612994565b600482036128de57601860009054906101000a900473ffffffffffffffffffffffffffffffffffffffff1673ffffffffffffffffffffffffffffffffffffffff166323b872dd8530866040518463ffffffff1660e01b8152600401612894939291906151d3565b6020604051808303816000875af11580156128b3573d6000803e3d6000fd5b505050506040513d601f19601f820116820180604052508101906128d7919061521f565b9050612994565b6005820361298f57601960009054906101000a900473ffffffffffffffffffffffffffffffffffffffff1673ffffffffffffffffffffffffffffffffffffffff166323b872dd8530866040518463ffffffff1660e01b8152600401612945939291906151d3565b6020604051808303816000875af1158015612964573d6000803e3d6000fd5b505050506040513d601f19601f82011682018060405250810190612988919061521f565b9050612994565b600090505b9392505050565b6129b5828260405180602001604052806000815250613370565b5050565b6000806129c583611646565b90508073ffffffffffffffffffffffffffffffffffffffff168473ffffffffffffffffffffffffffffffffffffffff161480612a075750612a06818561201d565b5b80612a4557508373ffffffffffffffffffffffffffffffffffffffff16612a2d84610c12565b73ffffffffffffffffffffffffffffffffffffffff16145b91505092915050565b8273ffffffffffffffffffffffffffffffffffffffff16612a6e82611646565b73ffffffffffffffffffffffffffffffffffffffff1614612ac4576040517f08c379a0000000000000000000000000000000000000000000000000000000008152600401612abb906152be565b60405180910390fd5b600073ffffffffffffffffffffffffffffffffffffffff168273ffffffffffffffffffffffffffffffffffffffff1603612b33576040517f08c379a0000000000000000000000000000000000000000000000000000000008152600401612b2a90615350565b60405180910390fd5b612b4083838360016133cb565b8273ffffffffffffffffffffffffffffffffffffffff16612b6082611646565b73ffffffffffffffffffffffffffffffffffffffff1614612bb6576040517f08c379a0000000000000000000000000000000000000000000000000000000008152600401612bad906152be565b60405180910390fd5b6004600082815260200190815260200160002060006101000a81549073ffffffffffffffffffffffffffffffffffffffff02191690556001600360008573ffffffffffffffffffffffffffffffffffffffff1673ffffffffffffffffffffffffffffffffffffffff168152602001908152602001600020600082825403925050819055506001600360008473ffffffffffffffffffffffffffffffffffffffff1673ffffffffffffffffffffffffffffffffffffffff16815260200190815260200160002060008282540192505081905550816002600083815260200190815260200160002060006101000a81548173ffffffffffffffffffffffffffffffffffffffff021916908373ffffffffffffffffffffffffffffffffffffffff160217905550808273ffffffffffffffffffffffffffffffffffffffff168473ffffffffffffffffffffffffffffffffffffffff167fddf252ad1be2c89b69c2b068fc378daa952ba7f163c4a11628f55a4df523b3ef60405160405180910390a4612d4283838360016134f1565b505050565b612d4f6122f7565b73ffffffffffffffffffffffffffffffffffffffff16612d6d611888565b73ffffffffffffffffffffffffffffffffffffffff1614612dc3576040517f08c379a0000000000000000000000000000000000000000000000000000000008152600401612dba906153bc565b60405180910390fd5b565b612dcd6134f7565b6000600960006101000a81548160ff0219169083151502179055507f5db9ee0a495bf2e6ff9c91a7834c1ba4fdd244a5e8aa4e537bd38aeae4b073aa612e116122f7565b604051612e1e9190613d8f565b60405180910390a1565b60006002600083815260200190815260200160002060009054906101000a900473ffffffffffffffffffffffffffffffffffffffff169050919050565b6000600960019054906101000a900473ffffffffffffffffffffffffffffffffffffffff16905081600960016101000a81548173ffffffffffffffffffffffffffffffffffffffff021916908373ffffffffffffffffffffffffffffffffffffffff1602179055508173ffffffffffffffffffffffffffffffffffffffff168173ffffffffffffffffffffffffffffffffffffffff167f8be0079c531659141344cd1fd0a4f28419497f9722a3daafe3b4186f6b6457e060405160405180910390a35050565b612f336124dd565b6001600960006101000a81548160ff0219169083151502179055507f62e78cea01bee320cd4e420270b5ea74000d11b0c9f74754ebdbfc544b05a258612f776122f7565b604051612f849190613d8f565b60405180910390a1565b8173ffffffffffffffffffffffffffffffffffffffff168373ffffffffffffffffffffffffffffffffffffffff1603612ffc576040517f08c379a0000000000000000000000000000000000000000000000000000000008152600401612ff390615428565b60405180910390fd5b80600560008573ffffffffffffffffffffffffffffffffffffffff1673ffffffffffffffffffffffffffffffffffffffff16815260200190815260200160002060008473ffffffffffffffffffffffffffffffffffffffff1673ffffffffffffffffffffffffffffffffffffffff16815260200190815260200160002060006101000a81548160ff0219169083151502179055508173ffffffffffffffffffffffffffffffffffffffff168373ffffffffffffffffffffffffffffffffffffffff167f17307eab39ab6107e8899845ad3d59bd9653f200f220920489ca2b5937696c31836040516130ed9190613c1e565b60405180910390a3505050565b613105848484612a4e565b61311184848484613540565b613150576040517f08c379a0000000000000000000000000000000000000000000000000000000008152600401613147906154ba565b60405180910390fd5b50505050565b606060405180602001604052806000815250905090565b60606000600161317c846136c7565b01905060008167ffffffffffffffff81111561319b5761319a613e20565b5b6040519080825280601f01601f1916602001820160405280156131cd5781602001600182028036833780820191505090505b509050600082602001820190505b600115613230578080600190039150507f3031323334353637383961626364656600000000000000000000000000000000600a86061a8153600a8581613224576132236154da565b5b049450600085036131db575b819350505050919050565b6000600560008473ffffffffffffffffffffffffffffffffffffffff1673ffffffffffffffffffffffffffffffffffffffff16815260200190815260200160002060008373ffffffffffffffffffffffffffffffffffffffff1673ffffffffffffffffffffffffffffffffffffffff16815260200190815260200160002060009054906101000a900460ff16905092915050565b600060405180608001604052806043815260200161575960439139805190602001208260000151836020015184604001518051906020012060405160200161331a9493929190615509565b604051602081830303815290604052805190602001209050919050565b6000613341611267565b826040516020016133539291906155bb565b604051602081830303815290604052805190602001209050919050565b61337a838361381a565b6133876000848484613540565b6133c6576040517f08c379a00000000000000000000000000000000000000000000000000000000081526004016133bd906154ba565b60405180910390fd5b505050565b60018111156134eb57600073ffffffffffffffffffffffffffffffffffffffff168473ffffffffffffffffffffffffffffffffffffffff161461345f5780600360008673ffffffffffffffffffffffffffffffffffffffff1673ffffffffffffffffffffffffffffffffffffffff16815260200190815260200160002060008282546134579190614b0f565b925050819055505b600073ffffffffffffffffffffffffffffffffffffffff168373ffffffffffffffffffffffffffffffffffffffff16146134ea5780600360008573ffffffffffffffffffffffffffffffffffffffff1673ffffffffffffffffffffffffffffffffffffffff16815260200190815260200160002060008282546134e29190615133565b925050819055505b5b50505050565b50505050565b6134ff61160d565b61353e576040517f08c379a00000000000000000000000000000000000000000000000000000000081526004016135359061563e565b60405180910390fd5b565b60006135618473ffffffffffffffffffffffffffffffffffffffff16613a37565b156136ba578373ffffffffffffffffffffffffffffffffffffffff1663150b7a0261358a6122f7565b8786866040518563ffffffff1660e01b81526004016135ac949392919061565e565b6020604051808303816000875af19250505080156135e857506040513d601f19601f820116820180604052508101906135e591906156bf565b60015b61366a573d8060008114613618576040519150601f19603f3d011682016040523d82523d6000602084013e61361d565b606091505b506000815103613662576040517f08c379a0000000000000000000000000000000000000000000000000000000008152600401613659906154ba565b60405180910390fd5b805181602001fd5b63150b7a0260e01b7bffffffffffffffffffffffffffffffffffffffffffffffffffffffff1916817bffffffffffffffffffffffffffffffffffffffffffffffffffffffff1916149150506136bf565b600190505b949350505050565b600080600090507a184f03e93ff9f4daa797ed6e38ed64bf6a1f0100000000000000008310613725577a184f03e93ff9f4daa797ed6e38ed64bf6a1f010000000000000000838161371b5761371a6154da565b5b0492506040810190505b6d04ee2d6d415b85acef81000000008310613762576d04ee2d6d415b85acef81000000008381613758576137576154da565b5b0492506020810190505b662386f26fc10000831061379157662386f26fc100008381613787576137866154da565b5b0492506010810190505b6305f5e10083106137ba576305f5e10083816137b0576137af6154da565b5b0492506008810190505b61271083106137df5761271083816137d5576137d46154da565b5b0492506004810190505b6064831061380257606483816137f8576137f76154da565b5b0492506002810190505b600a8310613811576001810190505b80915050919050565b600073ffffffffffffffffffffffffffffffffffffffff168273ffffffffffffffffffffffffffffffffffffffff1603613889576040517f08c379a000000000000000000000000000000000000000000000000000000000815260040161388090615738565b60405180910390fd5b61389281612527565b156138d2576040517f08c379a00000000000000000000000000000000000000000000000000000000081526004016138c990614ac0565b60405180910390fd5b6138e06000838360016133cb565b6138e981612527565b15613929576040517f08c379a000000000000000000000000000000000000000000000000000000000815260040161392090614ac0565b60405180910390fd5b6001600360008473ffffffffffffffffffffffffffffffffffffffff1673ffffffffffffffffffffffffffffffffffffffff16815260200190815260200160002060008282540192505081905550816002600083815260200190815260200160002060006101000a81548173ffffffffffffffffffffffffffffffffffffffff021916908373ffffffffffffffffffffffffffffffffffffffff160217905550808273ffffffffffffffffffffffffffffffffffffffff16600073ffffffffffffffffffffffffffffffffffffffff167fddf252ad1be2c89b69c2b068fc378daa952ba7f163c4a11628f55a4df523b3ef60405160405180910390a4613a336000838360016134f1565b5050565b6000808273ffffffffffffffffffffffffffffffffffffffff163b119050919050565b82805482825590600052602060002090601f01602090048101928215613aef5791602002820160005b83821115613ac057835183826101000a81548160ff0219169083151502179055509260200192600101602081600001049283019260010302613a83565b8015613aed5782816101000a81549060ff0219169055600101602081600001049283019260010302613ac0565b505b509050613afc9190613b4d565b5090565b828054828255906000526020600020908101928215613b3c579160200282015b82811115613b3b578251825591602001919060010190613b20565b5b509050613b499190613b4d565b5090565b5b80821115613b66576000816000905550600101613b4e565b5090565b6000604051905090565b600080fd5b600080fd5b60007fffffffff0000000000000000000000000000000000000000000000000000000082169050919050565b613bb381613b7e565b8114613bbe57600080fd5b50565b600081359050613bd081613baa565b92915050565b600060208284031215613bec57613beb613b74565b5b6000613bfa84828501613bc1565b91505092915050565b60008115159050919050565b613c1881613c03565b82525050565b6000602082019050613c336000830184613c0f565b92915050565b600081519050919050565b600082825260208201905092915050565b60005b83811015613c73578082015181840152602081019050613c58565b60008484015250505050565b6000601f19601f8301169050919050565b6000613c9b82613c39565b613ca58185613c44565b9350613cb5818560208601613c55565b613cbe81613c7f565b840191505092915050565b60006020820190508181036000830152613ce38184613c90565b905092915050565b6000819050919050565b613cfe81613ceb565b8114613d0957600080fd5b50565b600081359050613d1b81613cf5565b92915050565b600060208284031215613d3757613d36613b74565b5b6000613d4584828501613d0c565b91505092915050565b600073ffffffffffffffffffffffffffffffffffffffff82169050919050565b6000613d7982613d4e565b9050919050565b613d8981613d6e565b82525050565b6000602082019050613da46000830184613d80565b92915050565b613db381613d6e565b8114613dbe57600080fd5b50565b600081359050613dd081613daa565b92915050565b60008060408385031215613ded57613dec613b74565b5b6000613dfb85828601613dc1565b9250506020613e0c85828601613d0c565b9150509250929050565b600080fd5b600080fd5b7f4e487b7100000000000000000000000000000000000000000000000000000000600052604160045260246000fd5b613e5882613c7f565b810181811067ffffffffffffffff82111715613e7757613e76613e20565b5b80604052505050565b6000613e8a613b6a565b9050613e968282613e4f565b919050565b600067ffffffffffffffff821115613eb657613eb5613e20565b5b613ebf82613c7f565b9050602081019050919050565b82818337600083830152505050565b6000613eee613ee984613e9b565b613e80565b905082815260208101848484011115613f0a57613f09613e1b565b5b613f15848285613ecc565b509392505050565b600082601f830112613f3257613f31613e16565b5b8135613f42848260208601613edb565b91505092915050565b6000819050919050565b613f5e81613f4b565b8114613f6957600080fd5b50565b600081359050613f7b81613f55565b92915050565b600060ff82169050919050565b613f9781613f81565b8114613fa257600080fd5b50565b600081359050613fb481613f8e565b92915050565b600080600080600060a08688031215613fd657613fd5613b74565b5b6000613fe488828901613dc1565b955050602086013567ffffffffffffffff81111561400557614004613b79565b5b61401188828901613f1d565b945050604061402288828901613f6c565b935050606061403388828901613f6c565b925050608061404488828901613fa5565b9150509295509295909350565b600081519050919050565b600082825260208201905092915050565b600061407882614051565b614082818561405c565b9350614092818560208601613c55565b61409b81613c7f565b840191505092915050565b600060208201905081810360008301526140c0818461406d565b905092915050565b6140d181613ceb565b82525050565b60006020820190506140ec60008301846140c8565b92915050565b6000806040838503121561410957614108613b74565b5b600061411785828601613d0c565b925050602061412885828601613d0c565b9150509250929050565b61413b81613f4b565b82525050565b60006020820190506141566000830184614132565b92915050565b60008060006060848603121561417557614174613b74565b5b600061418386828701613dc1565b935050602061419486828701613dc1565b92505060406141a586828701613d0c565b9150509250925092565b6000602082840312156141c5576141c4613b74565b5b60006141d384828501613dc1565b91505092915050565b6141e581613c03565b81146141f057600080fd5b50565b600081359050614202816141dc565b92915050565b60006020828403121561421e5761421d613b74565b5b600061422c848285016141f3565b91505092915050565b60008060006060848603121561424e5761424d613b74565b5b600061425c86828701613d0c565b935050602061426d86828701613d0c565b925050604061427e86828701613d0c565b9150509250925092565b600067ffffffffffffffff8211156142a3576142a2613e20565b5b602082029050602081019050919050565b600080fd5b60006142cc6142c784614288565b613e80565b905080838252602082019050602084028301858111156142ef576142ee6142b4565b5b835b81811015614318578061430488826141f3565b8452602084019350506020810190506142f1565b5050509392505050565b600082601f83011261433757614336613e16565b5b81356143478482602086016142b9565b91505092915050565b60006020828403121561436657614365613b74565b5b600082013567ffffffffffffffff81111561438457614383613b79565b5b61439084828501614322565b91505092915050565b600067ffffffffffffffff8211156143b4576143b3613e20565b5b602082029050602081019050919050565b60006143d86143d384614399565b613e80565b905080838252602082019050602084028301858111156143fb576143fa6142b4565b5b835b8181101561442457806144108882613d0c565b8452602084019350506020810190506143fd565b5050509392505050565b600082601f83011261444357614442613e16565b5b81356144538482602086016143c5565b91505092915050565b60006020828403121561447257614471613b74565b5b600082013567ffffffffffffffff8111156144905761448f613b79565b5b61449c8482850161442e565b91505092915050565b600080604083850312156144bc576144bb613b74565b5b60006144ca85828601613dc1565b92505060206144db858286016141f3565b9150509250929050565b600080600080608085870312156144ff576144fe613b74565b5b600061450d87828801613dc1565b945050602061451e87828801613dc1565b935050604061452f87828801613d0c565b925050606085013567ffffffffffffffff8111156145505761454f613b79565b5b61455c87828801613f1d565b91505092959194509250565b60008060008060008060c0878903121561458557614584613b74565b5b600061459389828a01613dc1565b96505060206145a489828a01613dc1565b95505060406145b589828a01613dc1565b94505060606145c689828a01613dc1565b93505060806145d789828a01613dc1565b92505060a06145e889828a01613dc1565b9150509295509295509295565b6000806040838503121561460c5761460b613b74565b5b600061461a85828601613dc1565b925050602061462b85828601613dc1565b9150509250929050565b7f4e487b7100000000000000000000000000000000000000000000000000000000600052602260045260246000fd5b6000600282049050600182168061467c57607f821691505b60208210810361468f5761468e614635565b5b50919050565b7f4552433732313a20617070726f76616c20746f2063757272656e74206f776e6560008201527f7200000000000000000000000000000000000000000000000000000000000000602082015250565b60006146f1602183613c44565b91506146fc82614695565b604082019050919050565b60006020820190508181036000830152614720816146e4565b9050919050565b7f4552433732313a20617070726f76652063616c6c6572206973206e6f7420746f60008201527f6b656e206f776e6572206f7220617070726f76656420666f7220616c6c000000602082015250565b6000614783603d83613c44565b915061478e82614727565b604082019050919050565b600060208201905081810360008301526147b281614776565b9050919050565b7f5369676e657220616e64207369676e617475726520646f206e6f74206d61746360008201527f6800000000000000000000000000000000000000000000000000000000000000602082015250565b6000614815602183613c44565b9150614820826147b9565b604082019050919050565b6000602082019050818103600083015261484481614808565b9050919050565b600061485682613d4e565b9050919050565b6148668161484b565b82525050565b60006060820190506148816000830186613d80565b61488e602083018561485d565b81810360408301526148a0818461406d565b9050949350505050565b600081905092915050565b60006148c082614051565b6148ca81856148aa565b93506148da818560208601613c55565b80840191505092915050565b60008160601b9050919050565b60006148fe826148e6565b9050919050565b6000614910826148f3565b9050919050565b61492861492382613d6e565b614905565b82525050565b600061493a82856148b5565b91506149468284614917565b6014820191508190509392505050565b600061496282846148b5565b915081905092915050565b7f46756e6374696f6e2063616c6c206e6f74207375636365737366756c00000000600082015250565b60006149a3601c83613c44565b91506149ae8261496d565b602082019050919050565b600060208201905081810360008301526149d281614996565b9050919050565b7f4e487b7100000000000000000000000000000000000000000000000000000000600052603260045260246000fd5b7f43757272656e6379206973206e6f7420616c6c6f7765642e0000000000000000600082015250565b6000614a3e601883613c44565b9150614a4982614a08565b602082019050919050565b60006020820190508181036000830152614a6d81614a31565b9050919050565b7f4552433732313a20746f6b656e20616c7265616479206d696e74656400000000600082015250565b6000614aaa601c83613c44565b9150614ab582614a74565b602082019050919050565b60006020820190508181036000830152614ad981614a9d565b9050919050565b7f4e487b7100000000000000000000000000000000000000000000000000000000600052601160045260246000fd5b6000614b1a82613ceb565b9150614b2583613ceb565b9250828203905081811115614b3d57614b3c614ae0565b5b92915050565b6000614b4e82613ceb565b91507fffffffffffffffffffffffffffffffffffffffffffffffffffffffffffffffff8203614b8057614b7f614ae0565b5b600182019050919050565b7f4552433732313a2063616c6c6572206973206e6f7420746f6b656e206f776e6560008201527f72206f7220617070726f76656400000000000000000000000000000000000000602082015250565b6000614be7602d83613c44565b9150614bf282614b8b565b604082019050919050565b60006020820190508181036000830152614c1681614bda565b9050919050565b6000604082019050614c3260008301856140c8565b614c3f6020830184613d80565b9392505050565b7f4552433732313a20696e76616c696420746f6b656e2049440000000000000000600082015250565b6000614c7c601883613c44565b9150614c8782614c46565b602082019050919050565b60006020820190508181036000830152614cab81614c6f565b9050919050565b7f4552433732313a2061646472657373207a65726f206973206e6f74206120766160008201527f6c6964206f776e65720000000000000000000000000000000000000000000000602082015250565b6000614d0e602983613c44565b9150614d1982614cb2565b604082019050919050565b60006020820190508181036000830152614d3d81614d01565b9050919050565b600081519050614d5381613cf5565b92915050565b600060208284031215614d6f57614d6e613b74565b5b6000614d7d84828501614d44565b91505092915050565b7f4e6f2073756368206120746f6b656e0000000000000000000000000000000000600082015250565b6000614dbc600f83613c44565b9150614dc782614d86565b602082019050919050565b60006020820190508181036000830152614deb81614daf565b9050919050565b600081905092915050565b6000614e0882613c39565b614e128185614df2565b9350614e22818560208601613c55565b80840191505092915050565b6000614e3a8285614dfd565b9150614e468284614dfd565b91508190509392505050565b7f4552433732313a207365727669636520666565206973206e6f7420636f72726560008201527f6374000000000000000000000000000000000000000000000000000000000000602082015250565b6000614eae602283613c44565b9150614eb982614e52565b604082019050919050565b60006020820190508181036000830152614edd81614ea1565b9050919050565b7f53656e646572206973206e6f7420746865204f776e6572000000000000000000600082015250565b6000614f1a601783613c44565b9150614f2582614ee4565b602082019050919050565b60006020820190508181036000830152614f4981614f0d565b9050919050565b6000614f5b82613d6e565b9050919050565b614f6b81614f50565b8114614f7657600080fd5b50565b600081519050614f8881614f62565b92915050565b600060208284031215614fa457614fa3613b74565b5b6000614fb284828501614f79565b91505092915050565b7f4f776e61626c653a206e6577206f776e657220697320746865207a65726f206160008201527f6464726573730000000000000000000000000000000000000000000000000000602082015250565b6000615017602683613c44565b915061502282614fbb565b604082019050919050565b600060208201905081810360008301526150468161500a565b9050919050565b7f4e61746976654d6574615472616e73616374696f6e3a20494e56414c49445f5360008201527f49474e4552000000000000000000000000000000000000000000000000000000602082015250565b60006150a9602583613c44565b91506150b48261504d565b604082019050919050565b600060208201905081810360008301526150d88161509c565b9050919050565b6150e881613f81565b82525050565b60006080820190506151036000830187614132565b61511060208301866150df565b61511d6040830185614132565b61512a6060830184614132565b95945050505050565b600061513e82613ceb565b915061514983613ceb565b925082820190508082111561516157615160614ae0565b5b92915050565b7f5061757361626c653a2070617573656400000000000000000000000000000000600082015250565b600061519d601083613c44565b91506151a882615167565b602082019050919050565b600060208201905081810360008301526151cc81615190565b9050919050565b60006060820190506151e86000830186613d80565b6151f56020830185613d80565b61520260408301846140c8565b949350505050565b600081519050615219816141dc565b92915050565b60006020828403121561523557615234613b74565b5b60006152438482850161520a565b91505092915050565b7f4552433732313a207472616e736665722066726f6d20696e636f72726563742060008201527f6f776e6572000000000000000000000000000000000000000000000000000000602082015250565b60006152a8602583613c44565b91506152b38261524c565b604082019050919050565b600060208201905081810360008301526152d78161529b565b9050919050565b7f4552433732313a207472616e7366657220746f20746865207a65726f2061646460008201527f7265737300000000000000000000000000000000000000000000000000000000602082015250565b600061533a602483613c44565b9150615345826152de565b604082019050919050565b600060208201905081810360008301526153698161532d565b9050919050565b7f4f776e61626c653a2063616c6c6572206973206e6f7420746865206f776e6572600082015250565b60006153a6602083613c44565b91506153b182615370565b602082019050919050565b600060208201905081810360008301526153d581615399565b9050919050565b7f4552433732313a20617070726f766520746f2063616c6c657200000000000000600082015250565b6000615412601983613c44565b915061541d826153dc565b602082019050919050565b6000602082019050818103600083015261544181615405565b9050919050565b7f4552433732313a207472616e7366657220746f206e6f6e20455243373231526560008201527f63656976657220696d706c656d656e7465720000000000000000000000000000602082015250565b60006154a4603283613c44565b91506154af82615448565b604082019050919050565b600060208201905081810360008301526154d381615497565b9050919050565b7f4e487b7100000000000000000000000000000000000000000000000000000000600052601260045260246000fd5b600060808201905061551e6000830187614132565b61552b60208301866140c8565b6155386040830185613d80565b6155456060830184614132565b95945050505050565b7f1901000000000000000000000000000000000000000000000000000000000000600082015250565b6000615584600283614df2565b915061558f8261554e565b600282019050919050565b6000819050919050565b6155b56155b082613f4b565b61559a565b82525050565b60006155c682615577565b91506155d282856155a4565b6020820191506155e282846155a4565b6020820191508190509392505050565b7f5061757361626c653a206e6f7420706175736564000000000000000000000000600082015250565b6000615628601483613c44565b9150615633826155f2565b602082019050919050565b600060208201905081810360008301526156578161561b565b9050919050565b60006080820190506156736000830187613d80565b6156806020830186613d80565b61568d60408301856140c8565b818103606083015261569f818461406d565b905095945050505050565b6000815190506156b981613baa565b92915050565b6000602082840312156156d5576156d4613b74565b5b60006156e3848285016156aa565b91505092915050565b7f4552433732313a206d696e7420746f20746865207a65726f2061646472657373600082015250565b6000615722602083613c44565b915061572d826156ec565b602082019050919050565b6000602082019050818103600083015261575181615715565b905091905056fe4d6574615472616e73616374696f6e2875696e74323536206e6f6e63652c616464726573732066726f6d2c62797465732066756e6374696f6e5369676e617475726529a2646970667358221220d958233c2ff46dbcb526423c380b16fd7454633f6557d37eea6b366251d9faef64736f6c63430008110033",
			"opcodes": "PUSH1 0x80 PUSH1 0x40 MSTORE PUSH1 0x0 PUSH1 0x6 PUSH1 0x0 PUSH2 0x100 EXP DUP2 SLOAD DUP2 PUSH1 0xFF MUL NOT AND SWAP1 DUP4 ISZERO ISZERO MUL OR SWAP1 SSTORE POP PUSH1 0x40 MLOAD DUP1 PUSH1 0x80 ADD PUSH1 0x40 MSTORE DUP1 PUSH7 0x2386F26FC10000 PUSH7 0xFFFFFFFFFFFFFF AND DUP2 MSTORE PUSH1 0x20 ADD PUSH7 0x11C37937E08000 PUSH7 0xFFFFFFFFFFFFFF AND DUP2 MSTORE PUSH1 0x20 ADD PUSH7 0xAA87BEE538000 PUSH7 0xFFFFFFFFFFFFFF AND DUP2 MSTORE PUSH1 0x20 ADD PUSH7 0x38D7EA4C68000 PUSH7 0xFFFFFFFFFFFFFF AND DUP2 MSTORE POP PUSH1 0xC SWAP1 PUSH1 0x4 PUSH3 0x92 SWAP3 SWAP2 SWAP1 PUSH3 0x4D1 JUMP JUMPDEST POP PUSH1 0x40 MLOAD DUP1 PUSH1 0x80 ADD PUSH1 0x40 MSTORE DUP1 PUSH9 0xD8D726B7177A800000 PUSH9 0xFFFFFFFFFFFFFFFFFF AND DUP2 MSTORE PUSH1 0x20 ADD PUSH9 0x6C6B935B8BBD400000 PUSH9 0xFFFFFFFFFFFFFFFFFF AND DUP2 MSTORE PUSH1 0x20 ADD PUSH9 0x3635C9ADC5DEA00000 PUSH9 0xFFFFFFFFFFFFFFFFFF AND DUP2 MSTORE PUSH1 0x20 ADD PUSH9 0x1B1AE4D6E2EF500000 PUSH9 0xFFFFFFFFFFFFFFFFFF AND DUP2 MSTORE POP PUSH1 0xD SWAP1 PUSH1 0x4 PUSH3 0x116 SWAP3 SWAP2 SWAP1 PUSH3 0x52E JUMP JUMPDEST POP PUSH1 0x40 MLOAD DUP1 PUSH1 0x80 ADD PUSH1 0x40 MSTORE DUP1 PUSH2 0x1388 PUSH2 0xFFFF AND DUP2 MSTORE PUSH1 0x20 ADD PUSH2 0x1B58 PUSH2 0xFFFF AND DUP2 MSTORE PUSH1 0x20 ADD PUSH2 0x1F40 PUSH2 0xFFFF AND DUP2 MSTORE PUSH1 0x20 ADD PUSH2 0x216B PUSH2 0xFFFF AND DUP2 MSTORE POP PUSH1 0xE SWAP1 PUSH1 0x4 PUSH3 0x162 SWAP3 SWAP2 SWAP1 PUSH3 0x58D JUMP JUMPDEST POP PUSH2 0x216B PUSH1 0xF SSTORE PUSH1 0x0 PUSH1 0x10 SSTORE PUSH1 0x0 PUSH1 0x11 PUSH1 0x0 PUSH2 0x100 EXP DUP2 SLOAD DUP2 PUSH1 0xFF MUL NOT AND SWAP1 DUP4 ISZERO ISZERO MUL OR SWAP1 SSTORE POP PUSH1 0x40 MLOAD DUP1 PUSH1 0xC0 ADD PUSH1 0x40 MSTORE DUP1 PUSH1 0x1 ISZERO ISZERO ISZERO ISZERO DUP2 MSTORE PUSH1 0x20 ADD PUSH1 0x1 ISZERO ISZERO ISZERO ISZERO DUP2 MSTORE PUSH1 0x20 ADD PUSH1 0x1 ISZERO ISZERO ISZERO ISZERO DUP2 MSTORE PUSH1 0x20 ADD PUSH1 0x0 ISZERO ISZERO ISZERO ISZERO DUP2 MSTORE PUSH1 0x20 ADD PUSH1 0x0 ISZERO ISZERO ISZERO ISZERO DUP2 MSTORE PUSH1 0x20 ADD PUSH1 0x0 ISZERO ISZERO ISZERO ISZERO DUP2 MSTORE POP PUSH1 0x13 SWAP1 PUSH1 0x6 PUSH3 0x1E6 SWAP3 SWAP2 SWAP1 PUSH3 0x5E5 JUMP JUMPDEST POP CALLVALUE DUP1 ISZERO PUSH3 0x1F4 JUMPI PUSH1 0x0 DUP1 REVERT JUMPDEST POP PUSH1 0x40 MLOAD DUP1 PUSH1 0x40 ADD PUSH1 0x40 MSTORE DUP1 PUSH1 0xB DUP2 MSTORE PUSH1 0x20 ADD PUSH32 0x44656375706C65204E4654000000000000000000000000000000000000000000 DUP2 MSTORE POP PUSH1 0x40 MLOAD DUP1 PUSH1 0x40 ADD PUSH1 0x40 MSTORE DUP1 PUSH1 0x4 DUP2 MSTORE PUSH1 0x20 ADD PUSH32 0x4344504E00000000000000000000000000000000000000000000000000000000 DUP2 MSTORE POP DUP2 PUSH1 0x0 SWAP1 DUP2 PUSH3 0x272 SWAP2 SWAP1 PUSH3 0x9D8 JUMP JUMPDEST POP DUP1 PUSH1 0x1 SWAP1 DUP2 PUSH3 0x284 SWAP2 SWAP1 PUSH3 0x9D8 JUMP JUMPDEST POP POP POP PUSH1 0x0 PUSH1 0x9 PUSH1 0x0 PUSH2 0x100 EXP DUP2 SLOAD DUP2 PUSH1 0xFF MUL NOT AND SWAP1 DUP4 ISZERO ISZERO MUL OR SWAP1 SSTORE POP PUSH3 0x2C2 PUSH3 0x2B6 PUSH3 0x33D PUSH1 0x20 SHL PUSH1 0x20 SHR JUMP JUMPDEST PUSH3 0x359 PUSH1 0x20 SHL PUSH1 0x20 SHR JUMP JUMPDEST PUSH1 0x1 PUSH1 0xF SLOAD PUSH3 0x2D3 SWAP2 SWAP1 PUSH3 0xAEE JUMP JUMPDEST PUSH8 0xFFFFFFFFFFFFFFFF DUP2 GT ISZERO PUSH3 0x2EF JUMPI PUSH3 0x2EE PUSH3 0x769 JUMP JUMPDEST JUMPDEST PUSH1 0x40 MLOAD SWAP1 DUP1 DUP3 MSTORE DUP1 PUSH1 0x20 MUL PUSH1 0x20 ADD DUP3 ADD PUSH1 0x40 MSTORE DUP1 ISZERO PUSH3 0x31E JUMPI DUP2 PUSH1 0x20 ADD PUSH1 0x20 DUP3 MUL DUP1 CALLDATASIZE DUP4 CALLDATACOPY DUP1 DUP3 ADD SWAP2 POP POP SWAP1 POP JUMPDEST POP PUSH1 0xA SWAP1 DUP1 MLOAD SWAP1 PUSH1 0x20 ADD SWAP1 PUSH3 0x336 SWAP3 SWAP2 SWAP1 PUSH3 0x692 JUMP JUMPDEST POP PUSH3 0xB29 JUMP JUMPDEST PUSH1 0x0 PUSH3 0x354 PUSH3 0x41F PUSH1 0x20 SHL PUSH3 0x2192 OR PUSH1 0x20 SHR JUMP JUMPDEST SWAP1 POP SWAP1 JUMP JUMPDEST PUSH1 0x0 PUSH1 0x9 PUSH1 0x1 SWAP1 SLOAD SWAP1 PUSH2 0x100 EXP SWAP1 DIV PUSH20 0xFFFFFFFFFFFFFFFFFFFFFFFFFFFFFFFFFFFFFFFF AND SWAP1 POP DUP2 PUSH1 0x9 PUSH1 0x1 PUSH2 0x100 EXP DUP2 SLOAD DUP2 PUSH20 0xFFFFFFFFFFFFFFFFFFFFFFFFFFFFFFFFFFFFFFFF MUL NOT AND SWAP1 DUP4 PUSH20 0xFFFFFFFFFFFFFFFFFFFFFFFFFFFFFFFFFFFFFFFF AND MUL OR SWAP1 SSTORE POP DUP2 PUSH20 0xFFFFFFFFFFFFFFFFFFFFFFFFFFFFFFFFFFFFFFFF AND DUP2 PUSH20 0xFFFFFFFFFFFFFFFFFFFFFFFFFFFFFFFFFFFFFFFF AND PUSH32 0x8BE0079C531659141344CD1FD0A4F28419497F9722A3DAAFE3B4186F6B6457E0 PUSH1 0x40 MLOAD PUSH1 0x40 MLOAD DUP1 SWAP2 SUB SWAP1 LOG3 POP POP JUMP JUMPDEST PUSH1 0x0 ADDRESS PUSH20 0xFFFFFFFFFFFFFFFFFFFFFFFFFFFFFFFFFFFFFFFF AND CALLER PUSH20 0xFFFFFFFFFFFFFFFFFFFFFFFFFFFFFFFFFFFFFFFF AND SUB PUSH3 0x4CA JUMPI PUSH1 0x0 DUP1 CALLDATASIZE DUP1 DUP1 PUSH1 0x1F ADD PUSH1 0x20 DUP1 SWAP2 DIV MUL PUSH1 0x20 ADD PUSH1 0x40 MLOAD SWAP1 DUP2 ADD PUSH1 0x40 MSTORE DUP1 SWAP4 SWAP3 SWAP2 SWAP1 DUP2 DUP2 MSTORE PUSH1 0x20 ADD DUP4 DUP4 DUP1 DUP3 DUP5 CALLDATACOPY PUSH1 0x0 DUP2 DUP5 ADD MSTORE PUSH1 0x1F NOT PUSH1 0x1F DUP3 ADD AND SWAP1 POP DUP1 DUP4 ADD SWAP3 POP POP POP POP POP POP POP SWAP1 POP PUSH1 0x0 DUP1 CALLDATASIZE SWAP1 POP SWAP1 POP PUSH20 0xFFFFFFFFFFFFFFFFFFFFFFFFFFFFFFFFFFFFFFFF DUP2 DUP4 ADD MLOAD AND SWAP3 POP POP POP PUSH3 0x4CE JUMP JUMPDEST CALLER SWAP1 POP JUMPDEST SWAP1 JUMP JUMPDEST DUP3 DUP1 SLOAD DUP3 DUP3 SSTORE SWAP1 PUSH1 0x0 MSTORE PUSH1 0x20 PUSH1 0x0 KECCAK256 SWAP1 DUP2 ADD SWAP3 DUP3 ISZERO PUSH3 0x51B JUMPI SWAP2 PUSH1 0x20 MUL DUP3 ADD JUMPDEST DUP3 DUP2 GT ISZERO PUSH3 0x51A JUMPI DUP3 MLOAD DUP3 SWAP1 PUSH7 0xFFFFFFFFFFFFFF AND SWAP1 SSTORE SWAP2 PUSH1 0x20 ADD SWAP2 SWAP1 PUSH1 0x1 ADD SWAP1 PUSH3 0x4F2 JUMP JUMPDEST JUMPDEST POP SWAP1 POP PUSH3 0x52A SWAP2 SWAP1 PUSH3 0x73F JUMP JUMPDEST POP SWAP1 JUMP JUMPDEST DUP3 DUP1 SLOAD DUP3 DUP3 SSTORE SWAP1 PUSH1 0x0 MSTORE PUSH1 0x20 PUSH1 0x0 KECCAK256 SWAP1 DUP2 ADD SWAP3 DUP3 ISZERO PUSH3 0x57A JUMPI SWAP2 PUSH1 0x20 MUL DUP3 ADD JUMPDEST DUP3 DUP2 GT ISZERO PUSH3 0x579 JUMPI DUP3 MLOAD DUP3 SWAP1 PUSH9 0xFFFFFFFFFFFFFFFFFF AND SWAP1 SSTORE SWAP2 PUSH1 0x20 ADD SWAP2 SWAP1 PUSH1 0x1 ADD SWAP1 PUSH3 0x54F JUMP JUMPDEST JUMPDEST POP SWAP1 POP PUSH3 0x589 SWAP2 SWAP1 PUSH3 0x73F JUMP JUMPDEST POP SWAP1 JUMP JUMPDEST DUP3 DUP1 SLOAD DUP3 DUP3 SSTORE SWAP1 PUSH1 0x0 MSTORE PUSH1 0x20 PUSH1 0x0 KECCAK256 SWAP1 DUP2 ADD SWAP3 DUP3 ISZERO PUSH3 0x5D2 JUMPI SWAP2 PUSH1 0x20 MUL DUP3 ADD JUMPDEST DUP3 DUP2 GT ISZERO PUSH3 0x5D1 JUMPI DUP3 MLOAD DUP3 SWAP1 PUSH2 0xFFFF AND SWAP1 SSTORE SWAP2 PUSH1 0x20 ADD SWAP2 SWAP1 PUSH1 0x1 ADD SWAP1 PUSH3 0x5AE JUMP JUMPDEST JUMPDEST POP SWAP1 POP PUSH3 0x5E1 SWAP2 SWAP1 PUSH3 0x73F JUMP JUMPDEST POP SWAP1 JUMP JUMPDEST DUP3 DUP1 SLOAD DUP3 DUP3 SSTORE SWAP1 PUSH1 0x0 MSTORE PUSH1 0x20 PUSH1 0x0 KECCAK256 SWAP1 PUSH1 0x1F ADD PUSH1 0x20 SWAP1 DIV DUP2 ADD SWAP3 DUP3 ISZERO PUSH3 0x67F JUMPI SWAP2 PUSH1 0x20 MUL DUP3 ADD PUSH1 0x0 JUMPDEST DUP4 DUP3 GT ISZERO PUSH3 0x64E JUMPI DUP4 MLOAD DUP4 DUP3 PUSH2 0x100 EXP DUP2 SLOAD DUP2 PUSH1 0xFF MUL NOT AND SWAP1 DUP4 ISZERO ISZERO MUL OR SWAP1 SSTORE POP SWAP3 PUSH1 0x20 ADD SWAP3 PUSH1 0x1 ADD PUSH1 0x20 DUP2 PUSH1 0x0 ADD DIV SWAP3 DUP4 ADD SWAP3 PUSH1 0x1 SUB MUL PUSH3 0x60F JUMP JUMPDEST DUP1 ISZERO PUSH3 0x67D JUMPI DUP3 DUP2 PUSH2 0x100 EXP DUP2 SLOAD SWAP1 PUSH1 0xFF MUL NOT AND SWAP1 SSTORE PUSH1 0x1 ADD PUSH1 0x20 DUP2 PUSH1 0x0 ADD DIV SWAP3 DUP4 ADD SWAP3 PUSH1 0x1 SUB MUL PUSH3 0x64E JUMP JUMPDEST POP JUMPDEST POP SWAP1 POP PUSH3 0x68E SWAP2 SWAP1 PUSH3 0x73F JUMP JUMPDEST POP SWAP1 JUMP JUMPDEST DUP3 DUP1 SLOAD DUP3 DUP3 SSTORE SWAP1 PUSH1 0x0 MSTORE PUSH1 0x20 PUSH1 0x0 KECCAK256 SWAP1 PUSH1 0x1F ADD PUSH1 0x20 SWAP1 DIV DUP2 ADD SWAP3 DUP3 ISZERO PUSH3 0x72C JUMPI SWAP2 PUSH1 0x20 MUL DUP3 ADD PUSH1 0x0 JUMPDEST DUP4 DUP3 GT ISZERO PUSH3 0x6FB JUMPI DUP4 MLOAD DUP4 DUP3 PUSH2 0x100 EXP DUP2 SLOAD DUP2 PUSH1 0xFF MUL NOT AND SWAP1 DUP4 ISZERO ISZERO MUL OR SWAP1 SSTORE POP SWAP3 PUSH1 0x20 ADD SWAP3 PUSH1 0x1 ADD PUSH1 0x20 DUP2 PUSH1 0x0 ADD DIV SWAP3 DUP4 ADD SWAP3 PUSH1 0x1 SUB MUL PUSH3 0x6BC JUMP JUMPDEST DUP1 ISZERO PUSH3 0x72A JUMPI DUP3 DUP2 PUSH2 0x100 EXP DUP2 SLOAD SWAP1 PUSH1 0xFF MUL NOT AND SWAP1 SSTORE PUSH1 0x1 ADD PUSH1 0x20 DUP2 PUSH1 0x0 ADD DIV SWAP3 DUP4 ADD SWAP3 PUSH1 0x1 SUB MUL PUSH3 0x6FB JUMP JUMPDEST POP JUMPDEST POP SWAP1 POP PUSH3 0x73B SWAP2 SWAP1 PUSH3 0x73F JUMP JUMPDEST POP SWAP1 JUMP JUMPDEST JUMPDEST DUP1 DUP3 GT ISZERO PUSH3 0x75A JUMPI PUSH1 0x0 DUP2 PUSH1 0x0 SWAP1 SSTORE POP PUSH1 0x1 ADD PUSH3 0x740 JUMP JUMPDEST POP SWAP1 JUMP JUMPDEST PUSH1 0x0 DUP2 MLOAD SWAP1 POP SWAP2 SWAP1 POP JUMP JUMPDEST PUSH32 0x4E487B7100000000000000000000000000000000000000000000000000000000 PUSH1 0x0 MSTORE PUSH1 0x41 PUSH1 0x4 MSTORE PUSH1 0x24 PUSH1 0x0 REVERT JUMPDEST PUSH32 0x4E487B7100000000000000000000000000000000000000000000000000000000 PUSH1 0x0 MSTORE PUSH1 0x22 PUSH1 0x4 MSTORE PUSH1 0x24 PUSH1 0x0 REVERT JUMPDEST PUSH1 0x0 PUSH1 0x2 DUP3 DIV SWAP1 POP PUSH1 0x1 DUP3 AND DUP1 PUSH3 0x7E0 JUMPI PUSH1 0x7F DUP3 AND SWAP2 POP JUMPDEST PUSH1 0x20 DUP3 LT DUP2 SUB PUSH3 0x7F6 JUMPI PUSH3 0x7F5 PUSH3 0x798 JUMP JUMPDEST JUMPDEST POP SWAP2 SWAP1 POP JUMP JUMPDEST PUSH1 0x0 DUP2 SWAP1 POP DUP2 PUSH1 0x0 MSTORE PUSH1 0x20 PUSH1 0x0 KECCAK256 SWAP1 POP SWAP2 SWAP1 POP JUMP JUMPDEST PUSH1 0x0 PUSH1 0x20 PUSH1 0x1F DUP4 ADD DIV SWAP1 POP SWAP2 SWAP1 POP JUMP JUMPDEST PUSH1 0x0 DUP3 DUP3 SHL SWAP1 POP SWAP3 SWAP2 POP POP JUMP JUMPDEST PUSH1 0x0 PUSH1 0x8 DUP4 MUL PUSH3 0x860 PUSH32 0xFFFFFFFFFFFFFFFFFFFFFFFFFFFFFFFFFFFFFFFFFFFFFFFFFFFFFFFFFFFFFFFF DUP3 PUSH3 0x821 JUMP JUMPDEST PUSH3 0x86C DUP7 DUP4 PUSH3 0x821 JUMP JUMPDEST SWAP6 POP DUP1 NOT DUP5 AND SWAP4 POP DUP1 DUP7 AND DUP5 OR SWAP3 POP POP POP SWAP4 SWAP3 POP POP POP JUMP JUMPDEST PUSH1 0x0 DUP2 SWAP1 POP SWAP2 SWAP1 POP JUMP JUMPDEST PUSH1 0x0 DUP2 SWAP1 POP SWAP2 SWAP1 POP JUMP JUMPDEST PUSH1 0x0 PUSH3 0x8B9 PUSH3 0x8B3 PUSH3 0x8AD DUP5 PUSH3 0x884 JUMP JUMPDEST PUSH3 0x88E JUMP JUMPDEST PUSH3 0x884 JUMP JUMPDEST SWAP1 POP SWAP2 SWAP1 POP JUMP JUMPDEST PUSH1 0x0 DUP2 SWAP1 POP SWAP2 SWAP1 POP JUMP JUMPDEST PUSH3 0x8D5 DUP4 PUSH3 0x898 JUMP JUMPDEST PUSH3 0x8ED PUSH3 0x8E4 DUP3 PUSH3 0x8C0 JUMP JUMPDEST DUP5 DUP5 SLOAD PUSH3 0x82E JUMP JUMPDEST DUP3 SSTORE POP POP POP POP JUMP JUMPDEST PUSH1 0x0 SWAP1 JUMP JUMPDEST PUSH3 0x904 PUSH3 0x8F5 JUMP JUMPDEST PUSH3 0x911 DUP2 DUP5 DUP5 PUSH3 0x8CA JUMP JUMPDEST POP POP POP JUMP JUMPDEST JUMPDEST DUP2 DUP2 LT ISZERO PUSH3 0x939 JUMPI PUSH3 0x92D PUSH1 0x0 DUP3 PUSH3 0x8FA JUMP JUMPDEST PUSH1 0x1 DUP2 ADD SWAP1 POP PUSH3 0x917 JUMP JUMPDEST POP POP JUMP JUMPDEST PUSH1 0x1F DUP3 GT ISZERO PUSH3 0x988 JUMPI PUSH3 0x952 DUP2 PUSH3 0x7FC JUMP JUMPDEST PUSH3 0x95D DUP5 PUSH3 0x811 JUMP JUMPDEST DUP2 ADD PUSH1 0x20 DUP6 LT ISZERO PUSH3 0x96D JUMPI DUP2 SWAP1 POP JUMPDEST PUSH3 0x985 PUSH3 0x97C DUP6 PUSH3 0x811 JUMP JUMPDEST DUP4 ADD DUP3 PUSH3 0x916 JUMP JUMPDEST POP POP JUMPDEST POP POP POP JUMP JUMPDEST PUSH1 0x0 DUP3 DUP3 SHR SWAP1 POP SWAP3 SWAP2 POP POP JUMP JUMPDEST PUSH1 0x0 PUSH3 0x9AD PUSH1 0x0 NOT DUP5 PUSH1 0x8 MUL PUSH3 0x98D JUMP JUMPDEST NOT DUP1 DUP4 AND SWAP2 POP POP SWAP3 SWAP2 POP POP JUMP JUMPDEST PUSH1 0x0 PUSH3 0x9C8 DUP4 DUP4 PUSH3 0x99A JUMP JUMPDEST SWAP2 POP DUP3 PUSH1 0x2 MUL DUP3 OR SWAP1 POP SWAP3 SWAP2 POP POP JUMP JUMPDEST PUSH3 0x9E3 DUP3 PUSH3 0x75E JUMP JUMPDEST PUSH8 0xFFFFFFFFFFFFFFFF DUP2 GT ISZERO PUSH3 0x9FF JUMPI PUSH3 0x9FE PUSH3 0x769 JUMP JUMPDEST JUMPDEST PUSH3 0xA0B DUP3 SLOAD PUSH3 0x7C7 JUMP JUMPDEST PUSH3 0xA18 DUP3 DUP3 DUP6 PUSH3 0x93D JUMP JUMPDEST PUSH1 0x0 PUSH1 0x20 SWAP1 POP PUSH1 0x1F DUP4 GT PUSH1 0x1 DUP2 EQ PUSH3 0xA50 JUMPI PUSH1 0x0 DUP5 ISZERO PUSH3 0xA3B JUMPI DUP3 DUP8 ADD MLOAD SWAP1 POP JUMPDEST PUSH3 0xA47 DUP6 DUP3 PUSH3 0x9BA JUMP JUMPDEST DUP7 SSTORE POP PUSH3 0xAB7 JUMP JUMPDEST PUSH1 0x1F NOT DUP5 AND PUSH3 0xA60 DUP7 PUSH3 0x7FC JUMP JUMPDEST PUSH1 0x0 JUMPDEST DUP3 DUP2 LT ISZERO PUSH3 0xA8A JUMPI DUP5 DUP10 ADD MLOAD DUP3 SSTORE PUSH1 0x1 DUP3 ADD SWAP2 POP PUSH1 0x20 DUP6 ADD SWAP5 POP PUSH1 0x20 DUP2 ADD SWAP1 POP PUSH3 0xA63 JUMP JUMPDEST DUP7 DUP4 LT ISZERO PUSH3 0xAAA JUMPI DUP5 DUP10 ADD MLOAD PUSH3 0xAA6 PUSH1 0x1F DUP10 AND DUP3 PUSH3 0x99A JUMP JUMPDEST DUP4 SSTORE POP JUMPDEST PUSH1 0x1 PUSH1 0x2 DUP9 MUL ADD DUP9 SSTORE POP POP POP JUMPDEST POP POP POP POP POP POP JUMP JUMPDEST PUSH32 0x4E487B7100000000000000000000000000000000000000000000000000000000 PUSH1 0x0 MSTORE PUSH1 0x11 PUSH1 0x4 MSTORE PUSH1 0x24 PUSH1 0x0 REVERT JUMPDEST PUSH1 0x0 PUSH3 0xAFB DUP3 PUSH3 0x884 JUMP JUMPDEST SWAP2 POP PUSH3 0xB08 DUP4 PUSH3 0x884 JUMP JUMPDEST SWAP3 POP DUP3 DUP3 ADD SWAP1 POP DUP1 DUP3 GT ISZERO PUSH3 0xB23 JUMPI PUSH3 0xB22 PUSH3 0xABF JUMP JUMPDEST JUMPDEST SWAP3 SWAP2 POP POP JUMP JUMPDEST PUSH2 0x57D1 DUP1 PUSH3 0xB39 PUSH1 0x0 CODECOPY PUSH1 0x0 RETURN INVALID PUSH1 0x80 PUSH1 0x40 MSTORE PUSH1 0x4 CALLDATASIZE LT PUSH2 0x272 JUMPI PUSH1 0x0 CALLDATALOAD PUSH1 0xE0 SHR DUP1 PUSH4 0x6352211E GT PUSH2 0x14F JUMPI DUP1 PUSH4 0xBF687504 GT PUSH2 0xC1 JUMPI DUP1 PUSH4 0xD5ABEB01 GT PUSH2 0x7A JUMPI DUP1 PUSH4 0xD5ABEB01 EQ PUSH2 0x98B JUMPI DUP1 PUSH4 0xD780C9D7 EQ PUSH2 0x9B6 JUMPI DUP1 PUSH4 0xE48513DC EQ PUSH2 0x9D2 JUMPI DUP1 PUSH4 0xE80AF73A EQ PUSH2 0x9FB JUMPI DUP1 PUSH4 0xE985E9C5 EQ PUSH2 0xA38 JUMPI DUP1 PUSH4 0xF2FDE38B EQ PUSH2 0xA75 JUMPI PUSH2 0x272 JUMP JUMPDEST DUP1 PUSH4 0xBF687504 EQ PUSH2 0x831 JUMPI DUP1 PUSH4 0xC25B2368 EQ PUSH2 0x86E JUMPI DUP1 PUSH4 0xC26B265F EQ PUSH2 0x8AB JUMPI DUP1 PUSH4 0xC45DD18F EQ PUSH2 0x8E8 JUMPI DUP1 PUSH4 0xC4F57351 EQ PUSH2 0x911 JUMPI DUP1 PUSH4 0xC87B56DD EQ PUSH2 0x94E JUMPI PUSH2 0x272 JUMP JUMPDEST DUP1 PUSH4 0x8456CB59 GT PUSH2 0x113 JUMPI DUP1 PUSH4 0x8456CB59 EQ PUSH2 0x749 JUMPI DUP1 PUSH4 0x8DA5CB5B EQ PUSH2 0x760 JUMPI DUP1 PUSH4 0x95D89B41 EQ PUSH2 0x78B JUMPI DUP1 PUSH4 0xA1448194 EQ PUSH2 0x7B6 JUMPI DUP1 PUSH4 0xA22CB465 EQ PUSH2 0x7DF JUMPI DUP1 PUSH4 0xB88D4FDE EQ PUSH2 0x808 JUMPI PUSH2 0x272 JUMP JUMPDEST DUP1 PUSH4 0x6352211E EQ PUSH2 0x666 JUMPI DUP1 PUSH4 0x70A08231 EQ PUSH2 0x6A3 JUMPI DUP1 PUSH4 0x715018A6 EQ PUSH2 0x6E0 JUMPI DUP1 PUSH4 0x73ACC408 EQ PUSH2 0x6F7 JUMPI DUP1 PUSH4 0x79CF92D3 EQ PUSH2 0x720 JUMPI PUSH2 0x272 JUMP JUMPDEST DUP1 PUSH4 0x2D0335AB GT PUSH2 0x1E8 JUMPI DUP1 PUSH4 0x3F4BA83A GT PUSH2 0x1AC JUMPI DUP1 PUSH4 0x3F4BA83A EQ PUSH2 0x580 JUMPI DUP1 PUSH4 0x42842E0E EQ PUSH2 0x597 JUMPI DUP1 PUSH4 0x4F3DFE8A EQ PUSH2 0x5C0 JUMPI DUP1 PUSH4 0x5A6FD817 EQ PUSH2 0x5E9 JUMPI DUP1 PUSH4 0x5C975ABB EQ PUSH2 0x612 JUMPI DUP1 PUSH4 0x5FC26BA3 EQ PUSH2 0x63D JUMPI PUSH2 0x272 JUMP JUMPDEST DUP1 PUSH4 0x2D0335AB EQ PUSH2 0x473 JUMPI DUP1 PUSH4 0x30D72ACB EQ PUSH2 0x4B0 JUMPI DUP1 PUSH4 0x33C41A90 EQ PUSH2 0x4DB JUMPI DUP1 PUSH4 0x3408E470 EQ PUSH2 0x518 JUMPI DUP1 PUSH4 0x3904D0BA EQ PUSH2 0x543 JUMPI PUSH2 0x272 JUMP JUMPDEST DUP1 PUSH4 0xF7E5970 GT PUSH2 0x23A JUMPI DUP1 PUSH4 0xF7E5970 EQ PUSH2 0x375 JUMPI DUP1 PUSH4 0x15A88D22 EQ PUSH2 0x3A0 JUMPI DUP1 PUSH4 0x18160DDD EQ PUSH2 0x3CB JUMPI DUP1 PUSH4 0x1B2EF1CA EQ PUSH2 0x3F6 JUMPI DUP1 PUSH4 0x20379EE5 EQ PUSH2 0x41F JUMPI DUP1 PUSH4 0x23B872DD EQ PUSH2 0x44A JUMPI PUSH2 0x272 JUMP JUMPDEST DUP1 PUSH4 0x1FFC9A7 EQ PUSH2 0x277 JUMPI DUP1 PUSH4 0x6FDDE03 EQ PUSH2 0x2B4 JUMPI DUP1 PUSH4 0x81812FC EQ PUSH2 0x2DF JUMPI DUP1 PUSH4 0x95EA7B3 EQ PUSH2 0x31C JUMPI DUP1 PUSH4 0xC53C51C EQ PUSH2 0x345 JUMPI JUMPDEST PUSH1 0x0 DUP1 REVERT JUMPDEST CALLVALUE DUP1 ISZERO PUSH2 0x283 JUMPI PUSH1 0x0 DUP1 REVERT JUMPDEST POP PUSH2 0x29E PUSH1 0x4 DUP1 CALLDATASIZE SUB DUP2 ADD SWAP1 PUSH2 0x299 SWAP2 SWAP1 PUSH2 0x3BD6 JUMP JUMPDEST PUSH2 0xA9E JUMP JUMPDEST PUSH1 0x40 MLOAD PUSH2 0x2AB SWAP2 SWAP1 PUSH2 0x3C1E JUMP JUMPDEST PUSH1 0x40 MLOAD DUP1 SWAP2 SUB SWAP1 RETURN JUMPDEST CALLVALUE DUP1 ISZERO PUSH2 0x2C0 JUMPI PUSH1 0x0 DUP1 REVERT JUMPDEST POP PUSH2 0x2C9 PUSH2 0xB80 JUMP JUMPDEST PUSH1 0x40 MLOAD PUSH2 0x2D6 SWAP2 SWAP1 PUSH2 0x3CC9 JUMP JUMPDEST PUSH1 0x40 MLOAD DUP1 SWAP2 SUB SWAP1 RETURN JUMPDEST CALLVALUE DUP1 ISZERO PUSH2 0x2EB JUMPI PUSH1 0x0 DUP1 REVERT JUMPDEST POP PUSH2 0x306 PUSH1 0x4 DUP1 CALLDATASIZE SUB DUP2 ADD SWAP1 PUSH2 0x301 SWAP2 SWAP1 PUSH2 0x3D21 JUMP JUMPDEST PUSH2 0xC12 JUMP JUMPDEST PUSH1 0x40 MLOAD PUSH2 0x313 SWAP2 SWAP1 PUSH2 0x3D8F JUMP JUMPDEST PUSH1 0x40 MLOAD DUP1 SWAP2 SUB SWAP1 RETURN JUMPDEST CALLVALUE DUP1 ISZERO PUSH2 0x328 JUMPI PUSH1 0x0 DUP1 REVERT JUMPDEST POP PUSH2 0x343 PUSH1 0x4 DUP1 CALLDATASIZE SUB DUP2 ADD SWAP1 PUSH2 0x33E SWAP2 SWAP1 PUSH2 0x3DD6 JUMP JUMPDEST PUSH2 0xC58 JUMP JUMPDEST STOP JUMPDEST PUSH2 0x35F PUSH1 0x4 DUP1 CALLDATASIZE SUB DUP2 ADD SWAP1 PUSH2 0x35A SWAP2 SWAP1 PUSH2 0x3FBA JUMP JUMPDEST PUSH2 0xD6F JUMP JUMPDEST PUSH1 0x40 MLOAD PUSH2 0x36C SWAP2 SWAP1 PUSH2 0x40A6 JUMP JUMPDEST PUSH1 0x40 MLOAD DUP1 SWAP2 SUB SWAP1 RETURN JUMPDEST CALLVALUE DUP1 ISZERO PUSH2 0x381 JUMPI PUSH1 0x0 DUP1 REVERT JUMPDEST POP PUSH2 0x38A PUSH2 0xFE1 JUMP JUMPDEST PUSH1 0x40 MLOAD PUSH2 0x397 SWAP2 SWAP1 PUSH2 0x3CC9 JUMP JUMPDEST PUSH1 0x40 MLOAD DUP1 SWAP2 SUB SWAP1 RETURN JUMPDEST CALLVALUE DUP1 ISZERO PUSH2 0x3AC JUMPI PUSH1 0x0 DUP1 REVERT JUMPDEST POP PUSH2 0x3B5 PUSH2 0x101A JUMP JUMPDEST PUSH1 0x40 MLOAD PUSH2 0x3C2 SWAP2 SWAP1 PUSH2 0x3D8F JUMP JUMPDEST PUSH1 0x40 MLOAD DUP1 SWAP2 SUB SWAP1 RETURN JUMPDEST CALLVALUE DUP1 ISZERO PUSH2 0x3D7 JUMPI PUSH1 0x0 DUP1 REVERT JUMPDEST POP PUSH2 0x3E0 PUSH2 0x1040 JUMP JUMPDEST PUSH1 0x40 MLOAD PUSH2 0x3ED SWAP2 SWAP1 PUSH2 0x40D7 JUMP JUMPDEST PUSH1 0x40 MLOAD DUP1 SWAP2 SUB SWAP1 RETURN JUMPDEST CALLVALUE DUP1 ISZERO PUSH2 0x402 JUMPI PUSH1 0x0 DUP1 REVERT JUMPDEST POP PUSH2 0x41D PUSH1 0x4 DUP1 CALLDATASIZE SUB DUP2 ADD SWAP1 PUSH2 0x418 SWAP2 SWAP1 PUSH2 0x40F2 JUMP JUMPDEST PUSH2 0x1046 JUMP JUMPDEST STOP JUMPDEST CALLVALUE DUP1 ISZERO PUSH2 0x42B JUMPI PUSH1 0x0 DUP1 REVERT JUMPDEST POP PUSH2 0x434 PUSH2 0x1267 JUMP JUMPDEST PUSH1 0x40 MLOAD PUSH2 0x441 SWAP2 SWAP1 PUSH2 0x4141 JUMP JUMPDEST PUSH1 0x40 MLOAD DUP1 SWAP2 SUB SWAP1 RETURN JUMPDEST CALLVALUE DUP1 ISZERO PUSH2 0x456 JUMPI PUSH1 0x0 DUP1 REVERT JUMPDEST POP PUSH2 0x471 PUSH1 0x4 DUP1 CALLDATASIZE SUB DUP2 ADD SWAP1 PUSH2 0x46C SWAP2 SWAP1 PUSH2 0x415C JUMP JUMPDEST PUSH2 0x1271 JUMP JUMPDEST STOP JUMPDEST CALLVALUE DUP1 ISZERO PUSH2 0x47F JUMPI PUSH1 0x0 DUP1 REVERT JUMPDEST POP PUSH2 0x49A PUSH1 0x4 DUP1 CALLDATASIZE SUB DUP2 ADD SWAP1 PUSH2 0x495 SWAP2 SWAP1 PUSH2 0x41AF JUMP JUMPDEST PUSH2 0x12D1 JUMP JUMPDEST PUSH1 0x40 MLOAD PUSH2 0x4A7 SWAP2 SWAP1 PUSH2 0x40D7 JUMP JUMPDEST PUSH1 0x40 MLOAD DUP1 SWAP2 SUB SWAP1 RETURN JUMPDEST CALLVALUE DUP1 ISZERO PUSH2 0x4BC JUMPI PUSH1 0x0 DUP1 REVERT JUMPDEST POP PUSH2 0x4C5 PUSH2 0x131A JUMP JUMPDEST PUSH1 0x40 MLOAD PUSH2 0x4D2 SWAP2 SWAP1 PUSH2 0x3C1E JUMP JUMPDEST PUSH1 0x40 MLOAD DUP1 SWAP2 SUB SWAP1 RETURN JUMPDEST CALLVALUE DUP1 ISZERO PUSH2 0x4E7 JUMPI PUSH1 0x0 DUP1 REVERT JUMPDEST POP PUSH2 0x502 PUSH1 0x4 DUP1 CALLDATASIZE SUB DUP2 ADD SWAP1 PUSH2 0x4FD SWAP2 SWAP1 PUSH2 0x3D21 JUMP JUMPDEST PUSH2 0x132D JUMP JUMPDEST PUSH1 0x40 MLOAD PUSH2 0x50F SWAP2 SWAP1 PUSH2 0x3C1E JUMP JUMPDEST PUSH1 0x40 MLOAD DUP1 SWAP2 SUB SWAP1 RETURN JUMPDEST CALLVALUE DUP1 ISZERO PUSH2 0x524 JUMPI PUSH1 0x0 DUP1 REVERT JUMPDEST POP PUSH2 0x52D PUSH2 0x1361 JUMP JUMPDEST PUSH1 0x40 MLOAD PUSH2 0x53A SWAP2 SWAP1 PUSH2 0x40D7 JUMP JUMPDEST PUSH1 0x40 MLOAD DUP1 SWAP2 SUB SWAP1 RETURN JUMPDEST CALLVALUE DUP1 ISZERO PUSH2 0x54F JUMPI PUSH1 0x0 DUP1 REVERT JUMPDEST POP PUSH2 0x56A PUSH1 0x4 DUP1 CALLDATASIZE SUB DUP2 ADD SWAP1 PUSH2 0x565 SWAP2 SWAP1 PUSH2 0x3D21 JUMP JUMPDEST PUSH2 0x136E JUMP JUMPDEST PUSH1 0x40 MLOAD PUSH2 0x577 SWAP2 SWAP1 PUSH2 0x40D7 JUMP JUMPDEST PUSH1 0x40 MLOAD DUP1 SWAP2 SUB SWAP1 RETURN JUMPDEST CALLVALUE DUP1 ISZERO PUSH2 0x58C JUMPI PUSH1 0x0 DUP1 REVERT JUMPDEST POP PUSH2 0x595 PUSH2 0x1392 JUMP JUMPDEST STOP JUMPDEST CALLVALUE DUP1 ISZERO PUSH2 0x5A3 JUMPI PUSH1 0x0 DUP1 REVERT JUMPDEST POP PUSH2 0x5BE PUSH1 0x4 DUP1 CALLDATASIZE SUB DUP2 ADD SWAP1 PUSH2 0x5B9 SWAP2 SWAP1 PUSH2 0x415C JUMP JUMPDEST PUSH2 0x13A4 JUMP JUMPDEST STOP JUMPDEST CALLVALUE DUP1 ISZERO PUSH2 0x5CC JUMPI PUSH1 0x0 DUP1 REVERT JUMPDEST POP PUSH2 0x5E7 PUSH1 0x4 DUP1 CALLDATASIZE SUB DUP2 ADD SWAP1 PUSH2 0x5E2 SWAP2 SWAP1 PUSH2 0x4208 JUMP JUMPDEST PUSH2 0x13C4 JUMP JUMPDEST STOP JUMPDEST CALLVALUE DUP1 ISZERO PUSH2 0x5F5 JUMPI PUSH1 0x0 DUP1 REVERT JUMPDEST POP PUSH2 0x610 PUSH1 0x4 DUP1 CALLDATASIZE SUB DUP2 ADD SWAP1 PUSH2 0x60B SWAP2 SWAP1 PUSH2 0x4235 JUMP JUMPDEST PUSH2 0x13E9 JUMP JUMPDEST STOP JUMPDEST CALLVALUE DUP1 ISZERO PUSH2 0x61E JUMPI PUSH1 0x0 DUP1 REVERT JUMPDEST POP PUSH2 0x627 PUSH2 0x160D JUMP JUMPDEST PUSH1 0x40 MLOAD PUSH2 0x634 SWAP2 SWAP1 PUSH2 0x3C1E JUMP JUMPDEST PUSH1 0x40 MLOAD DUP1 SWAP2 SUB SWAP1 RETURN JUMPDEST CALLVALUE DUP1 ISZERO PUSH2 0x649 JUMPI PUSH1 0x0 DUP1 REVERT JUMPDEST POP PUSH2 0x664 PUSH1 0x4 DUP1 CALLDATASIZE SUB DUP2 ADD SWAP1 PUSH2 0x65F SWAP2 SWAP1 PUSH2 0x4350 JUMP JUMPDEST PUSH2 0x1624 JUMP JUMPDEST STOP JUMPDEST CALLVALUE DUP1 ISZERO PUSH2 0x672 JUMPI PUSH1 0x0 DUP1 REVERT JUMPDEST POP PUSH2 0x68D PUSH1 0x4 DUP1 CALLDATASIZE SUB DUP2 ADD SWAP1 PUSH2 0x688 SWAP2 SWAP1 PUSH2 0x3D21 JUMP JUMPDEST PUSH2 0x1646 JUMP JUMPDEST PUSH1 0x40 MLOAD PUSH2 0x69A SWAP2 SWAP1 PUSH2 0x3D8F JUMP JUMPDEST PUSH1 0x40 MLOAD DUP1 SWAP2 SUB SWAP1 RETURN JUMPDEST CALLVALUE DUP1 ISZERO PUSH2 0x6AF JUMPI PUSH1 0x0 DUP1 REVERT JUMPDEST POP PUSH2 0x6CA PUSH1 0x4 DUP1 CALLDATASIZE SUB DUP2 ADD SWAP1 PUSH2 0x6C5 SWAP2 SWAP1 PUSH2 0x41AF JUMP JUMPDEST PUSH2 0x16CC JUMP JUMPDEST PUSH1 0x40 MLOAD PUSH2 0x6D7 SWAP2 SWAP1 PUSH2 0x40D7 JUMP JUMPDEST PUSH1 0x40 MLOAD DUP1 SWAP2 SUB SWAP1 RETURN JUMPDEST CALLVALUE DUP1 ISZERO PUSH2 0x6EC JUMPI PUSH1 0x0 DUP1 REVERT JUMPDEST POP PUSH2 0x6F5 PUSH2 0x1783 JUMP JUMPDEST STOP JUMPDEST CALLVALUE DUP1 ISZERO PUSH2 0x703 JUMPI PUSH1 0x0 DUP1 REVERT JUMPDEST POP PUSH2 0x71E PUSH1 0x4 DUP1 CALLDATASIZE SUB DUP2 ADD SWAP1 PUSH2 0x719 SWAP2 SWAP1 PUSH2 0x41AF JUMP JUMPDEST PUSH2 0x1797 JUMP JUMPDEST STOP JUMPDEST CALLVALUE DUP1 ISZERO PUSH2 0x72C JUMPI PUSH1 0x0 DUP1 REVERT JUMPDEST POP PUSH2 0x747 PUSH1 0x4 DUP1 CALLDATASIZE SUB DUP2 ADD SWAP1 PUSH2 0x742 SWAP2 SWAP1 PUSH2 0x445C JUMP JUMPDEST PUSH2 0x1846 JUMP JUMPDEST STOP JUMPDEST CALLVALUE DUP1 ISZERO PUSH2 0x755 JUMPI PUSH1 0x0 DUP1 REVERT JUMPDEST POP PUSH2 0x75E PUSH2 0x1876 JUMP JUMPDEST STOP JUMPDEST CALLVALUE DUP1 ISZERO PUSH2 0x76C JUMPI PUSH1 0x0 DUP1 REVERT JUMPDEST POP PUSH2 0x775 PUSH2 0x1888 JUMP JUMPDEST PUSH1 0x40 MLOAD PUSH2 0x782 SWAP2 SWAP1 PUSH2 0x3D8F JUMP JUMPDEST PUSH1 0x40 MLOAD DUP1 SWAP2 SUB SWAP1 RETURN JUMPDEST CALLVALUE DUP1 ISZERO PUSH2 0x797 JUMPI PUSH1 0x0 DUP1 REVERT JUMPDEST POP PUSH2 0x7A0 PUSH2 0x18B2 JUMP JUMPDEST PUSH1 0x40 MLOAD PUSH2 0x7AD SWAP2 SWAP1 PUSH2 0x3CC9 JUMP JUMPDEST PUSH1 0x40 MLOAD DUP1 SWAP2 SUB SWAP1 RETURN JUMPDEST CALLVALUE DUP1 ISZERO PUSH2 0x7C2 JUMPI PUSH1 0x0 DUP1 REVERT JUMPDEST POP PUSH2 0x7DD PUSH1 0x4 DUP1 CALLDATASIZE SUB DUP2 ADD SWAP1 PUSH2 0x7D8 SWAP2 SWAP1 PUSH2 0x3DD6 JUMP JUMPDEST PUSH2 0x1944 JUMP JUMPDEST STOP JUMPDEST CALLVALUE DUP1 ISZERO PUSH2 0x7EB JUMPI PUSH1 0x0 DUP1 REVERT JUMPDEST POP PUSH2 0x806 PUSH1 0x4 DUP1 CALLDATASIZE SUB DUP2 ADD SWAP1 PUSH2 0x801 SWAP2 SWAP1 PUSH2 0x44A5 JUMP JUMPDEST PUSH2 0x19FA JUMP JUMPDEST STOP JUMPDEST CALLVALUE DUP1 ISZERO PUSH2 0x814 JUMPI PUSH1 0x0 DUP1 REVERT JUMPDEST POP PUSH2 0x82F PUSH1 0x4 DUP1 CALLDATASIZE SUB DUP2 ADD SWAP1 PUSH2 0x82A SWAP2 SWAP1 PUSH2 0x44E5 JUMP JUMPDEST PUSH2 0x1A10 JUMP JUMPDEST STOP JUMPDEST CALLVALUE DUP1 ISZERO PUSH2 0x83D JUMPI PUSH1 0x0 DUP1 REVERT JUMPDEST POP PUSH2 0x858 PUSH1 0x4 DUP1 CALLDATASIZE SUB DUP2 ADD SWAP1 PUSH2 0x853 SWAP2 SWAP1 PUSH2 0x3D21 JUMP JUMPDEST PUSH2 0x1A72 JUMP JUMPDEST PUSH1 0x40 MLOAD PUSH2 0x865 SWAP2 SWAP1 PUSH2 0x40D7 JUMP JUMPDEST PUSH1 0x40 MLOAD DUP1 SWAP2 SUB SWAP1 RETURN JUMPDEST CALLVALUE DUP1 ISZERO PUSH2 0x87A JUMPI PUSH1 0x0 DUP1 REVERT JUMPDEST POP PUSH2 0x895 PUSH1 0x4 DUP1 CALLDATASIZE SUB DUP2 ADD SWAP1 PUSH2 0x890 SWAP2 SWAP1 PUSH2 0x3D21 JUMP JUMPDEST PUSH2 0x1A96 JUMP JUMPDEST PUSH1 0x40 MLOAD PUSH2 0x8A2 SWAP2 SWAP1 PUSH2 0x40D7 JUMP JUMPDEST PUSH1 0x40 MLOAD DUP1 SWAP2 SUB SWAP1 RETURN JUMPDEST CALLVALUE DUP1 ISZERO PUSH2 0x8B7 JUMPI PUSH1 0x0 DUP1 REVERT JUMPDEST POP PUSH2 0x8D2 PUSH1 0x4 DUP1 CALLDATASIZE SUB DUP2 ADD SWAP1 PUSH2 0x8CD SWAP2 SWAP1 PUSH2 0x3D21 JUMP JUMPDEST PUSH2 0x1B3B JUMP JUMPDEST PUSH1 0x40 MLOAD PUSH2 0x8DF SWAP2 SWAP1 PUSH2 0x40D7 JUMP JUMPDEST PUSH1 0x40 MLOAD DUP1 SWAP2 SUB SWAP1 RETURN JUMPDEST CALLVALUE DUP1 ISZERO PUSH2 0x8F4 JUMPI PUSH1 0x0 DUP1 REVERT JUMPDEST POP PUSH2 0x90F PUSH1 0x4 DUP1 CALLDATASIZE SUB DUP2 ADD SWAP1 PUSH2 0x90A SWAP2 SWAP1 PUSH2 0x4568 JUMP JUMPDEST PUSH2 0x1C8A JUMP JUMPDEST STOP JUMPDEST CALLVALUE DUP1 ISZERO PUSH2 0x91D JUMPI PUSH1 0x0 DUP1 REVERT JUMPDEST POP PUSH2 0x938 PUSH1 0x4 DUP1 CALLDATASIZE SUB DUP2 ADD SWAP1 PUSH2 0x933 SWAP2 SWAP1 PUSH2 0x3D21 JUMP JUMPDEST PUSH2 0x1E20 JUMP JUMPDEST PUSH1 0x40 MLOAD PUSH2 0x945 SWAP2 SWAP1 PUSH2 0x3C1E JUMP JUMPDEST PUSH1 0x40 MLOAD DUP1 SWAP2 SUB SWAP1 RETURN JUMPDEST CALLVALUE DUP1 ISZERO PUSH2 0x95A JUMPI PUSH1 0x0 DUP1 REVERT JUMPDEST POP PUSH2 0x975 PUSH1 0x4 DUP1 CALLDATASIZE SUB DUP2 ADD SWAP1 PUSH2 0x970 SWAP2 SWAP1 PUSH2 0x3D21 JUMP JUMPDEST PUSH2 0x1E54 JUMP JUMPDEST PUSH1 0x40 MLOAD PUSH2 0x982 SWAP2 SWAP1 PUSH2 0x3CC9 JUMP JUMPDEST PUSH1 0x40 MLOAD DUP1 SWAP2 SUB SWAP1 RETURN JUMPDEST CALLVALUE DUP1 ISZERO PUSH2 0x997 JUMPI PUSH1 0x0 DUP1 REVERT JUMPDEST POP PUSH2 0x9A0 PUSH2 0x1EBC JUMP JUMPDEST PUSH1 0x40 MLOAD PUSH2 0x9AD SWAP2 SWAP1 PUSH2 0x40D7 JUMP JUMPDEST PUSH1 0x40 MLOAD DUP1 SWAP2 SUB SWAP1 RETURN JUMPDEST PUSH2 0x9D0 PUSH1 0x4 DUP1 CALLDATASIZE SUB DUP2 ADD SWAP1 PUSH2 0x9CB SWAP2 SWAP1 PUSH2 0x3DD6 JUMP JUMPDEST PUSH2 0x1EC2 JUMP JUMPDEST STOP JUMPDEST CALLVALUE DUP1 ISZERO PUSH2 0x9DE JUMPI PUSH1 0x0 DUP1 REVERT JUMPDEST POP PUSH2 0x9F9 PUSH1 0x4 DUP1 CALLDATASIZE SUB DUP2 ADD SWAP1 PUSH2 0x9F4 SWAP2 SWAP1 PUSH2 0x445C JUMP JUMPDEST PUSH2 0x1FC9 JUMP JUMPDEST STOP JUMPDEST CALLVALUE DUP1 ISZERO PUSH2 0xA07 JUMPI PUSH1 0x0 DUP1 REVERT JUMPDEST POP PUSH2 0xA22 PUSH1 0x4 DUP1 CALLDATASIZE SUB DUP2 ADD SWAP1 PUSH2 0xA1D SWAP2 SWAP1 PUSH2 0x3D21 JUMP JUMPDEST PUSH2 0x1FF9 JUMP JUMPDEST PUSH1 0x40 MLOAD PUSH2 0xA2F SWAP2 SWAP1 PUSH2 0x40D7 JUMP JUMPDEST PUSH1 0x40 MLOAD DUP1 SWAP2 SUB SWAP1 RETURN JUMPDEST CALLVALUE DUP1 ISZERO PUSH2 0xA44 JUMPI PUSH1 0x0 DUP1 REVERT JUMPDEST POP PUSH2 0xA5F PUSH1 0x4 DUP1 CALLDATASIZE SUB DUP2 ADD SWAP1 PUSH2 0xA5A SWAP2 SWAP1 PUSH2 0x45F5 JUMP JUMPDEST PUSH2 0x201D JUMP JUMPDEST PUSH1 0x40 MLOAD PUSH2 0xA6C SWAP2 SWAP1 PUSH2 0x3C1E JUMP JUMPDEST PUSH1 0x40 MLOAD DUP1 SWAP2 SUB SWAP1 RETURN JUMPDEST CALLVALUE DUP1 ISZERO PUSH2 0xA81 JUMPI PUSH1 0x0 DUP1 REVERT JUMPDEST POP PUSH2 0xA9C PUSH1 0x4 DUP1 CALLDATASIZE SUB DUP2 ADD SWAP1 PUSH2 0xA97 SWAP2 SWAP1 PUSH2 0x41AF JUMP JUMPDEST PUSH2 0x210F JUMP JUMPDEST STOP JUMPDEST PUSH1 0x0 PUSH32 0x80AC58CD00000000000000000000000000000000000000000000000000000000 PUSH28 0xFFFFFFFFFFFFFFFFFFFFFFFFFFFFFFFFFFFFFFFFFFFFFFFFFFFFFFFF NOT AND DUP3 PUSH28 0xFFFFFFFFFFFFFFFFFFFFFFFFFFFFFFFFFFFFFFFFFFFFFFFFFFFFFFFF NOT AND EQ DUP1 PUSH2 0xB69 JUMPI POP PUSH32 0x5B5E139F00000000000000000000000000000000000000000000000000000000 PUSH28 0xFFFFFFFFFFFFFFFFFFFFFFFFFFFFFFFFFFFFFFFFFFFFFFFFFFFFFFFF NOT AND DUP3 PUSH28 0xFFFFFFFFFFFFFFFFFFFFFFFFFFFFFFFFFFFFFFFFFFFFFFFFFFFFFFFF NOT AND EQ JUMPDEST DUP1 PUSH2 0xB79 JUMPI POP PUSH2 0xB78 DUP3 PUSH2 0x2242 JUMP JUMPDEST JUMPDEST SWAP1 POP SWAP2 SWAP1 POP JUMP JUMPDEST PUSH1 0x60 PUSH1 0x0 DUP1 SLOAD PUSH2 0xB8F SWAP1 PUSH2 0x4664 JUMP JUMPDEST DUP1 PUSH1 0x1F ADD PUSH1 0x20 DUP1 SWAP2 DIV MUL PUSH1 0x20 ADD PUSH1 0x40 MLOAD SWAP1 DUP2 ADD PUSH1 0x40 MSTORE DUP1 SWAP3 SWAP2 SWAP1 DUP2 DUP2 MSTORE PUSH1 0x20 ADD DUP3 DUP1 SLOAD PUSH2 0xBBB SWAP1 PUSH2 0x4664 JUMP JUMPDEST DUP1 ISZERO PUSH2 0xC08 JUMPI DUP1 PUSH1 0x1F LT PUSH2 0xBDD JUMPI PUSH2 0x100 DUP1 DUP4 SLOAD DIV MUL DUP4 MSTORE SWAP2 PUSH1 0x20 ADD SWAP2 PUSH2 0xC08 JUMP JUMPDEST DUP3 ADD SWAP2 SWAP1 PUSH1 0x0 MSTORE PUSH1 0x20 PUSH1 0x0 KECCAK256 SWAP1 JUMPDEST DUP2 SLOAD DUP2 MSTORE SWAP1 PUSH1 0x1 ADD SWAP1 PUSH1 0x20 ADD DUP1 DUP4 GT PUSH2 0xBEB JUMPI DUP3 SWAP1 SUB PUSH1 0x1F AND DUP3 ADD SWAP2 JUMPDEST POP POP POP POP POP SWAP1 POP SWAP1 JUMP JUMPDEST PUSH1 0x0 PUSH2 0xC1D DUP3 PUSH2 0x22AC JUMP JUMPDEST PUSH1 0x4 PUSH1 0x0 DUP4 DUP2 MSTORE PUSH1 0x20 ADD SWAP1 DUP2 MSTORE PUSH1 0x20 ADD PUSH1 0x0 KECCAK256 PUSH1 0x0 SWAP1 SLOAD SWAP1 PUSH2 0x100 EXP SWAP1 DIV PUSH20 0xFFFFFFFFFFFFFFFFFFFFFFFFFFFFFFFFFFFFFFFF AND SWAP1 POP SWAP2 SWAP1 POP JUMP JUMPDEST PUSH1 0x0 PUSH2 0xC63 DUP3 PUSH2 0x1646 JUMP JUMPDEST SWAP1 POP DUP1 PUSH20 0xFFFFFFFFFFFFFFFFFFFFFFFFFFFFFFFFFFFFFFFF AND DUP4 PUSH20 0xFFFFFFFFFFFFFFFFFFFFFFFFFFFFFFFFFFFFFFFF AND SUB PUSH2 0xCD3 JUMPI PUSH1 0x40 MLOAD PUSH32 0x8C379A000000000000000000000000000000000000000000000000000000000 DUP2 MSTORE PUSH1 0x4 ADD PUSH2 0xCCA SWAP1 PUSH2 0x4707 JUMP JUMPDEST PUSH1 0x40 MLOAD DUP1 SWAP2 SUB SWAP1 REVERT JUMPDEST DUP1 PUSH20 0xFFFFFFFFFFFFFFFFFFFFFFFFFFFFFFFFFFFFFFFF AND PUSH2 0xCF2 PUSH2 0x22F7 JUMP JUMPDEST PUSH20 0xFFFFFFFFFFFFFFFFFFFFFFFFFFFFFFFFFFFFFFFF AND EQ DUP1 PUSH2 0xD21 JUMPI POP PUSH2 0xD20 DUP2 PUSH2 0xD1B PUSH2 0x22F7 JUMP JUMPDEST PUSH2 0x201D JUMP JUMPDEST JUMPDEST PUSH2 0xD60 JUMPI PUSH1 0x40 MLOAD PUSH32 0x8C379A000000000000000000000000000000000000000000000000000000000 DUP2 MSTORE PUSH1 0x4 ADD PUSH2 0xD57 SWAP1 PUSH2 0x4799 JUMP JUMPDEST PUSH1 0x40 MLOAD DUP1 SWAP2 SUB SWAP1 REVERT JUMPDEST PUSH2 0xD6A DUP4 DUP4 PUSH2 0x2306 JUMP JUMPDEST POP POP POP JUMP JUMPDEST PUSH1 0x60 PUSH1 0x0 PUSH1 0x40 MLOAD DUP1 PUSH1 0x60 ADD PUSH1 0x40 MSTORE DUP1 PUSH1 0x8 PUSH1 0x0 DUP11 PUSH20 0xFFFFFFFFFFFFFFFFFFFFFFFFFFFFFFFFFFFFFFFF AND PUSH20 0xFFFFFFFFFFFFFFFFFFFFFFFFFFFFFFFFFFFFFFFF AND DUP2 MSTORE PUSH1 0x20 ADD SWAP1 DUP2 MSTORE PUSH1 0x20 ADD PUSH1 0x0 KECCAK256 SLOAD DUP2 MSTORE PUSH1 0x20 ADD DUP9 PUSH20 0xFFFFFFFFFFFFFFFFFFFFFFFFFFFFFFFFFFFFFFFF AND DUP2 MSTORE PUSH1 0x20 ADD DUP8 DUP2 MSTORE POP SWAP1 POP PUSH2 0xDF2 DUP8 DUP3 DUP8 DUP8 DUP8 PUSH2 0x23BF JUMP JUMPDEST PUSH2 0xE31 JUMPI PUSH1 0x40 MLOAD PUSH32 0x8C379A000000000000000000000000000000000000000000000000000000000 DUP2 MSTORE PUSH1 0x4 ADD PUSH2 0xE28 SWAP1 PUSH2 0x482B JUMP JUMPDEST PUSH1 0x40 MLOAD DUP1 SWAP2 SUB SWAP1 REVERT JUMPDEST PUSH2 0xE84 PUSH1 0x1 PUSH1 0x8 PUSH1 0x0 DUP11 PUSH20 0xFFFFFFFFFFFFFFFFFFFFFFFFFFFFFFFFFFFFFFFF AND PUSH20 0xFFFFFFFFFFFFFFFFFFFFFFFFFFFFFFFFFFFFFFFF AND DUP2 MSTORE PUSH1 0x20 ADD SWAP1 DUP2 MSTORE PUSH1 0x20 ADD PUSH1 0x0 KECCAK256 SLOAD PUSH2 0x24C7 SWAP1 SWAP2 SWAP1 PUSH4 0xFFFFFFFF AND JUMP JUMPDEST PUSH1 0x8 PUSH1 0x0 DUP10 PUSH20 0xFFFFFFFFFFFFFFFFFFFFFFFFFFFFFFFFFFFFFFFF AND PUSH20 0xFFFFFFFFFFFFFFFFFFFFFFFFFFFFFFFFFFFFFFFF AND DUP2 MSTORE PUSH1 0x20 ADD SWAP1 DUP2 MSTORE PUSH1 0x20 ADD PUSH1 0x0 KECCAK256 DUP2 SWAP1 SSTORE POP PUSH32 0x5845892132946850460BFF5A0083F71031BC5BF9AADCD40F1DE79423EAC9B10B DUP8 CALLER DUP9 PUSH1 0x40 MLOAD PUSH2 0xEFA SWAP4 SWAP3 SWAP2 SWAP1 PUSH2 0x486C JUMP JUMPDEST PUSH1 0x40 MLOAD DUP1 SWAP2 SUB SWAP1 LOG1 PUSH1 0x0 DUP1 ADDRESS PUSH20 0xFFFFFFFFFFFFFFFFFFFFFFFFFFFFFFFFFFFFFFFF AND DUP9 DUP11 PUSH1 0x40 MLOAD PUSH1 0x20 ADD PUSH2 0xF2F SWAP3 SWAP2 SWAP1 PUSH2 0x492E JUMP JUMPDEST PUSH1 0x40 MLOAD PUSH1 0x20 DUP2 DUP4 SUB SUB DUP2 MSTORE SWAP1 PUSH1 0x40 MSTORE PUSH1 0x40 MLOAD PUSH2 0xF4B SWAP2 SWAP1 PUSH2 0x4956 JUMP JUMPDEST PUSH1 0x0 PUSH1 0x40 MLOAD DUP1 DUP4 SUB DUP2 PUSH1 0x0 DUP7 GAS CALL SWAP2 POP POP RETURNDATASIZE DUP1 PUSH1 0x0 DUP2 EQ PUSH2 0xF88 JUMPI PUSH1 0x40 MLOAD SWAP2 POP PUSH1 0x1F NOT PUSH1 0x3F RETURNDATASIZE ADD AND DUP3 ADD PUSH1 0x40 MSTORE RETURNDATASIZE DUP3 MSTORE RETURNDATASIZE PUSH1 0x0 PUSH1 0x20 DUP5 ADD RETURNDATACOPY PUSH2 0xF8D JUMP JUMPDEST PUSH1 0x60 SWAP2 POP JUMPDEST POP SWAP2 POP SWAP2 POP DUP2 PUSH2 0xFD2 JUMPI PUSH1 0x40 MLOAD PUSH32 0x8C379A000000000000000000000000000000000000000000000000000000000 DUP2 MSTORE PUSH1 0x4 ADD PUSH2 0xFC9 SWAP1 PUSH2 0x49B9 JUMP JUMPDEST PUSH1 0x40 MLOAD DUP1 SWAP2 SUB SWAP1 REVERT JUMPDEST DUP1 SWAP4 POP POP POP POP SWAP6 SWAP5 POP POP POP POP POP JUMP JUMPDEST PUSH1 0x40 MLOAD DUP1 PUSH1 0x40 ADD PUSH1 0x40 MSTORE DUP1 PUSH1 0x1 DUP2 MSTORE PUSH1 0x20 ADD PUSH32 0x3100000000000000000000000000000000000000000000000000000000000000 DUP2 MSTORE POP DUP2 JUMP JUMPDEST PUSH1 0x12 PUSH1 0x0 SWAP1 SLOAD SWAP1 PUSH2 0x100 EXP SWAP1 DIV PUSH20 0xFFFFFFFFFFFFFFFFFFFFFFFFFFFFFFFFFFFFFFFF AND DUP2 JUMP JUMPDEST PUSH1 0x10 SLOAD DUP2 JUMP JUMPDEST PUSH2 0x104E PUSH2 0x24DD JUMP JUMPDEST PUSH1 0x13 DUP2 DUP2 SLOAD DUP2 LT PUSH2 0x1062 JUMPI PUSH2 0x1061 PUSH2 0x49D9 JUMP JUMPDEST JUMPDEST SWAP1 PUSH1 0x0 MSTORE PUSH1 0x20 PUSH1 0x0 KECCAK256 SWAP1 PUSH1 0x20 SWAP2 DUP3 DUP3 DIV ADD SWAP2 SWAP1 MOD SWAP1 SLOAD SWAP1 PUSH2 0x100 EXP SWAP1 DIV PUSH1 0xFF AND PUSH2 0x10C1 JUMPI PUSH1 0x40 MLOAD PUSH32 0x8C379A000000000000000000000000000000000000000000000000000000000 DUP2 MSTORE PUSH1 0x4 ADD PUSH2 0x10B8 SWAP1 PUSH2 0x4A54 JUMP JUMPDEST PUSH1 0x40 MLOAD DUP1 SWAP2 SUB SWAP1 REVERT JUMPDEST PUSH2 0x10CA DUP3 PUSH2 0x2527 JUMP JUMPDEST ISZERO PUSH2 0x110A JUMPI PUSH1 0x40 MLOAD PUSH32 0x8C379A000000000000000000000000000000000000000000000000000000000 DUP2 MSTORE PUSH1 0x4 ADD PUSH2 0x1101 SWAP1 PUSH2 0x4AC0 JUMP JUMPDEST PUSH1 0x40 MLOAD DUP1 SWAP2 SUB SWAP1 REVERT JUMPDEST PUSH1 0x0 PUSH1 0xD PUSH1 0x1 PUSH2 0x1119 DUP6 PUSH2 0x1B3B JUMP JUMPDEST PUSH2 0x1123 SWAP2 SWAP1 PUSH2 0x4B0F JUMP JUMPDEST DUP2 SLOAD DUP2 LT PUSH2 0x1134 JUMPI PUSH2 0x1133 PUSH2 0x49D9 JUMP JUMPDEST JUMPDEST SWAP1 PUSH1 0x0 MSTORE PUSH1 0x20 PUSH1 0x0 KECCAK256 ADD SLOAD SWAP1 POP PUSH1 0x0 ORIGIN SWAP1 POP PUSH1 0x0 PUSH2 0x1153 DUP3 DUP5 DUP7 PUSH2 0x2568 JUMP JUMPDEST SWAP1 POP DUP1 ISZERO PUSH2 0x1260 JUMPI PUSH2 0x1165 DUP3 DUP7 PUSH2 0x299B JUMP JUMPDEST PUSH1 0x10 PUSH1 0x0 DUP2 SLOAD DUP1 SWAP3 SWAP2 SWAP1 PUSH2 0x1178 SWAP1 PUSH2 0x4B43 JUMP JUMPDEST SWAP2 SWAP1 POP SSTORE POP PUSH1 0x1 PUSH1 0xA DUP7 DUP2 SLOAD DUP2 LT PUSH2 0x1193 JUMPI PUSH2 0x1192 PUSH2 0x49D9 JUMP JUMPDEST JUMPDEST SWAP1 PUSH1 0x0 MSTORE PUSH1 0x20 PUSH1 0x0 KECCAK256 SWAP1 PUSH1 0x20 SWAP2 DUP3 DUP3 DIV ADD SWAP2 SWAP1 MOD PUSH2 0x100 EXP DUP2 SLOAD DUP2 PUSH1 0xFF MUL NOT AND SWAP1 DUP4 ISZERO ISZERO MUL OR SWAP1 SSTORE POP PUSH1 0x11 PUSH1 0x0 SWAP1 SLOAD SWAP1 PUSH2 0x100 EXP SWAP1 DIV PUSH1 0xFF AND ISZERO PUSH2 0x125F JUMPI PUSH1 0x11 PUSH1 0x1 SWAP1 SLOAD SWAP1 PUSH2 0x100 EXP SWAP1 DIV PUSH20 0xFFFFFFFFFFFFFFFFFFFFFFFFFFFFFFFFFFFFFFFF AND PUSH20 0xFFFFFFFFFFFFFFFFFFFFFFFFFFFFFFFFFFFFFFFF AND PUSH4 0x8B0D354B DUP4 PUSH1 0x40 MLOAD DUP3 PUSH4 0xFFFFFFFF AND PUSH1 0xE0 SHL DUP2 MSTORE PUSH1 0x4 ADD PUSH2 0x122C SWAP2 SWAP1 PUSH2 0x3D8F JUMP JUMPDEST PUSH1 0x0 PUSH1 0x40 MLOAD DUP1 DUP4 SUB DUP2 PUSH1 0x0 DUP8 DUP1 EXTCODESIZE ISZERO DUP1 ISZERO PUSH2 0x1246 JUMPI PUSH1 0x0 DUP1 REVERT JUMPDEST POP GAS CALL ISZERO DUP1 ISZERO PUSH2 0x125A JUMPI RETURNDATASIZE PUSH1 0x0 DUP1 RETURNDATACOPY RETURNDATASIZE PUSH1 0x0 REVERT JUMPDEST POP POP POP POP JUMPDEST JUMPDEST POP POP POP POP POP JUMP JUMPDEST PUSH1 0x0 PUSH1 0x7 SLOAD SWAP1 POP SWAP1 JUMP JUMPDEST PUSH2 0x1282 PUSH2 0x127C PUSH2 0x22F7 JUMP JUMPDEST DUP3 PUSH2 0x29B9 JUMP JUMPDEST PUSH2 0x12C1 JUMPI PUSH1 0x40 MLOAD PUSH32 0x8C379A000000000000000000000000000000000000000000000000000000000 DUP2 MSTORE PUSH1 0x4 ADD PUSH2 0x12B8 SWAP1 PUSH2 0x4BFD JUMP JUMPDEST PUSH1 0x40 MLOAD DUP1 SWAP2 SUB SWAP1 REVERT JUMPDEST PUSH2 0x12CC DUP4 DUP4 DUP4 PUSH2 0x2A4E JUMP JUMPDEST POP POP POP JUMP JUMPDEST PUSH1 0x0 PUSH1 0x8 PUSH1 0x0 DUP4 PUSH20 0xFFFFFFFFFFFFFFFFFFFFFFFFFFFFFFFFFFFFFFFF AND PUSH20 0xFFFFFFFFFFFFFFFFFFFFFFFFFFFFFFFFFFFFFFFF AND DUP2 MSTORE PUSH1 0x20 ADD SWAP1 DUP2 MSTORE PUSH1 0x20 ADD PUSH1 0x0 KECCAK256 SLOAD SWAP1 POP SWAP2 SWAP1 POP JUMP JUMPDEST PUSH1 0x11 PUSH1 0x0 SWAP1 SLOAD SWAP1 PUSH2 0x100 EXP SWAP1 DIV PUSH1 0xFF AND DUP2 JUMP JUMPDEST PUSH1 0xA DUP2 DUP2 SLOAD DUP2 LT PUSH2 0x133D JUMPI PUSH1 0x0 DUP1 REVERT JUMPDEST SWAP1 PUSH1 0x0 MSTORE PUSH1 0x20 PUSH1 0x0 KECCAK256 SWAP1 PUSH1 0x20 SWAP2 DUP3 DUP3 DIV ADD SWAP2 SWAP1 MOD SWAP2 POP SLOAD SWAP1 PUSH2 0x100 EXP SWAP1 DIV PUSH1 0xFF AND DUP2 JUMP JUMPDEST PUSH1 0x0 DUP1 CHAINID SWAP1 POP DUP1 SWAP2 POP POP SWAP1 JUMP JUMPDEST PUSH1 0xD DUP2 DUP2 SLOAD DUP2 LT PUSH2 0x137E JUMPI PUSH1 0x0 DUP1 REVERT JUMPDEST SWAP1 PUSH1 0x0 MSTORE PUSH1 0x20 PUSH1 0x0 KECCAK256 ADD PUSH1 0x0 SWAP2 POP SWAP1 POP SLOAD DUP2 JUMP JUMPDEST PUSH2 0x139A PUSH2 0x2D47 JUMP JUMPDEST PUSH2 0x13A2 PUSH2 0x2DC5 JUMP JUMPDEST JUMP JUMPDEST PUSH2 0x13BF DUP4 DUP4 DUP4 PUSH1 0x40 MLOAD DUP1 PUSH1 0x20 ADD PUSH1 0x40 MSTORE DUP1 PUSH1 0x0 DUP2 MSTORE POP PUSH2 0x1A10 JUMP JUMPDEST POP POP POP JUMP JUMPDEST PUSH2 0x13CC PUSH2 0x2D47 JUMP JUMPDEST DUP1 PUSH1 0x11 PUSH1 0x0 PUSH2 0x100 EXP DUP2 SLOAD DUP2 PUSH1 0xFF MUL NOT AND SWAP1 DUP4 ISZERO ISZERO MUL OR SWAP1 SSTORE POP POP JUMP JUMPDEST PUSH2 0x13F1 PUSH2 0x24DD JUMP JUMPDEST PUSH1 0x13 DUP3 DUP2 SLOAD DUP2 LT PUSH2 0x1405 JUMPI PUSH2 0x1404 PUSH2 0x49D9 JUMP JUMPDEST JUMPDEST SWAP1 PUSH1 0x0 MSTORE PUSH1 0x20 PUSH1 0x0 KECCAK256 SWAP1 PUSH1 0x20 SWAP2 DUP3 DUP3 DIV ADD SWAP2 SWAP1 MOD SWAP1 SLOAD SWAP1 PUSH2 0x100 EXP SWAP1 DIV PUSH1 0xFF AND PUSH2 0x1464 JUMPI PUSH1 0x40 MLOAD PUSH32 0x8C379A000000000000000000000000000000000000000000000000000000000 DUP2 MSTORE PUSH1 0x4 ADD PUSH2 0x145B SWAP1 PUSH2 0x4A54 JUMP JUMPDEST PUSH1 0x40 MLOAD DUP1 SWAP2 SUB SWAP1 REVERT JUMPDEST PUSH2 0x146D DUP4 PUSH2 0x2527 JUMP JUMPDEST ISZERO PUSH2 0x14AD JUMPI PUSH1 0x40 MLOAD PUSH32 0x8C379A000000000000000000000000000000000000000000000000000000000 DUP2 MSTORE PUSH1 0x4 ADD PUSH2 0x14A4 SWAP1 PUSH2 0x4AC0 JUMP JUMPDEST PUSH1 0x40 MLOAD DUP1 SWAP2 SUB SWAP1 REVERT JUMPDEST PUSH1 0x0 PUSH1 0xD PUSH1 0x1 PUSH2 0x14BC DUP7 PUSH2 0x1B3B JUMP JUMPDEST PUSH2 0x14C6 SWAP2 SWAP1 PUSH2 0x4B0F JUMP JUMPDEST DUP2 SLOAD DUP2 LT PUSH2 0x14D7 JUMPI PUSH2 0x14D6 PUSH2 0x49D9 JUMP JUMPDEST JUMPDEST SWAP1 PUSH1 0x0 MSTORE PUSH1 0x20 PUSH1 0x0 KECCAK256 ADD SLOAD SWAP1 POP PUSH1 0x0 ORIGIN SWAP1 POP PUSH1 0x0 PUSH2 0x14F6 DUP3 DUP5 DUP8 PUSH2 0x2568 JUMP JUMPDEST SWAP1 POP DUP1 ISZERO PUSH2 0x1605 JUMPI PUSH2 0x1508 DUP3 DUP8 PUSH2 0x299B JUMP JUMPDEST PUSH1 0x10 PUSH1 0x0 DUP2 SLOAD DUP1 SWAP3 SWAP2 SWAP1 PUSH2 0x151B SWAP1 PUSH2 0x4B43 JUMP JUMPDEST SWAP2 SWAP1 POP SSTORE POP PUSH1 0x1 PUSH1 0xA DUP8 DUP2 SLOAD DUP2 LT PUSH2 0x1536 JUMPI PUSH2 0x1535 PUSH2 0x49D9 JUMP JUMPDEST JUMPDEST SWAP1 PUSH1 0x0 MSTORE PUSH1 0x20 PUSH1 0x0 KECCAK256 SWAP1 PUSH1 0x20 SWAP2 DUP3 DUP3 DIV ADD SWAP2 SWAP1 MOD PUSH2 0x100 EXP DUP2 SLOAD DUP2 PUSH1 0xFF MUL NOT AND SWAP1 DUP4 ISZERO ISZERO MUL OR SWAP1 SSTORE POP PUSH1 0x11 PUSH1 0x0 SWAP1 SLOAD SWAP1 PUSH2 0x100 EXP SWAP1 DIV PUSH1 0xFF AND ISZERO PUSH2 0x1604 JUMPI PUSH1 0x11 PUSH1 0x1 SWAP1 SLOAD SWAP1 PUSH2 0x100 EXP SWAP1 DIV PUSH20 0xFFFFFFFFFFFFFFFFFFFFFFFFFFFFFFFFFFFFFFFF AND PUSH20 0xFFFFFFFFFFFFFFFFFFFFFFFFFFFFFFFFFFFFFFFF AND PUSH4 0x5EEE8108 DUP6 DUP5 PUSH1 0x40 MLOAD DUP4 PUSH4 0xFFFFFFFF AND PUSH1 0xE0 SHL DUP2 MSTORE PUSH1 0x4 ADD PUSH2 0x15D1 SWAP3 SWAP2 SWAP1 PUSH2 0x4C1D JUMP JUMPDEST PUSH1 0x0 PUSH1 0x40 MLOAD DUP1 DUP4 SUB DUP2 PUSH1 0x0 DUP8 DUP1 EXTCODESIZE ISZERO DUP1 ISZERO PUSH2 0x15EB JUMPI PUSH1 0x0 DUP1 REVERT JUMPDEST POP GAS CALL ISZERO DUP1 ISZERO PUSH2 0x15FF JUMPI RETURNDATASIZE PUSH1 0x0 DUP1 RETURNDATACOPY RETURNDATASIZE PUSH1 0x0 REVERT JUMPDEST POP POP POP POP JUMPDEST JUMPDEST POP POP POP POP POP POP JUMP JUMPDEST PUSH1 0x0 PUSH1 0x9 PUSH1 0x0 SWAP1 SLOAD SWAP1 PUSH2 0x100 EXP SWAP1 DIV PUSH1 0xFF AND SWAP1 POP SWAP1 JUMP JUMPDEST PUSH2 0x162C PUSH2 0x2D47 JUMP JUMPDEST DUP1 PUSH1 0x13 SWAP1 DUP1 MLOAD SWAP1 PUSH1 0x20 ADD SWAP1 PUSH2 0x1642 SWAP3 SWAP2 SWAP1 PUSH2 0x3A5A JUMP JUMPDEST POP POP JUMP JUMPDEST PUSH1 0x0 DUP1 PUSH2 0x1652 DUP4 PUSH2 0x2E28 JUMP JUMPDEST SWAP1 POP PUSH1 0x0 PUSH20 0xFFFFFFFFFFFFFFFFFFFFFFFFFFFFFFFFFFFFFFFF AND DUP2 PUSH20 0xFFFFFFFFFFFFFFFFFFFFFFFFFFFFFFFFFFFFFFFF AND SUB PUSH2 0x16C3 JUMPI PUSH1 0x40 MLOAD PUSH32 0x8C379A000000000000000000000000000000000000000000000000000000000 DUP2 MSTORE PUSH1 0x4 ADD PUSH2 0x16BA SWAP1 PUSH2 0x4C92 JUMP JUMPDEST PUSH1 0x40 MLOAD DUP1 SWAP2 SUB SWAP1 REVERT JUMPDEST DUP1 SWAP2 POP POP SWAP2 SWAP1 POP JUMP JUMPDEST PUSH1 0x0 DUP1 PUSH20 0xFFFFFFFFFFFFFFFFFFFFFFFFFFFFFFFFFFFFFFFF AND DUP3 PUSH20 0xFFFFFFFFFFFFFFFFFFFFFFFFFFFFFFFFFFFFFFFF AND SUB PUSH2 0x173C JUMPI PUSH1 0x40 MLOAD PUSH32 0x8C379A000000000000000000000000000000000000000000000000000000000 DUP2 MSTORE PUSH1 0x4 ADD PUSH2 0x1733 SWAP1 PUSH2 0x4D24 JUMP JUMPDEST PUSH1 0x40 MLOAD DUP1 SWAP2 SUB SWAP1 REVERT JUMPDEST PUSH1 0x3 PUSH1 0x0 DUP4 PUSH20 0xFFFFFFFFFFFFFFFFFFFFFFFFFFFFFFFFFFFFFFFF AND PUSH20 0xFFFFFFFFFFFFFFFFFFFFFFFFFFFFFFFFFFFFFFFF AND DUP2 MSTORE PUSH1 0x20 ADD SWAP1 DUP2 MSTORE PUSH1 0x20 ADD PUSH1 0x0 KECCAK256 SLOAD SWAP1 POP SWAP2 SWAP1 POP JUMP JUMPDEST PUSH2 0x178B PUSH2 0x2D47 JUMP JUMPDEST PUSH2 0x1795 PUSH1 0x0 PUSH2 0x2E65 JUMP JUMPDEST JUMP JUMPDEST PUSH2 0x179F PUSH2 0x2D47 JUMP JUMPDEST DUP1 PUSH1 0x12 PUSH1 0x0 PUSH2 0x100 EXP DUP2 SLOAD DUP2 PUSH20 0xFFFFFFFFFFFFFFFFFFFFFFFFFFFFFFFFFFFFFFFF MUL NOT AND SWAP1 DUP4 PUSH20 0xFFFFFFFFFFFFFFFFFFFFFFFFFFFFFFFFFFFFFFFF AND MUL OR SWAP1 SSTORE POP PUSH1 0x12 PUSH1 0x0 SWAP1 SLOAD SWAP1 PUSH2 0x100 EXP SWAP1 DIV PUSH20 0xFFFFFFFFFFFFFFFFFFFFFFFFFFFFFFFFFFFFFFFF AND PUSH1 0x11 PUSH1 0x1 PUSH2 0x100 EXP DUP2 SLOAD DUP2 PUSH20 0xFFFFFFFFFFFFFFFFFFFFFFFFFFFFFFFFFFFFFFFF MUL NOT AND SWAP1 DUP4 PUSH20 0xFFFFFFFFFFFFFFFFFFFFFFFFFFFFFFFFFFFFFFFF AND MUL OR SWAP1 SSTORE POP POP JUMP JUMPDEST PUSH2 0x184E PUSH2 0x2D47 JUMP JUMPDEST PUSH1 0x4 DUP2 MLOAD EQ PUSH2 0x185C JUMPI PUSH1 0x0 DUP1 REVERT JUMPDEST DUP1 PUSH1 0xD SWAP1 DUP1 MLOAD SWAP1 PUSH1 0x20 ADD SWAP1 PUSH2 0x1872 SWAP3 SWAP2 SWAP1 PUSH2 0x3B00 JUMP JUMPDEST POP POP JUMP JUMPDEST PUSH2 0x187E PUSH2 0x2D47 JUMP JUMPDEST PUSH2 0x1886 PUSH2 0x2F2B JUMP JUMPDEST JUMP JUMPDEST PUSH1 0x0 PUSH1 0x9 PUSH1 0x1 SWAP1 SLOAD SWAP1 PUSH2 0x100 EXP SWAP1 DIV PUSH20 0xFFFFFFFFFFFFFFFFFFFFFFFFFFFFFFFFFFFFFFFF AND SWAP1 POP SWAP1 JUMP JUMPDEST PUSH1 0x60 PUSH1 0x1 DUP1 SLOAD PUSH2 0x18C1 SWAP1 PUSH2 0x4664 JUMP JUMPDEST DUP1 PUSH1 0x1F ADD PUSH1 0x20 DUP1 SWAP2 DIV MUL PUSH1 0x20 ADD PUSH1 0x40 MLOAD SWAP1 DUP2 ADD PUSH1 0x40 MSTORE DUP1 SWAP3 SWAP2 SWAP1 DUP2 DUP2 MSTORE PUSH1 0x20 ADD DUP3 DUP1 SLOAD PUSH2 0x18ED SWAP1 PUSH2 0x4664 JUMP JUMPDEST DUP1 ISZERO PUSH2 0x193A JUMPI DUP1 PUSH1 0x1F LT PUSH2 0x190F JUMPI PUSH2 0x100 DUP1 DUP4 SLOAD DIV MUL DUP4 MSTORE SWAP2 PUSH1 0x20 ADD SWAP2 PUSH2 0x193A JUMP JUMPDEST DUP3 ADD SWAP2 SWAP1 PUSH1 0x0 MSTORE PUSH1 0x20 PUSH1 0x0 KECCAK256 SWAP1 JUMPDEST DUP2 SLOAD DUP2 MSTORE SWAP1 PUSH1 0x1 ADD SWAP1 PUSH1 0x20 ADD DUP1 DUP4 GT PUSH2 0x191D JUMPI DUP3 SWAP1 SUB PUSH1 0x1F AND DUP3 ADD SWAP2 JUMPDEST POP POP POP POP POP SWAP1 POP SWAP1 JUMP JUMPDEST PUSH2 0x194C PUSH2 0x2D47 JUMP JUMPDEST PUSH2 0x1955 DUP2 PUSH2 0x2527 JUMP JUMPDEST ISZERO PUSH2 0x1995 JUMPI PUSH1 0x40 MLOAD PUSH32 0x8C379A000000000000000000000000000000000000000000000000000000000 DUP2 MSTORE PUSH1 0x4 ADD PUSH2 0x198C SWAP1 PUSH2 0x4AC0 JUMP JUMPDEST PUSH1 0x40 MLOAD DUP1 SWAP2 SUB SWAP1 REVERT JUMPDEST PUSH2 0x199F DUP3 DUP3 PUSH2 0x299B JUMP JUMPDEST PUSH1 0x10 PUSH1 0x0 DUP2 SLOAD DUP1 SWAP3 SWAP2 SWAP1 PUSH2 0x19B2 SWAP1 PUSH2 0x4B43 JUMP JUMPDEST SWAP2 SWAP1 POP SSTORE POP PUSH1 0x1 PUSH1 0xA DUP3 DUP2 SLOAD DUP2 LT PUSH2 0x19CD JUMPI PUSH2 0x19CC PUSH2 0x49D9 JUMP JUMPDEST JUMPDEST SWAP1 PUSH1 0x0 MSTORE PUSH1 0x20 PUSH1 0x0 KECCAK256 SWAP1 PUSH1 0x20 SWAP2 DUP3 DUP3 DIV ADD SWAP2 SWAP1 MOD PUSH2 0x100 EXP DUP2 SLOAD DUP2 PUSH1 0xFF MUL NOT AND SWAP1 DUP4 ISZERO ISZERO MUL OR SWAP1 SSTORE POP POP POP JUMP JUMPDEST PUSH2 0x1A0C PUSH2 0x1A05 PUSH2 0x22F7 JUMP JUMPDEST DUP4 DUP4 PUSH2 0x2F8E JUMP JUMPDEST POP POP JUMP JUMPDEST PUSH2 0x1A21 PUSH2 0x1A1B PUSH2 0x22F7 JUMP JUMPDEST DUP4 PUSH2 0x29B9 JUMP JUMPDEST PUSH2 0x1A60 JUMPI PUSH1 0x40 MLOAD PUSH32 0x8C379A000000000000000000000000000000000000000000000000000000000 DUP2 MSTORE PUSH1 0x4 ADD PUSH2 0x1A57 SWAP1 PUSH2 0x4BFD JUMP JUMPDEST PUSH1 0x40 MLOAD DUP1 SWAP2 SUB SWAP1 REVERT JUMPDEST PUSH2 0x1A6C DUP5 DUP5 DUP5 DUP5 PUSH2 0x30FA JUMP JUMPDEST POP POP POP POP JUMP JUMPDEST PUSH1 0xC DUP2 DUP2 SLOAD DUP2 LT PUSH2 0x1A82 JUMPI PUSH1 0x0 DUP1 REVERT JUMPDEST SWAP1 PUSH1 0x0 MSTORE PUSH1 0x20 PUSH1 0x0 KECCAK256 ADD PUSH1 0x0 SWAP2 POP SWAP1 POP SLOAD DUP2 JUMP JUMPDEST PUSH1 0x0 PUSH1 0x11 PUSH1 0x1 SWAP1 SLOAD SWAP1 PUSH2 0x100 EXP SWAP1 DIV PUSH20 0xFFFFFFFFFFFFFFFFFFFFFFFFFFFFFFFFFFFFFFFF AND PUSH20 0xFFFFFFFFFFFFFFFFFFFFFFFFFFFFFFFFFFFFFFFF AND PUSH4 0xC25B2368 DUP4 PUSH1 0x40 MLOAD DUP3 PUSH4 0xFFFFFFFF AND PUSH1 0xE0 SHL DUP2 MSTORE PUSH1 0x4 ADD PUSH2 0x1AF3 SWAP2 SWAP1 PUSH2 0x40D7 JUMP JUMPDEST PUSH1 0x20 PUSH1 0x40 MLOAD DUP1 DUP4 SUB DUP2 DUP7 GAS STATICCALL ISZERO DUP1 ISZERO PUSH2 0x1B10 JUMPI RETURNDATASIZE PUSH1 0x0 DUP1 RETURNDATACOPY RETURNDATASIZE PUSH1 0x0 REVERT JUMPDEST POP POP POP POP PUSH1 0x40 MLOAD RETURNDATASIZE PUSH1 0x1F NOT PUSH1 0x1F DUP3 ADD AND DUP3 ADD DUP1 PUSH1 0x40 MSTORE POP DUP2 ADD SWAP1 PUSH2 0x1B34 SWAP2 SWAP1 PUSH2 0x4D59 JUMP JUMPDEST SWAP1 POP SWAP2 SWAP1 POP JUMP JUMPDEST PUSH1 0x0 DUP1 DUP3 GT PUSH2 0x1B7F JUMPI PUSH1 0x40 MLOAD PUSH32 0x8C379A000000000000000000000000000000000000000000000000000000000 DUP2 MSTORE PUSH1 0x4 ADD PUSH2 0x1B76 SWAP1 PUSH2 0x4DD2 JUMP JUMPDEST PUSH1 0x40 MLOAD DUP1 SWAP2 SUB SWAP1 REVERT JUMPDEST PUSH1 0xF SLOAD DUP3 GT ISZERO PUSH2 0x1BC4 JUMPI PUSH1 0x40 MLOAD PUSH32 0x8C379A000000000000000000000000000000000000000000000000000000000 DUP2 MSTORE PUSH1 0x4 ADD PUSH2 0x1BBB SWAP1 PUSH2 0x4DD2 JUMP JUMPDEST PUSH1 0x40 MLOAD DUP1 SWAP2 SUB SWAP1 REVERT JUMPDEST PUSH1 0xE PUSH1 0x0 DUP2 SLOAD DUP2 LT PUSH2 0x1BD9 JUMPI PUSH2 0x1BD8 PUSH2 0x49D9 JUMP JUMPDEST JUMPDEST SWAP1 PUSH1 0x0 MSTORE PUSH1 0x20 PUSH1 0x0 KECCAK256 ADD SLOAD DUP3 GT PUSH2 0x1BF3 JUMPI PUSH1 0x4 SWAP1 POP PUSH2 0x1C85 JUMP JUMPDEST PUSH1 0xE PUSH1 0x1 DUP2 SLOAD DUP2 LT PUSH2 0x1C08 JUMPI PUSH2 0x1C07 PUSH2 0x49D9 JUMP JUMPDEST JUMPDEST SWAP1 PUSH1 0x0 MSTORE PUSH1 0x20 PUSH1 0x0 KECCAK256 ADD SLOAD DUP3 GT PUSH2 0x1C22 JUMPI PUSH1 0x3 SWAP1 POP PUSH2 0x1C85 JUMP JUMPDEST PUSH1 0xE PUSH1 0x2 DUP2 SLOAD DUP2 LT PUSH2 0x1C37 JUMPI PUSH2 0x1C36 PUSH2 0x49D9 JUMP JUMPDEST JUMPDEST SWAP1 PUSH1 0x0 MSTORE PUSH1 0x20 PUSH1 0x0 KECCAK256 ADD SLOAD DUP3 GT PUSH2 0x1C51 JUMPI PUSH1 0x2 SWAP1 POP PUSH2 0x1C85 JUMP JUMPDEST PUSH1 0xE PUSH1 0x3 DUP2 SLOAD DUP2 LT PUSH2 0x1C66 JUMPI PUSH2 0x1C65 PUSH2 0x49D9 JUMP JUMPDEST JUMPDEST SWAP1 PUSH1 0x0 MSTORE PUSH1 0x20 PUSH1 0x0 KECCAK256 ADD SLOAD DUP3 GT PUSH2 0x1C80 JUMPI PUSH1 0x1 SWAP1 POP PUSH2 0x1C85 JUMP JUMPDEST PUSH1 0x0 SWAP1 POP JUMPDEST SWAP2 SWAP1 POP JUMP JUMPDEST PUSH2 0x1C92 PUSH2 0x2D47 JUMP JUMPDEST DUP6 PUSH1 0x14 PUSH1 0x0 PUSH2 0x100 EXP DUP2 SLOAD DUP2 PUSH20 0xFFFFFFFFFFFFFFFFFFFFFFFFFFFFFFFFFFFFFFFF MUL NOT AND SWAP1 DUP4 PUSH20 0xFFFFFFFFFFFFFFFFFFFFFFFFFFFFFFFFFFFFFFFF AND MUL OR SWAP1 SSTORE POP DUP5 PUSH1 0x15 PUSH1 0x0 PUSH2 0x100 EXP DUP2 SLOAD DUP2 PUSH20 0xFFFFFFFFFFFFFFFFFFFFFFFFFFFFFFFFFFFFFFFF MUL NOT AND SWAP1 DUP4 PUSH20 0xFFFFFFFFFFFFFFFFFFFFFFFFFFFFFFFFFFFFFFFF AND MUL OR SWAP1 SSTORE POP DUP4 PUSH1 0x16 PUSH1 0x0 PUSH2 0x100 EXP DUP2 SLOAD DUP2 PUSH20 0xFFFFFFFFFFFFFFFFFFFFFFFFFFFFFFFFFFFFFFFF MUL NOT AND SWAP1 DUP4 PUSH20 0xFFFFFFFFFFFFFFFFFFFFFFFFFFFFFFFFFFFFFFFF AND MUL OR SWAP1 SSTORE POP DUP3 PUSH1 0x17 PUSH1 0x0 PUSH2 0x100 EXP DUP2 SLOAD DUP2 PUSH20 0xFFFFFFFFFFFFFFFFFFFFFFFFFFFFFFFFFFFFFFFF MUL NOT AND SWAP1 DUP4 PUSH20 0xFFFFFFFFFFFFFFFFFFFFFFFFFFFFFFFFFFFFFFFF AND MUL OR SWAP1 SSTORE POP DUP2 PUSH1 0x18 PUSH1 0x0 PUSH2 0x100 EXP DUP2 SLOAD DUP2 PUSH20 0xFFFFFFFFFFFFFFFFFFFFFFFFFFFFFFFFFFFFFFFF MUL NOT AND SWAP1 DUP4 PUSH20 0xFFFFFFFFFFFFFFFFFFFFFFFFFFFFFFFFFFFFFFFF AND MUL OR SWAP1 SSTORE POP DUP1 PUSH1 0x19 PUSH1 0x0 PUSH2 0x100 EXP DUP2 SLOAD DUP2 PUSH20 0xFFFFFFFFFFFFFFFFFFFFFFFFFFFFFFFFFFFFFFFF MUL NOT AND SWAP1 DUP4 PUSH20 0xFFFFFFFFFFFFFFFFFFFFFFFFFFFFFFFFFFFFFFFF AND MUL OR SWAP1 SSTORE POP POP POP POP POP POP POP JUMP JUMPDEST PUSH1 0x13 DUP2 DUP2 SLOAD DUP2 LT PUSH2 0x1E30 JUMPI PUSH1 0x0 DUP1 REVERT JUMPDEST SWAP1 PUSH1 0x0 MSTORE PUSH1 0x20 PUSH1 0x0 KECCAK256 SWAP1 PUSH1 0x20 SWAP2 DUP3 DUP3 DIV ADD SWAP2 SWAP1 MOD SWAP2 POP SLOAD SWAP1 PUSH2 0x100 EXP SWAP1 DIV PUSH1 0xFF AND DUP2 JUMP JUMPDEST PUSH1 0x60 PUSH2 0x1E5F DUP3 PUSH2 0x22AC JUMP JUMPDEST PUSH1 0x0 PUSH2 0x1E69 PUSH2 0x3156 JUMP JUMPDEST SWAP1 POP PUSH1 0x0 DUP2 MLOAD GT PUSH2 0x1E89 JUMPI PUSH1 0x40 MLOAD DUP1 PUSH1 0x20 ADD PUSH1 0x40 MSTORE DUP1 PUSH1 0x0 DUP2 MSTORE POP PUSH2 0x1EB4 JUMP JUMPDEST DUP1 PUSH2 0x1E93 DUP5 PUSH2 0x316D JUMP JUMPDEST PUSH1 0x40 MLOAD PUSH1 0x20 ADD PUSH2 0x1EA4 SWAP3 SWAP2 SWAP1 PUSH2 0x4E2E JUMP JUMPDEST PUSH1 0x40 MLOAD PUSH1 0x20 DUP2 DUP4 SUB SUB DUP2 MSTORE SWAP1 PUSH1 0x40 MSTORE JUMPDEST SWAP2 POP POP SWAP2 SWAP1 POP JUMP JUMPDEST PUSH1 0xF SLOAD DUP2 JUMP JUMPDEST PUSH2 0x1ECA PUSH2 0x24DD JUMP JUMPDEST PUSH1 0x0 PUSH1 0xC PUSH1 0x1 PUSH2 0x1ED9 DUP5 PUSH2 0x1B3B JUMP JUMPDEST PUSH2 0x1EE3 SWAP2 SWAP1 PUSH2 0x4B0F JUMP JUMPDEST DUP2 SLOAD DUP2 LT PUSH2 0x1EF4 JUMPI PUSH2 0x1EF3 PUSH2 0x49D9 JUMP JUMPDEST JUMPDEST SWAP1 PUSH1 0x0 MSTORE PUSH1 0x20 PUSH1 0x0 KECCAK256 ADD SLOAD SWAP1 POP DUP1 CALLVALUE EQ PUSH2 0x1F43 JUMPI PUSH1 0x40 MLOAD PUSH32 0x8C379A000000000000000000000000000000000000000000000000000000000 DUP2 MSTORE PUSH1 0x4 ADD PUSH2 0x1F3A SWAP1 PUSH2 0x4EC4 JUMP JUMPDEST PUSH1 0x40 MLOAD DUP1 SWAP2 SUB SWAP1 REVERT JUMPDEST PUSH2 0x1F4C DUP3 PUSH2 0x1646 JUMP JUMPDEST PUSH20 0xFFFFFFFFFFFFFFFFFFFFFFFFFFFFFFFFFFFFFFFF AND ORIGIN PUSH20 0xFFFFFFFFFFFFFFFFFFFFFFFFFFFFFFFFFFFFFFFF AND EQ PUSH2 0x1FB9 JUMPI PUSH1 0x40 MLOAD PUSH32 0x8C379A000000000000000000000000000000000000000000000000000000000 DUP2 MSTORE PUSH1 0x4 ADD PUSH2 0x1FB0 SWAP1 PUSH2 0x4F30 JUMP JUMPDEST PUSH1 0x40 MLOAD DUP1 SWAP2 SUB SWAP1 REVERT JUMPDEST PUSH2 0x1FC4 ORIGIN DUP5 DUP5 PUSH2 0x13A4 JUMP JUMPDEST POP POP POP JUMP JUMPDEST PUSH2 0x1FD1 PUSH2 0x2D47 JUMP JUMPDEST PUSH1 0x4 DUP2 MLOAD EQ PUSH2 0x1FDF JUMPI PUSH1 0x0 DUP1 REVERT JUMPDEST DUP1 PUSH1 0xC SWAP1 DUP1 MLOAD SWAP1 PUSH1 0x20 ADD SWAP1 PUSH2 0x1FF5 SWAP3 SWAP2 SWAP1 PUSH2 0x3B00 JUMP JUMPDEST POP POP JUMP JUMPDEST PUSH1 0xE DUP2 DUP2 SLOAD DUP2 LT PUSH2 0x2009 JUMPI PUSH1 0x0 DUP1 REVERT JUMPDEST SWAP1 PUSH1 0x0 MSTORE PUSH1 0x20 PUSH1 0x0 KECCAK256 ADD PUSH1 0x0 SWAP2 POP SWAP1 POP SLOAD DUP2 JUMP JUMPDEST PUSH1 0x0 DUP1 PUSH1 0xB PUSH1 0x0 SWAP1 SLOAD SWAP1 PUSH2 0x100 EXP SWAP1 DIV PUSH20 0xFFFFFFFFFFFFFFFFFFFFFFFFFFFFFFFFFFFFFFFF AND SWAP1 POP DUP3 PUSH20 0xFFFFFFFFFFFFFFFFFFFFFFFFFFFFFFFFFFFFFFFF AND DUP2 PUSH20 0xFFFFFFFFFFFFFFFFFFFFFFFFFFFFFFFFFFFFFFFF AND PUSH4 0xC4552791 DUP7 PUSH1 0x40 MLOAD DUP3 PUSH4 0xFFFFFFFF AND PUSH1 0xE0 SHL DUP2 MSTORE PUSH1 0x4 ADD PUSH2 0x2095 SWAP2 SWAP1 PUSH2 0x3D8F JUMP JUMPDEST PUSH1 0x20 PUSH1 0x40 MLOAD DUP1 DUP4 SUB DUP2 DUP7 GAS STATICCALL ISZERO DUP1 ISZERO PUSH2 0x20B2 JUMPI RETURNDATASIZE PUSH1 0x0 DUP1 RETURNDATACOPY RETURNDATASIZE PUSH1 0x0 REVERT JUMPDEST POP POP POP POP PUSH1 0x40 MLOAD RETURNDATASIZE PUSH1 0x1F NOT PUSH1 0x1F DUP3 ADD AND DUP3 ADD DUP1 PUSH1 0x40 MSTORE POP DUP2 ADD SWAP1 PUSH2 0x20D6 SWAP2 SWAP1 PUSH2 0x4F8E JUMP JUMPDEST PUSH20 0xFFFFFFFFFFFFFFFFFFFFFFFFFFFFFFFFFFFFFFFF AND SUB PUSH2 0x20FB JUMPI PUSH1 0x1 SWAP2 POP POP PUSH2 0x2109 JUMP JUMPDEST PUSH2 0x2105 DUP5 DUP5 PUSH2 0x323B JUMP JUMPDEST SWAP2 POP POP JUMPDEST SWAP3 SWAP2 POP POP JUMP JUMPDEST PUSH2 0x2117 PUSH2 0x2D47 JUMP JUMPDEST PUSH1 0x0 PUSH20 0xFFFFFFFFFFFFFFFFFFFFFFFFFFFFFFFFFFFFFFFF AND DUP2 PUSH20 0xFFFFFFFFFFFFFFFFFFFFFFFFFFFFFFFFFFFFFFFF AND SUB PUSH2 0x2186 JUMPI PUSH1 0x40 MLOAD PUSH32 0x8C379A000000000000000000000000000000000000000000000000000000000 DUP2 MSTORE PUSH1 0x4 ADD PUSH2 0x217D SWAP1 PUSH2 0x502D JUMP JUMPDEST PUSH1 0x40 MLOAD DUP1 SWAP2 SUB SWAP1 REVERT JUMPDEST PUSH2 0x218F DUP2 PUSH2 0x2E65 JUMP JUMPDEST POP JUMP JUMPDEST PUSH1 0x0 ADDRESS PUSH20 0xFFFFFFFFFFFFFFFFFFFFFFFFFFFFFFFFFFFFFFFF AND CALLER PUSH20 0xFFFFFFFFFFFFFFFFFFFFFFFFFFFFFFFFFFFFFFFF AND SUB PUSH2 0x223B JUMPI PUSH1 0x0 DUP1 CALLDATASIZE DUP1 DUP1 PUSH1 0x1F ADD PUSH1 0x20 DUP1 SWAP2 DIV MUL PUSH1 0x20 ADD PUSH1 0x40 MLOAD SWAP1 DUP2 ADD PUSH1 0x40 MSTORE DUP1 SWAP4 SWAP3 SWAP2 SWAP1 DUP2 DUP2 MSTORE PUSH1 0x20 ADD DUP4 DUP4 DUP1 DUP3 DUP5 CALLDATACOPY PUSH1 0x0 DUP2 DUP5 ADD MSTORE PUSH1 0x1F NOT PUSH1 0x1F DUP3 ADD AND SWAP1 POP DUP1 DUP4 ADD SWAP3 POP POP POP POP POP POP POP SWAP1 POP PUSH1 0x0 DUP1 CALLDATASIZE SWAP1 POP SWAP1 POP PUSH20 0xFFFFFFFFFFFFFFFFFFFFFFFFFFFFFFFFFFFFFFFF DUP2 DUP4 ADD MLOAD AND SWAP3 POP POP POP PUSH2 0x223F JUMP JUMPDEST CALLER SWAP1 POP JUMPDEST SWAP1 JUMP JUMPDEST PUSH1 0x0 PUSH32 0x1FFC9A700000000000000000000000000000000000000000000000000000000 PUSH28 0xFFFFFFFFFFFFFFFFFFFFFFFFFFFFFFFFFFFFFFFFFFFFFFFFFFFFFFFF NOT AND DUP3 PUSH28 0xFFFFFFFFFFFFFFFFFFFFFFFFFFFFFFFFFFFFFFFFFFFFFFFFFFFFFFFF NOT AND EQ SWAP1 POP SWAP2 SWAP1 POP JUMP JUMPDEST PUSH2 0x22B5 DUP2 PUSH2 0x2527 JUMP JUMPDEST PUSH2 0x22F4 JUMPI PUSH1 0x40 MLOAD PUSH32 0x8C379A000000000000000000000000000000000000000000000000000000000 DUP2 MSTORE PUSH1 0x4 ADD PUSH2 0x22EB SWAP1 PUSH2 0x4C92 JUMP JUMPDEST PUSH1 0x40 MLOAD DUP1 SWAP2 SUB SWAP1 REVERT JUMPDEST POP JUMP JUMPDEST PUSH1 0x0 PUSH2 0x2301 PUSH2 0x2192 JUMP JUMPDEST SWAP1 POP SWAP1 JUMP JUMPDEST DUP2 PUSH1 0x4 PUSH1 0x0 DUP4 DUP2 MSTORE PUSH1 0x20 ADD SWAP1 DUP2 MSTORE PUSH1 0x20 ADD PUSH1 0x0 KECCAK256 PUSH1 0x0 PUSH2 0x100 EXP DUP2 SLOAD DUP2 PUSH20 0xFFFFFFFFFFFFFFFFFFFFFFFFFFFFFFFFFFFFFFFF MUL NOT AND SWAP1 DUP4 PUSH20 0xFFFFFFFFFFFFFFFFFFFFFFFFFFFFFFFFFFFFFFFF AND MUL OR SWAP1 SSTORE POP DUP1 DUP3 PUSH20 0xFFFFFFFFFFFFFFFFFFFFFFFFFFFFFFFFFFFFFFFF AND PUSH2 0x2379 DUP4 PUSH2 0x1646 JUMP JUMPDEST PUSH20 0xFFFFFFFFFFFFFFFFFFFFFFFFFFFFFFFFFFFFFFFF AND PUSH32 0x8C5BE1E5EBEC7D5BD14F71427D1E84F3DD0314C0F7B2291E5B200AC8C7C3B925 PUSH1 0x40 MLOAD PUSH1 0x40 MLOAD DUP1 SWAP2 SUB SWAP1 LOG4 POP POP JUMP JUMPDEST PUSH1 0x0 DUP1 PUSH20 0xFFFFFFFFFFFFFFFFFFFFFFFFFFFFFFFFFFFFFFFF AND DUP7 PUSH20 0xFFFFFFFFFFFFFFFFFFFFFFFFFFFFFFFFFFFFFFFF AND SUB PUSH2 0x242F JUMPI PUSH1 0x40 MLOAD PUSH32 0x8C379A000000000000000000000000000000000000000000000000000000000 DUP2 MSTORE PUSH1 0x4 ADD PUSH2 0x2426 SWAP1 PUSH2 0x50BF JUMP JUMPDEST PUSH1 0x40 MLOAD DUP1 SWAP2 SUB SWAP1 REVERT JUMPDEST PUSH1 0x1 PUSH2 0x2442 PUSH2 0x243D DUP8 PUSH2 0x32CF JUMP JUMPDEST PUSH2 0x3337 JUMP JUMPDEST DUP4 DUP7 DUP7 PUSH1 0x40 MLOAD PUSH1 0x0 DUP2 MSTORE PUSH1 0x20 ADD PUSH1 0x40 MSTORE PUSH1 0x40 MLOAD PUSH2 0x2462 SWAP5 SWAP4 SWAP3 SWAP2 SWAP1 PUSH2 0x50EE JUMP JUMPDEST PUSH1 0x20 PUSH1 0x40 MLOAD PUSH1 0x20 DUP2 SUB SWAP1 DUP1 DUP5 SUB SWAP1 DUP6 GAS STATICCALL ISZERO DUP1 ISZERO PUSH2 0x2484 JUMPI RETURNDATASIZE PUSH1 0x0 DUP1 RETURNDATACOPY RETURNDATASIZE PUSH1 0x0 REVERT JUMPDEST POP POP POP PUSH1 0x20 PUSH1 0x40 MLOAD SUB MLOAD PUSH20 0xFFFFFFFFFFFFFFFFFFFFFFFFFFFFFFFFFFFFFFFF AND DUP7 PUSH20 0xFFFFFFFFFFFFFFFFFFFFFFFFFFFFFFFFFFFFFFFF AND EQ SWAP1 POP SWAP6 SWAP5 POP POP POP POP POP JUMP JUMPDEST PUSH1 0x0 DUP2 DUP4 PUSH2 0x24D5 SWAP2 SWAP1 PUSH2 0x5133 JUMP JUMPDEST SWAP1 POP SWAP3 SWAP2 POP POP JUMP JUMPDEST PUSH2 0x24E5 PUSH2 0x160D JUMP JUMPDEST ISZERO PUSH2 0x2525 JUMPI PUSH1 0x40 MLOAD PUSH32 0x8C379A000000000000000000000000000000000000000000000000000000000 DUP2 MSTORE PUSH1 0x4 ADD PUSH2 0x251C SWAP1 PUSH2 0x51B3 JUMP JUMPDEST PUSH1 0x40 MLOAD DUP1 SWAP2 SUB SWAP1 REVERT JUMPDEST JUMP JUMPDEST PUSH1 0x0 DUP1 PUSH20 0xFFFFFFFFFFFFFFFFFFFFFFFFFFFFFFFFFFFFFFFF AND PUSH2 0x2549 DUP4 PUSH2 0x2E28 JUMP JUMPDEST PUSH20 0xFFFFFFFFFFFFFFFFFFFFFFFFFFFFFFFFFFFFFFFF AND EQ ISZERO SWAP1 POP SWAP2 SWAP1 POP JUMP JUMPDEST PUSH1 0x0 DUP1 DUP3 SUB PUSH2 0x261A JUMPI PUSH1 0x14 PUSH1 0x0 SWAP1 SLOAD SWAP1 PUSH2 0x100 EXP SWAP1 DIV PUSH20 0xFFFFFFFFFFFFFFFFFFFFFFFFFFFFFFFFFFFFFFFF AND PUSH20 0xFFFFFFFFFFFFFFFFFFFFFFFFFFFFFFFFFFFFFFFF AND PUSH4 0x23B872DD DUP6 ADDRESS DUP7 PUSH1 0x40 MLOAD DUP5 PUSH4 0xFFFFFFFF AND PUSH1 0xE0 SHL DUP2 MSTORE PUSH1 0x4 ADD PUSH2 0x25D0 SWAP4 SWAP3 SWAP2 SWAP1 PUSH2 0x51D3 JUMP JUMPDEST PUSH1 0x20 PUSH1 0x40 MLOAD DUP1 DUP4 SUB DUP2 PUSH1 0x0 DUP8 GAS CALL ISZERO DUP1 ISZERO PUSH2 0x25EF JUMPI RETURNDATASIZE PUSH1 0x0 DUP1 RETURNDATACOPY RETURNDATASIZE PUSH1 0x0 REVERT JUMPDEST POP POP POP POP PUSH1 0x40 MLOAD RETURNDATASIZE PUSH1 0x1F NOT PUSH1 0x1F DUP3 ADD AND DUP3 ADD DUP1 PUSH1 0x40 MSTORE POP DUP2 ADD SWAP1 PUSH2 0x2613 SWAP2 SWAP1 PUSH2 0x521F JUMP JUMPDEST SWAP1 POP PUSH2 0x2994 JUMP JUMPDEST PUSH1 0x1 DUP3 SUB PUSH2 0x26CB JUMPI PUSH1 0x15 PUSH1 0x0 SWAP1 SLOAD SWAP1 PUSH2 0x100 EXP SWAP1 DIV PUSH20 0xFFFFFFFFFFFFFFFFFFFFFFFFFFFFFFFFFFFFFFFF AND PUSH20 0xFFFFFFFFFFFFFFFFFFFFFFFFFFFFFFFFFFFFFFFF AND PUSH4 0x23B872DD DUP6 ADDRESS DUP7 PUSH1 0x40 MLOAD DUP5 PUSH4 0xFFFFFFFF AND PUSH1 0xE0 SHL DUP2 MSTORE PUSH1 0x4 ADD PUSH2 0x2681 SWAP4 SWAP3 SWAP2 SWAP1 PUSH2 0x51D3 JUMP JUMPDEST PUSH1 0x20 PUSH1 0x40 MLOAD DUP1 DUP4 SUB DUP2 PUSH1 0x0 DUP8 GAS CALL ISZERO DUP1 ISZERO PUSH2 0x26A0 JUMPI RETURNDATASIZE PUSH1 0x0 DUP1 RETURNDATACOPY RETURNDATASIZE PUSH1 0x0 REVERT JUMPDEST POP POP POP POP PUSH1 0x40 MLOAD RETURNDATASIZE PUSH1 0x1F NOT PUSH1 0x1F DUP3 ADD AND DUP3 ADD DUP1 PUSH1 0x40 MSTORE POP DUP2 ADD SWAP1 PUSH2 0x26C4 SWAP2 SWAP1 PUSH2 0x521F JUMP JUMPDEST SWAP1 POP PUSH2 0x2994 JUMP JUMPDEST PUSH1 0x2 DUP3 SUB PUSH2 0x277C JUMPI PUSH1 0x16 PUSH1 0x0 SWAP1 SLOAD SWAP1 PUSH2 0x100 EXP SWAP1 DIV PUSH20 0xFFFFFFFFFFFFFFFFFFFFFFFFFFFFFFFFFFFFFFFF AND PUSH20 0xFFFFFFFFFFFFFFFFFFFFFFFFFFFFFFFFFFFFFFFF AND PUSH4 0x23B872DD DUP6 ADDRESS DUP7 PUSH1 0x40 MLOAD DUP5 PUSH4 0xFFFFFFFF AND PUSH1 0xE0 SHL DUP2 MSTORE PUSH1 0x4 ADD PUSH2 0x2732 SWAP4 SWAP3 SWAP2 SWAP1 PUSH2 0x51D3 JUMP JUMPDEST PUSH1 0x20 PUSH1 0x40 MLOAD DUP1 DUP4 SUB DUP2 PUSH1 0x0 DUP8 GAS CALL ISZERO DUP1 ISZERO PUSH2 0x2751 JUMPI RETURNDATASIZE PUSH1 0x0 DUP1 RETURNDATACOPY RETURNDATASIZE PUSH1 0x0 REVERT JUMPDEST POP POP POP POP PUSH1 0x40 MLOAD RETURNDATASIZE PUSH1 0x1F NOT PUSH1 0x1F DUP3 ADD AND DUP3 ADD DUP1 PUSH1 0x40 MSTORE POP DUP2 ADD SWAP1 PUSH2 0x2775 SWAP2 SWAP1 PUSH2 0x521F JUMP JUMPDEST SWAP1 POP PUSH2 0x2994 JUMP JUMPDEST PUSH1 0x3 DUP3 SUB PUSH2 0x282D JUMPI PUSH1 0x17 PUSH1 0x0 SWAP1 SLOAD SWAP1 PUSH2 0x100 EXP SWAP1 DIV PUSH20 0xFFFFFFFFFFFFFFFFFFFFFFFFFFFFFFFFFFFFFFFF AND PUSH20 0xFFFFFFFFFFFFFFFFFFFFFFFFFFFFFFFFFFFFFFFF AND PUSH4 0x23B872DD DUP6 ADDRESS DUP7 PUSH1 0x40 MLOAD DUP5 PUSH4 0xFFFFFFFF AND PUSH1 0xE0 SHL DUP2 MSTORE PUSH1 0x4 ADD PUSH2 0x27E3 SWAP4 SWAP3 SWAP2 SWAP1 PUSH2 0x51D3 JUMP JUMPDEST PUSH1 0x20 PUSH1 0x40 MLOAD DUP1 DUP4 SUB DUP2 PUSH1 0x0 DUP8 GAS CALL ISZERO DUP1 ISZERO PUSH2 0x2802 JUMPI RETURNDATASIZE PUSH1 0x0 DUP1 RETURNDATACOPY RETURNDATASIZE PUSH1 0x0 REVERT JUMPDEST POP POP POP POP PUSH1 0x40 MLOAD RETURNDATASIZE PUSH1 0x1F NOT PUSH1 0x1F DUP3 ADD AND DUP3 ADD DUP1 PUSH1 0x40 MSTORE POP DUP2 ADD SWAP1 PUSH2 0x2826 SWAP2 SWAP1 PUSH2 0x521F JUMP JUMPDEST SWAP1 POP PUSH2 0x2994 JUMP JUMPDEST PUSH1 0x4 DUP3 SUB PUSH2 0x28DE JUMPI PUSH1 0x18 PUSH1 0x0 SWAP1 SLOAD SWAP1 PUSH2 0x100 EXP SWAP1 DIV PUSH20 0xFFFFFFFFFFFFFFFFFFFFFFFFFFFFFFFFFFFFFFFF AND PUSH20 0xFFFFFFFFFFFFFFFFFFFFFFFFFFFFFFFFFFFFFFFF AND PUSH4 0x23B872DD DUP6 ADDRESS DUP7 PUSH1 0x40 MLOAD DUP5 PUSH4 0xFFFFFFFF AND PUSH1 0xE0 SHL DUP2 MSTORE PUSH1 0x4 ADD PUSH2 0x2894 SWAP4 SWAP3 SWAP2 SWAP1 PUSH2 0x51D3 JUMP JUMPDEST PUSH1 0x20 PUSH1 0x40 MLOAD DUP1 DUP4 SUB DUP2 PUSH1 0x0 DUP8 GAS CALL ISZERO DUP1 ISZERO PUSH2 0x28B3 JUMPI RETURNDATASIZE PUSH1 0x0 DUP1 RETURNDATACOPY RETURNDATASIZE PUSH1 0x0 REVERT JUMPDEST POP POP POP POP PUSH1 0x40 MLOAD RETURNDATASIZE PUSH1 0x1F NOT PUSH1 0x1F DUP3 ADD AND DUP3 ADD DUP1 PUSH1 0x40 MSTORE POP DUP2 ADD SWAP1 PUSH2 0x28D7 SWAP2 SWAP1 PUSH2 0x521F JUMP JUMPDEST SWAP1 POP PUSH2 0x2994 JUMP JUMPDEST PUSH1 0x5 DUP3 SUB PUSH2 0x298F JUMPI PUSH1 0x19 PUSH1 0x0 SWAP1 SLOAD SWAP1 PUSH2 0x100 EXP SWAP1 DIV PUSH20 0xFFFFFFFFFFFFFFFFFFFFFFFFFFFFFFFFFFFFFFFF AND PUSH20 0xFFFFFFFFFFFFFFFFFFFFFFFFFFFFFFFFFFFFFFFF AND PUSH4 0x23B872DD DUP6 ADDRESS DUP7 PUSH1 0x40 MLOAD DUP5 PUSH4 0xFFFFFFFF AND PUSH1 0xE0 SHL DUP2 MSTORE PUSH1 0x4 ADD PUSH2 0x2945 SWAP4 SWAP3 SWAP2 SWAP1 PUSH2 0x51D3 JUMP JUMPDEST PUSH1 0x20 PUSH1 0x40 MLOAD DUP1 DUP4 SUB DUP2 PUSH1 0x0 DUP8 GAS CALL ISZERO DUP1 ISZERO PUSH2 0x2964 JUMPI RETURNDATASIZE PUSH1 0x0 DUP1 RETURNDATACOPY RETURNDATASIZE PUSH1 0x0 REVERT JUMPDEST POP POP POP POP PUSH1 0x40 MLOAD RETURNDATASIZE PUSH1 0x1F NOT PUSH1 0x1F DUP3 ADD AND DUP3 ADD DUP1 PUSH1 0x40 MSTORE POP DUP2 ADD SWAP1 PUSH2 0x2988 SWAP2 SWAP1 PUSH2 0x521F JUMP JUMPDEST SWAP1 POP PUSH2 0x2994 JUMP JUMPDEST PUSH1 0x0 SWAP1 POP JUMPDEST SWAP4 SWAP3 POP POP POP JUMP JUMPDEST PUSH2 0x29B5 DUP3 DUP3 PUSH1 0x40 MLOAD DUP1 PUSH1 0x20 ADD PUSH1 0x40 MSTORE DUP1 PUSH1 0x0 DUP2 MSTORE POP PUSH2 0x3370 JUMP JUMPDEST POP POP JUMP JUMPDEST PUSH1 0x0 DUP1 PUSH2 0x29C5 DUP4 PUSH2 0x1646 JUMP JUMPDEST SWAP1 POP DUP1 PUSH20 0xFFFFFFFFFFFFFFFFFFFFFFFFFFFFFFFFFFFFFFFF AND DUP5 PUSH20 0xFFFFFFFFFFFFFFFFFFFFFFFFFFFFFFFFFFFFFFFF AND EQ DUP1 PUSH2 0x2A07 JUMPI POP PUSH2 0x2A06 DUP2 DUP6 PUSH2 0x201D JUMP JUMPDEST JUMPDEST DUP1 PUSH2 0x2A45 JUMPI POP DUP4 PUSH20 0xFFFFFFFFFFFFFFFFFFFFFFFFFFFFFFFFFFFFFFFF AND PUSH2 0x2A2D DUP5 PUSH2 0xC12 JUMP JUMPDEST PUSH20 0xFFFFFFFFFFFFFFFFFFFFFFFFFFFFFFFFFFFFFFFF AND EQ JUMPDEST SWAP2 POP POP SWAP3 SWAP2 POP POP JUMP JUMPDEST DUP3 PUSH20 0xFFFFFFFFFFFFFFFFFFFFFFFFFFFFFFFFFFFFFFFF AND PUSH2 0x2A6E DUP3 PUSH2 0x1646 JUMP JUMPDEST PUSH20 0xFFFFFFFFFFFFFFFFFFFFFFFFFFFFFFFFFFFFFFFF AND EQ PUSH2 0x2AC4 JUMPI PUSH1 0x40 MLOAD PUSH32 0x8C379A000000000000000000000000000000000000000000000000000000000 DUP2 MSTORE PUSH1 0x4 ADD PUSH2 0x2ABB SWAP1 PUSH2 0x52BE JUMP JUMPDEST PUSH1 0x40 MLOAD DUP1 SWAP2 SUB SWAP1 REVERT JUMPDEST PUSH1 0x0 PUSH20 0xFFFFFFFFFFFFFFFFFFFFFFFFFFFFFFFFFFFFFFFF AND DUP3 PUSH20 0xFFFFFFFFFFFFFFFFFFFFFFFFFFFFFFFFFFFFFFFF AND SUB PUSH2 0x2B33 JUMPI PUSH1 0x40 MLOAD PUSH32 0x8C379A000000000000000000000000000000000000000000000000000000000 DUP2 MSTORE PUSH1 0x4 ADD PUSH2 0x2B2A SWAP1 PUSH2 0x5350 JUMP JUMPDEST PUSH1 0x40 MLOAD DUP1 SWAP2 SUB SWAP1 REVERT JUMPDEST PUSH2 0x2B40 DUP4 DUP4 DUP4 PUSH1 0x1 PUSH2 0x33CB JUMP JUMPDEST DUP3 PUSH20 0xFFFFFFFFFFFFFFFFFFFFFFFFFFFFFFFFFFFFFFFF AND PUSH2 0x2B60 DUP3 PUSH2 0x1646 JUMP JUMPDEST PUSH20 0xFFFFFFFFFFFFFFFFFFFFFFFFFFFFFFFFFFFFFFFF AND EQ PUSH2 0x2BB6 JUMPI PUSH1 0x40 MLOAD PUSH32 0x8C379A000000000000000000000000000000000000000000000000000000000 DUP2 MSTORE PUSH1 0x4 ADD PUSH2 0x2BAD SWAP1 PUSH2 0x52BE JUMP JUMPDEST PUSH1 0x40 MLOAD DUP1 SWAP2 SUB SWAP1 REVERT JUMPDEST PUSH1 0x4 PUSH1 0x0 DUP3 DUP2 MSTORE PUSH1 0x20 ADD SWAP1 DUP2 MSTORE PUSH1 0x20 ADD PUSH1 0x0 KECCAK256 PUSH1 0x0 PUSH2 0x100 EXP DUP2 SLOAD SWAP1 PUSH20 0xFFFFFFFFFFFFFFFFFFFFFFFFFFFFFFFFFFFFFFFF MUL NOT AND SWAP1 SSTORE PUSH1 0x1 PUSH1 0x3 PUSH1 0x0 DUP6 PUSH20 0xFFFFFFFFFFFFFFFFFFFFFFFFFFFFFFFFFFFFFFFF AND PUSH20 0xFFFFFFFFFFFFFFFFFFFFFFFFFFFFFFFFFFFFFFFF AND DUP2 MSTORE PUSH1 0x20 ADD SWAP1 DUP2 MSTORE PUSH1 0x20 ADD PUSH1 0x0 KECCAK256 PUSH1 0x0 DUP3 DUP3 SLOAD SUB SWAP3 POP POP DUP2 SWAP1 SSTORE POP PUSH1 0x1 PUSH1 0x3 PUSH1 0x0 DUP5 PUSH20 0xFFFFFFFFFFFFFFFFFFFFFFFFFFFFFFFFFFFFFFFF AND PUSH20 0xFFFFFFFFFFFFFFFFFFFFFFFFFFFFFFFFFFFFFFFF AND DUP2 MSTORE PUSH1 0x20 ADD SWAP1 DUP2 MSTORE PUSH1 0x20 ADD PUSH1 0x0 KECCAK256 PUSH1 0x0 DUP3 DUP3 SLOAD ADD SWAP3 POP POP DUP2 SWAP1 SSTORE POP DUP2 PUSH1 0x2 PUSH1 0x0 DUP4 DUP2 MSTORE PUSH1 0x20 ADD SWAP1 DUP2 MSTORE PUSH1 0x20 ADD PUSH1 0x0 KECCAK256 PUSH1 0x0 PUSH2 0x100 EXP DUP2 SLOAD DUP2 PUSH20 0xFFFFFFFFFFFFFFFFFFFFFFFFFFFFFFFFFFFFFFFF MUL NOT AND SWAP1 DUP4 PUSH20 0xFFFFFFFFFFFFFFFFFFFFFFFFFFFFFFFFFFFFFFFF AND MUL OR SWAP1 SSTORE POP DUP1 DUP3 PUSH20 0xFFFFFFFFFFFFFFFFFFFFFFFFFFFFFFFFFFFFFFFF AND DUP5 PUSH20 0xFFFFFFFFFFFFFFFFFFFFFFFFFFFFFFFFFFFFFFFF AND PUSH32 0xDDF252AD1BE2C89B69C2B068FC378DAA952BA7F163C4A11628F55A4DF523B3EF PUSH1 0x40 MLOAD PUSH1 0x40 MLOAD DUP1 SWAP2 SUB SWAP1 LOG4 PUSH2 0x2D42 DUP4 DUP4 DUP4 PUSH1 0x1 PUSH2 0x34F1 JUMP JUMPDEST POP POP POP JUMP JUMPDEST PUSH2 0x2D4F PUSH2 0x22F7 JUMP JUMPDEST PUSH20 0xFFFFFFFFFFFFFFFFFFFFFFFFFFFFFFFFFFFFFFFF AND PUSH2 0x2D6D PUSH2 0x1888 JUMP JUMPDEST PUSH20 0xFFFFFFFFFFFFFFFFFFFFFFFFFFFFFFFFFFFFFFFF AND EQ PUSH2 0x2DC3 JUMPI PUSH1 0x40 MLOAD PUSH32 0x8C379A000000000000000000000000000000000000000000000000000000000 DUP2 MSTORE PUSH1 0x4 ADD PUSH2 0x2DBA SWAP1 PUSH2 0x53BC JUMP JUMPDEST PUSH1 0x40 MLOAD DUP1 SWAP2 SUB SWAP1 REVERT JUMPDEST JUMP JUMPDEST PUSH2 0x2DCD PUSH2 0x34F7 JUMP JUMPDEST PUSH1 0x0 PUSH1 0x9 PUSH1 0x0 PUSH2 0x100 EXP DUP2 SLOAD DUP2 PUSH1 0xFF MUL NOT AND SWAP1 DUP4 ISZERO ISZERO MUL OR SWAP1 SSTORE POP PUSH32 0x5DB9EE0A495BF2E6FF9C91A7834C1BA4FDD244A5E8AA4E537BD38AEAE4B073AA PUSH2 0x2E11 PUSH2 0x22F7 JUMP JUMPDEST PUSH1 0x40 MLOAD PUSH2 0x2E1E SWAP2 SWAP1 PUSH2 0x3D8F JUMP JUMPDEST PUSH1 0x40 MLOAD DUP1 SWAP2 SUB SWAP1 LOG1 JUMP JUMPDEST PUSH1 0x0 PUSH1 0x2 PUSH1 0x0 DUP4 DUP2 MSTORE PUSH1 0x20 ADD SWAP1 DUP2 MSTORE PUSH1 0x20 ADD PUSH1 0x0 KECCAK256 PUSH1 0x0 SWAP1 SLOAD SWAP1 PUSH2 0x100 EXP SWAP1 DIV PUSH20 0xFFFFFFFFFFFFFFFFFFFFFFFFFFFFFFFFFFFFFFFF AND SWAP1 POP SWAP2 SWAP1 POP JUMP JUMPDEST PUSH1 0x0 PUSH1 0x9 PUSH1 0x1 SWAP1 SLOAD SWAP1 PUSH2 0x100 EXP SWAP1 DIV PUSH20 0xFFFFFFFFFFFFFFFFFFFFFFFFFFFFFFFFFFFFFFFF AND SWAP1 POP DUP2 PUSH1 0x9 PUSH1 0x1 PUSH2 0x100 EXP DUP2 SLOAD DUP2 PUSH20 0xFFFFFFFFFFFFFFFFFFFFFFFFFFFFFFFFFFFFFFFF MUL NOT AND SWAP1 DUP4 PUSH20 0xFFFFFFFFFFFFFFFFFFFFFFFFFFFFFFFFFFFFFFFF AND MUL OR SWAP1 SSTORE POP DUP2 PUSH20 0xFFFFFFFFFFFFFFFFFFFFFFFFFFFFFFFFFFFFFFFF AND DUP2 PUSH20 0xFFFFFFFFFFFFFFFFFFFFFFFFFFFFFFFFFFFFFFFF AND PUSH32 0x8BE0079C531659141344CD1FD0A4F28419497F9722A3DAAFE3B4186F6B6457E0 PUSH1 0x40 MLOAD PUSH1 0x40 MLOAD DUP1 SWAP2 SUB SWAP1 LOG3 POP POP JUMP JUMPDEST PUSH2 0x2F33 PUSH2 0x24DD JUMP JUMPDEST PUSH1 0x1 PUSH1 0x9 PUSH1 0x0 PUSH2 0x100 EXP DUP2 SLOAD DUP2 PUSH1 0xFF MUL NOT AND SWAP1 DUP4 ISZERO ISZERO MUL OR SWAP1 SSTORE POP PUSH32 0x62E78CEA01BEE320CD4E420270B5EA74000D11B0C9F74754EBDBFC544B05A258 PUSH2 0x2F77 PUSH2 0x22F7 JUMP JUMPDEST PUSH1 0x40 MLOAD PUSH2 0x2F84 SWAP2 SWAP1 PUSH2 0x3D8F JUMP JUMPDEST PUSH1 0x40 MLOAD DUP1 SWAP2 SUB SWAP1 LOG1 JUMP JUMPDEST DUP2 PUSH20 0xFFFFFFFFFFFFFFFFFFFFFFFFFFFFFFFFFFFFFFFF AND DUP4 PUSH20 0xFFFFFFFFFFFFFFFFFFFFFFFFFFFFFFFFFFFFFFFF AND SUB PUSH2 0x2FFC JUMPI PUSH1 0x40 MLOAD PUSH32 0x8C379A000000000000000000000000000000000000000000000000000000000 DUP2 MSTORE PUSH1 0x4 ADD PUSH2 0x2FF3 SWAP1 PUSH2 0x5428 JUMP JUMPDEST PUSH1 0x40 MLOAD DUP1 SWAP2 SUB SWAP1 REVERT JUMPDEST DUP1 PUSH1 0x5 PUSH1 0x0 DUP6 PUSH20 0xFFFFFFFFFFFFFFFFFFFFFFFFFFFFFFFFFFFFFFFF AND PUSH20 0xFFFFFFFFFFFFFFFFFFFFFFFFFFFFFFFFFFFFFFFF AND DUP2 MSTORE PUSH1 0x20 ADD SWAP1 DUP2 MSTORE PUSH1 0x20 ADD PUSH1 0x0 KECCAK256 PUSH1 0x0 DUP5 PUSH20 0xFFFFFFFFFFFFFFFFFFFFFFFFFFFFFFFFFFFFFFFF AND PUSH20 0xFFFFFFFFFFFFFFFFFFFFFFFFFFFFFFFFFFFFFFFF AND DUP2 MSTORE PUSH1 0x20 ADD SWAP1 DUP2 MSTORE PUSH1 0x20 ADD PUSH1 0x0 KECCAK256 PUSH1 0x0 PUSH2 0x100 EXP DUP2 SLOAD DUP2 PUSH1 0xFF MUL NOT AND SWAP1 DUP4 ISZERO ISZERO MUL OR SWAP1 SSTORE POP DUP2 PUSH20 0xFFFFFFFFFFFFFFFFFFFFFFFFFFFFFFFFFFFFFFFF AND DUP4 PUSH20 0xFFFFFFFFFFFFFFFFFFFFFFFFFFFFFFFFFFFFFFFF AND PUSH32 0x17307EAB39AB6107E8899845AD3D59BD9653F200F220920489CA2B5937696C31 DUP4 PUSH1 0x40 MLOAD PUSH2 0x30ED SWAP2 SWAP1 PUSH2 0x3C1E JUMP JUMPDEST PUSH1 0x40 MLOAD DUP1 SWAP2 SUB SWAP1 LOG3 POP POP POP JUMP JUMPDEST PUSH2 0x3105 DUP5 DUP5 DUP5 PUSH2 0x2A4E JUMP JUMPDEST PUSH2 0x3111 DUP5 DUP5 DUP5 DUP5 PUSH2 0x3540 JUMP JUMPDEST PUSH2 0x3150 JUMPI PUSH1 0x40 MLOAD PUSH32 0x8C379A000000000000000000000000000000000000000000000000000000000 DUP2 MSTORE PUSH1 0x4 ADD PUSH2 0x3147 SWAP1 PUSH2 0x54BA JUMP JUMPDEST PUSH1 0x40 MLOAD DUP1 SWAP2 SUB SWAP1 REVERT JUMPDEST POP POP POP POP JUMP JUMPDEST PUSH1 0x60 PUSH1 0x40 MLOAD DUP1 PUSH1 0x20 ADD PUSH1 0x40 MSTORE DUP1 PUSH1 0x0 DUP2 MSTORE POP SWAP1 POP SWAP1 JUMP JUMPDEST PUSH1 0x60 PUSH1 0x0 PUSH1 0x1 PUSH2 0x317C DUP5 PUSH2 0x36C7 JUMP JUMPDEST ADD SWAP1 POP PUSH1 0x0 DUP2 PUSH8 0xFFFFFFFFFFFFFFFF DUP2 GT ISZERO PUSH2 0x319B JUMPI PUSH2 0x319A PUSH2 0x3E20 JUMP JUMPDEST JUMPDEST PUSH1 0x40 MLOAD SWAP1 DUP1 DUP3 MSTORE DUP1 PUSH1 0x1F ADD PUSH1 0x1F NOT AND PUSH1 0x20 ADD DUP3 ADD PUSH1 0x40 MSTORE DUP1 ISZERO PUSH2 0x31CD JUMPI DUP2 PUSH1 0x20 ADD PUSH1 0x1 DUP3 MUL DUP1 CALLDATASIZE DUP4 CALLDATACOPY DUP1 DUP3 ADD SWAP2 POP POP SWAP1 POP JUMPDEST POP SWAP1 POP PUSH1 0x0 DUP3 PUSH1 0x20 ADD DUP3 ADD SWAP1 POP JUMPDEST PUSH1 0x1 ISZERO PUSH2 0x3230 JUMPI DUP1 DUP1 PUSH1 0x1 SWAP1 SUB SWAP2 POP POP PUSH32 0x3031323334353637383961626364656600000000000000000000000000000000 PUSH1 0xA DUP7 MOD BYTE DUP2 MSTORE8 PUSH1 0xA DUP6 DUP2 PUSH2 0x3224 JUMPI PUSH2 0x3223 PUSH2 0x54DA JUMP JUMPDEST JUMPDEST DIV SWAP5 POP PUSH1 0x0 DUP6 SUB PUSH2 0x31DB JUMPI JUMPDEST DUP2 SWAP4 POP POP POP POP SWAP2 SWAP1 POP JUMP JUMPDEST PUSH1 0x0 PUSH1 0x5 PUSH1 0x0 DUP5 PUSH20 0xFFFFFFFFFFFFFFFFFFFFFFFFFFFFFFFFFFFFFFFF AND PUSH20 0xFFFFFFFFFFFFFFFFFFFFFFFFFFFFFFFFFFFFFFFF AND DUP2 MSTORE PUSH1 0x20 ADD SWAP1 DUP2 MSTORE PUSH1 0x20 ADD PUSH1 0x0 KECCAK256 PUSH1 0x0 DUP4 PUSH20 0xFFFFFFFFFFFFFFFFFFFFFFFFFFFFFFFFFFFFFFFF AND PUSH20 0xFFFFFFFFFFFFFFFFFFFFFFFFFFFFFFFFFFFFFFFF AND DUP2 MSTORE PUSH1 0x20 ADD SWAP1 DUP2 MSTORE PUSH1 0x20 ADD PUSH1 0x0 KECCAK256 PUSH1 0x0 SWAP1 SLOAD SWAP1 PUSH2 0x100 EXP SWAP1 DIV PUSH1 0xFF AND SWAP1 POP SWAP3 SWAP2 POP POP JUMP JUMPDEST PUSH1 0x0 PUSH1 0x40 MLOAD DUP1 PUSH1 0x80 ADD PUSH1 0x40 MSTORE DUP1 PUSH1 0x43 DUP2 MSTORE PUSH1 0x20 ADD PUSH2 0x5759 PUSH1 0x43 SWAP2 CODECOPY DUP1 MLOAD SWAP1 PUSH1 0x20 ADD KECCAK256 DUP3 PUSH1 0x0 ADD MLOAD DUP4 PUSH1 0x20 ADD MLOAD DUP5 PUSH1 0x40 ADD MLOAD DUP1 MLOAD SWAP1 PUSH1 0x20 ADD KECCAK256 PUSH1 0x40 MLOAD PUSH1 0x20 ADD PUSH2 0x331A SWAP5 SWAP4 SWAP3 SWAP2 SWAP1 PUSH2 0x5509 JUMP JUMPDEST PUSH1 0x40 MLOAD PUSH1 0x20 DUP2 DUP4 SUB SUB DUP2 MSTORE SWAP1 PUSH1 0x40 MSTORE DUP1 MLOAD SWAP1 PUSH1 0x20 ADD KECCAK256 SWAP1 POP SWAP2 SWAP1 POP JUMP JUMPDEST PUSH1 0x0 PUSH2 0x3341 PUSH2 0x1267 JUMP JUMPDEST DUP3 PUSH1 0x40 MLOAD PUSH1 0x20 ADD PUSH2 0x3353 SWAP3 SWAP2 SWAP1 PUSH2 0x55BB JUMP JUMPDEST PUSH1 0x40 MLOAD PUSH1 0x20 DUP2 DUP4 SUB SUB DUP2 MSTORE SWAP1 PUSH1 0x40 MSTORE DUP1 MLOAD SWAP1 PUSH1 0x20 ADD KECCAK256 SWAP1 POP SWAP2 SWAP1 POP JUMP JUMPDEST PUSH2 0x337A DUP4 DUP4 PUSH2 0x381A JUMP JUMPDEST PUSH2 0x3387 PUSH1 0x0 DUP5 DUP5 DUP5 PUSH2 0x3540 JUMP JUMPDEST PUSH2 0x33C6 JUMPI PUSH1 0x40 MLOAD PUSH32 0x8C379A000000000000000000000000000000000000000000000000000000000 DUP2 MSTORE PUSH1 0x4 ADD PUSH2 0x33BD SWAP1 PUSH2 0x54BA JUMP JUMPDEST PUSH1 0x40 MLOAD DUP1 SWAP2 SUB SWAP1 REVERT JUMPDEST POP POP POP JUMP JUMPDEST PUSH1 0x1 DUP2 GT ISZERO PUSH2 0x34EB JUMPI PUSH1 0x0 PUSH20 0xFFFFFFFFFFFFFFFFFFFFFFFFFFFFFFFFFFFFFFFF AND DUP5 PUSH20 0xFFFFFFFFFFFFFFFFFFFFFFFFFFFFFFFFFFFFFFFF AND EQ PUSH2 0x345F JUMPI DUP1 PUSH1 0x3 PUSH1 0x0 DUP7 PUSH20 0xFFFFFFFFFFFFFFFFFFFFFFFFFFFFFFFFFFFFFFFF AND PUSH20 0xFFFFFFFFFFFFFFFFFFFFFFFFFFFFFFFFFFFFFFFF AND DUP2 MSTORE PUSH1 0x20 ADD SWAP1 DUP2 MSTORE PUSH1 0x20 ADD PUSH1 0x0 KECCAK256 PUSH1 0x0 DUP3 DUP3 SLOAD PUSH2 0x3457 SWAP2 SWAP1 PUSH2 0x4B0F JUMP JUMPDEST SWAP3 POP POP DUP2 SWAP1 SSTORE POP JUMPDEST PUSH1 0x0 PUSH20 0xFFFFFFFFFFFFFFFFFFFFFFFFFFFFFFFFFFFFFFFF AND DUP4 PUSH20 0xFFFFFFFFFFFFFFFFFFFFFFFFFFFFFFFFFFFFFFFF AND EQ PUSH2 0x34EA JUMPI DUP1 PUSH1 0x3 PUSH1 0x0 DUP6 PUSH20 0xFFFFFFFFFFFFFFFFFFFFFFFFFFFFFFFFFFFFFFFF AND PUSH20 0xFFFFFFFFFFFFFFFFFFFFFFFFFFFFFFFFFFFFFFFF AND DUP2 MSTORE PUSH1 0x20 ADD SWAP1 DUP2 MSTORE PUSH1 0x20 ADD PUSH1 0x0 KECCAK256 PUSH1 0x0 DUP3 DUP3 SLOAD PUSH2 0x34E2 SWAP2 SWAP1 PUSH2 0x5133 JUMP JUMPDEST SWAP3 POP POP DUP2 SWAP1 SSTORE POP JUMPDEST JUMPDEST POP POP POP POP JUMP JUMPDEST POP POP POP POP JUMP JUMPDEST PUSH2 0x34FF PUSH2 0x160D JUMP JUMPDEST PUSH2 0x353E JUMPI PUSH1 0x40 MLOAD PUSH32 0x8C379A000000000000000000000000000000000000000000000000000000000 DUP2 MSTORE PUSH1 0x4 ADD PUSH2 0x3535 SWAP1 PUSH2 0x563E JUMP JUMPDEST PUSH1 0x40 MLOAD DUP1 SWAP2 SUB SWAP1 REVERT JUMPDEST JUMP JUMPDEST PUSH1 0x0 PUSH2 0x3561 DUP5 PUSH20 0xFFFFFFFFFFFFFFFFFFFFFFFFFFFFFFFFFFFFFFFF AND PUSH2 0x3A37 JUMP JUMPDEST ISZERO PUSH2 0x36BA JUMPI DUP4 PUSH20 0xFFFFFFFFFFFFFFFFFFFFFFFFFFFFFFFFFFFFFFFF AND PUSH4 0x150B7A02 PUSH2 0x358A PUSH2 0x22F7 JUMP JUMPDEST DUP8 DUP7 DUP7 PUSH1 0x40 MLOAD DUP6 PUSH4 0xFFFFFFFF AND PUSH1 0xE0 SHL DUP2 MSTORE PUSH1 0x4 ADD PUSH2 0x35AC SWAP5 SWAP4 SWAP3 SWAP2 SWAP1 PUSH2 0x565E JUMP JUMPDEST PUSH1 0x20 PUSH1 0x40 MLOAD DUP1 DUP4 SUB DUP2 PUSH1 0x0 DUP8 GAS CALL SWAP3 POP POP POP DUP1 ISZERO PUSH2 0x35E8 JUMPI POP PUSH1 0x40 MLOAD RETURNDATASIZE PUSH1 0x1F NOT PUSH1 0x1F DUP3 ADD AND DUP3 ADD DUP1 PUSH1 0x40 MSTORE POP DUP2 ADD SWAP1 PUSH2 0x35E5 SWAP2 SWAP1 PUSH2 0x56BF JUMP JUMPDEST PUSH1 0x1 JUMPDEST PUSH2 0x366A JUMPI RETURNDATASIZE DUP1 PUSH1 0x0 DUP2 EQ PUSH2 0x3618 JUMPI PUSH1 0x40 MLOAD SWAP2 POP PUSH1 0x1F NOT PUSH1 0x3F RETURNDATASIZE ADD AND DUP3 ADD PUSH1 0x40 MSTORE RETURNDATASIZE DUP3 MSTORE RETURNDATASIZE PUSH1 0x0 PUSH1 0x20 DUP5 ADD RETURNDATACOPY PUSH2 0x361D JUMP JUMPDEST PUSH1 0x60 SWAP2 POP JUMPDEST POP PUSH1 0x0 DUP2 MLOAD SUB PUSH2 0x3662 JUMPI PUSH1 0x40 MLOAD PUSH32 0x8C379A000000000000000000000000000000000000000000000000000000000 DUP2 MSTORE PUSH1 0x4 ADD PUSH2 0x3659 SWAP1 PUSH2 0x54BA JUMP JUMPDEST PUSH1 0x40 MLOAD DUP1 SWAP2 SUB SWAP1 REVERT JUMPDEST DUP1 MLOAD DUP2 PUSH1 0x20 ADD REVERT JUMPDEST PUSH4 0x150B7A02 PUSH1 0xE0 SHL PUSH28 0xFFFFFFFFFFFFFFFFFFFFFFFFFFFFFFFFFFFFFFFFFFFFFFFFFFFFFFFF NOT AND DUP2 PUSH28 0xFFFFFFFFFFFFFFFFFFFFFFFFFFFFFFFFFFFFFFFFFFFFFFFFFFFFFFFF NOT AND EQ SWAP2 POP POP PUSH2 0x36BF JUMP JUMPDEST PUSH1 0x1 SWAP1 POP JUMPDEST SWAP5 SWAP4 POP POP POP POP JUMP JUMPDEST PUSH1 0x0 DUP1 PUSH1 0x0 SWAP1 POP PUSH27 0x184F03E93FF9F4DAA797ED6E38ED64BF6A1F010000000000000000 DUP4 LT PUSH2 0x3725 JUMPI PUSH27 0x184F03E93FF9F4DAA797ED6E38ED64BF6A1F010000000000000000 DUP4 DUP2 PUSH2 0x371B JUMPI PUSH2 0x371A PUSH2 0x54DA JUMP JUMPDEST JUMPDEST DIV SWAP3 POP PUSH1 0x40 DUP2 ADD SWAP1 POP JUMPDEST PUSH14 0x4EE2D6D415B85ACEF8100000000 DUP4 LT PUSH2 0x3762 JUMPI PUSH14 0x4EE2D6D415B85ACEF8100000000 DUP4 DUP2 PUSH2 0x3758 JUMPI PUSH2 0x3757 PUSH2 0x54DA JUMP JUMPDEST JUMPDEST DIV SWAP3 POP PUSH1 0x20 DUP2 ADD SWAP1 POP JUMPDEST PUSH7 0x2386F26FC10000 DUP4 LT PUSH2 0x3791 JUMPI PUSH7 0x2386F26FC10000 DUP4 DUP2 PUSH2 0x3787 JUMPI PUSH2 0x3786 PUSH2 0x54DA JUMP JUMPDEST JUMPDEST DIV SWAP3 POP PUSH1 0x10 DUP2 ADD SWAP1 POP JUMPDEST PUSH4 0x5F5E100 DUP4 LT PUSH2 0x37BA JUMPI PUSH4 0x5F5E100 DUP4 DUP2 PUSH2 0x37B0 JUMPI PUSH2 0x37AF PUSH2 0x54DA JUMP JUMPDEST JUMPDEST DIV SWAP3 POP PUSH1 0x8 DUP2 ADD SWAP1 POP JUMPDEST PUSH2 0x2710 DUP4 LT PUSH2 0x37DF JUMPI PUSH2 0x2710 DUP4 DUP2 PUSH2 0x37D5 JUMPI PUSH2 0x37D4 PUSH2 0x54DA JUMP JUMPDEST JUMPDEST DIV SWAP3 POP PUSH1 0x4 DUP2 ADD SWAP1 POP JUMPDEST PUSH1 0x64 DUP4 LT PUSH2 0x3802 JUMPI PUSH1 0x64 DUP4 DUP2 PUSH2 0x37F8 JUMPI PUSH2 0x37F7 PUSH2 0x54DA JUMP JUMPDEST JUMPDEST DIV SWAP3 POP PUSH1 0x2 DUP2 ADD SWAP1 POP JUMPDEST PUSH1 0xA DUP4 LT PUSH2 0x3811 JUMPI PUSH1 0x1 DUP2 ADD SWAP1 POP JUMPDEST DUP1 SWAP2 POP POP SWAP2 SWAP1 POP JUMP JUMPDEST PUSH1 0x0 PUSH20 0xFFFFFFFFFFFFFFFFFFFFFFFFFFFFFFFFFFFFFFFF AND DUP3 PUSH20 0xFFFFFFFFFFFFFFFFFFFFFFFFFFFFFFFFFFFFFFFF AND SUB PUSH2 0x3889 JUMPI PUSH1 0x40 MLOAD PUSH32 0x8C379A000000000000000000000000000000000000000000000000000000000 DUP2 MSTORE PUSH1 0x4 ADD PUSH2 0x3880 SWAP1 PUSH2 0x5738 JUMP JUMPDEST PUSH1 0x40 MLOAD DUP1 SWAP2 SUB SWAP1 REVERT JUMPDEST PUSH2 0x3892 DUP2 PUSH2 0x2527 JUMP JUMPDEST ISZERO PUSH2 0x38D2 JUMPI PUSH1 0x40 MLOAD PUSH32 0x8C379A000000000000000000000000000000000000000000000000000000000 DUP2 MSTORE PUSH1 0x4 ADD PUSH2 0x38C9 SWAP1 PUSH2 0x4AC0 JUMP JUMPDEST PUSH1 0x40 MLOAD DUP1 SWAP2 SUB SWAP1 REVERT JUMPDEST PUSH2 0x38E0 PUSH1 0x0 DUP4 DUP4 PUSH1 0x1 PUSH2 0x33CB JUMP JUMPDEST PUSH2 0x38E9 DUP2 PUSH2 0x2527 JUMP JUMPDEST ISZERO PUSH2 0x3929 JUMPI PUSH1 0x40 MLOAD PUSH32 0x8C379A000000000000000000000000000000000000000000000000000000000 DUP2 MSTORE PUSH1 0x4 ADD PUSH2 0x3920 SWAP1 PUSH2 0x4AC0 JUMP JUMPDEST PUSH1 0x40 MLOAD DUP1 SWAP2 SUB SWAP1 REVERT JUMPDEST PUSH1 0x1 PUSH1 0x3 PUSH1 0x0 DUP5 PUSH20 0xFFFFFFFFFFFFFFFFFFFFFFFFFFFFFFFFFFFFFFFF AND PUSH20 0xFFFFFFFFFFFFFFFFFFFFFFFFFFFFFFFFFFFFFFFF AND DUP2 MSTORE PUSH1 0x20 ADD SWAP1 DUP2 MSTORE PUSH1 0x20 ADD PUSH1 0x0 KECCAK256 PUSH1 0x0 DUP3 DUP3 SLOAD ADD SWAP3 POP POP DUP2 SWAP1 SSTORE POP DUP2 PUSH1 0x2 PUSH1 0x0 DUP4 DUP2 MSTORE PUSH1 0x20 ADD SWAP1 DUP2 MSTORE PUSH1 0x20 ADD PUSH1 0x0 KECCAK256 PUSH1 0x0 PUSH2 0x100 EXP DUP2 SLOAD DUP2 PUSH20 0xFFFFFFFFFFFFFFFFFFFFFFFFFFFFFFFFFFFFFFFF MUL NOT AND SWAP1 DUP4 PUSH20 0xFFFFFFFFFFFFFFFFFFFFFFFFFFFFFFFFFFFFFFFF AND MUL OR SWAP1 SSTORE POP DUP1 DUP3 PUSH20 0xFFFFFFFFFFFFFFFFFFFFFFFFFFFFFFFFFFFFFFFF AND PUSH1 0x0 PUSH20 0xFFFFFFFFFFFFFFFFFFFFFFFFFFFFFFFFFFFFFFFF AND PUSH32 0xDDF252AD1BE2C89B69C2B068FC378DAA952BA7F163C4A11628F55A4DF523B3EF PUSH1 0x40 MLOAD PUSH1 0x40 MLOAD DUP1 SWAP2 SUB SWAP1 LOG4 PUSH2 0x3A33 PUSH1 0x0 DUP4 DUP4 PUSH1 0x1 PUSH2 0x34F1 JUMP JUMPDEST POP POP JUMP JUMPDEST PUSH1 0x0 DUP1 DUP3 PUSH20 0xFFFFFFFFFFFFFFFFFFFFFFFFFFFFFFFFFFFFFFFF AND EXTCODESIZE GT SWAP1 POP SWAP2 SWAP1 POP JUMP JUMPDEST DUP3 DUP1 SLOAD DUP3 DUP3 SSTORE SWAP1 PUSH1 0x0 MSTORE PUSH1 0x20 PUSH1 0x0 KECCAK256 SWAP1 PUSH1 0x1F ADD PUSH1 0x20 SWAP1 DIV DUP2 ADD SWAP3 DUP3 ISZERO PUSH2 0x3AEF JUMPI SWAP2 PUSH1 0x20 MUL DUP3 ADD PUSH1 0x0 JUMPDEST DUP4 DUP3 GT ISZERO PUSH2 0x3AC0 JUMPI DUP4 MLOAD DUP4 DUP3 PUSH2 0x100 EXP DUP2 SLOAD DUP2 PUSH1 0xFF MUL NOT AND SWAP1 DUP4 ISZERO ISZERO MUL OR SWAP1 SSTORE POP SWAP3 PUSH1 0x20 ADD SWAP3 PUSH1 0x1 ADD PUSH1 0x20 DUP2 PUSH1 0x0 ADD DIV SWAP3 DUP4 ADD SWAP3 PUSH1 0x1 SUB MUL PUSH2 0x3A83 JUMP JUMPDEST DUP1 ISZERO PUSH2 0x3AED JUMPI DUP3 DUP2 PUSH2 0x100 EXP DUP2 SLOAD SWAP1 PUSH1 0xFF MUL NOT AND SWAP1 SSTORE PUSH1 0x1 ADD PUSH1 0x20 DUP2 PUSH1 0x0 ADD DIV SWAP3 DUP4 ADD SWAP3 PUSH1 0x1 SUB MUL PUSH2 0x3AC0 JUMP JUMPDEST POP JUMPDEST POP SWAP1 POP PUSH2 0x3AFC SWAP2 SWAP1 PUSH2 0x3B4D JUMP JUMPDEST POP SWAP1 JUMP JUMPDEST DUP3 DUP1 SLOAD DUP3 DUP3 SSTORE SWAP1 PUSH1 0x0 MSTORE PUSH1 0x20 PUSH1 0x0 KECCAK256 SWAP1 DUP2 ADD SWAP3 DUP3 ISZERO PUSH2 0x3B3C JUMPI SWAP2 PUSH1 0x20 MUL DUP3 ADD JUMPDEST DUP3 DUP2 GT ISZERO PUSH2 0x3B3B JUMPI DUP3 MLOAD DUP3 SSTORE SWAP2 PUSH1 0x20 ADD SWAP2 SWAP1 PUSH1 0x1 ADD SWAP1 PUSH2 0x3B20 JUMP JUMPDEST JUMPDEST POP SWAP1 POP PUSH2 0x3B49 SWAP2 SWAP1 PUSH2 0x3B4D JUMP JUMPDEST POP SWAP1 JUMP JUMPDEST JUMPDEST DUP1 DUP3 GT ISZERO PUSH2 0x3B66 JUMPI PUSH1 0x0 DUP2 PUSH1 0x0 SWAP1 SSTORE POP PUSH1 0x1 ADD PUSH2 0x3B4E JUMP JUMPDEST POP SWAP1 JUMP JUMPDEST PUSH1 0x0 PUSH1 0x40 MLOAD SWAP1 POP SWAP1 JUMP JUMPDEST PUSH1 0x0 DUP1 REVERT JUMPDEST PUSH1 0x0 DUP1 REVERT JUMPDEST PUSH1 0x0 PUSH32 0xFFFFFFFF00000000000000000000000000000000000000000000000000000000 DUP3 AND SWAP1 POP SWAP2 SWAP1 POP JUMP JUMPDEST PUSH2 0x3BB3 DUP2 PUSH2 0x3B7E JUMP JUMPDEST DUP2 EQ PUSH2 0x3BBE JUMPI PUSH1 0x0 DUP1 REVERT JUMPDEST POP JUMP JUMPDEST PUSH1 0x0 DUP2 CALLDATALOAD SWAP1 POP PUSH2 0x3BD0 DUP2 PUSH2 0x3BAA JUMP JUMPDEST SWAP3 SWAP2 POP POP JUMP JUMPDEST PUSH1 0x0 PUSH1 0x20 DUP3 DUP5 SUB SLT ISZERO PUSH2 0x3BEC JUMPI PUSH2 0x3BEB PUSH2 0x3B74 JUMP JUMPDEST JUMPDEST PUSH1 0x0 PUSH2 0x3BFA DUP5 DUP3 DUP6 ADD PUSH2 0x3BC1 JUMP JUMPDEST SWAP2 POP POP SWAP3 SWAP2 POP POP JUMP JUMPDEST PUSH1 0x0 DUP2 ISZERO ISZERO SWAP1 POP SWAP2 SWAP1 POP JUMP JUMPDEST PUSH2 0x3C18 DUP2 PUSH2 0x3C03 JUMP JUMPDEST DUP3 MSTORE POP POP JUMP JUMPDEST PUSH1 0x0 PUSH1 0x20 DUP3 ADD SWAP1 POP PUSH2 0x3C33 PUSH1 0x0 DUP4 ADD DUP5 PUSH2 0x3C0F JUMP JUMPDEST SWAP3 SWAP2 POP POP JUMP JUMPDEST PUSH1 0x0 DUP2 MLOAD SWAP1 POP SWAP2 SWAP1 POP JUMP JUMPDEST PUSH1 0x0 DUP3 DUP3 MSTORE PUSH1 0x20 DUP3 ADD SWAP1 POP SWAP3 SWAP2 POP POP JUMP JUMPDEST PUSH1 0x0 JUMPDEST DUP4 DUP2 LT ISZERO PUSH2 0x3C73 JUMPI DUP1 DUP3 ADD MLOAD DUP2 DUP5 ADD MSTORE PUSH1 0x20 DUP2 ADD SWAP1 POP PUSH2 0x3C58 JUMP JUMPDEST PUSH1 0x0 DUP5 DUP5 ADD MSTORE POP POP POP POP JUMP JUMPDEST PUSH1 0x0 PUSH1 0x1F NOT PUSH1 0x1F DUP4 ADD AND SWAP1 POP SWAP2 SWAP1 POP JUMP JUMPDEST PUSH1 0x0 PUSH2 0x3C9B DUP3 PUSH2 0x3C39 JUMP JUMPDEST PUSH2 0x3CA5 DUP2 DUP6 PUSH2 0x3C44 JUMP JUMPDEST SWAP4 POP PUSH2 0x3CB5 DUP2 DUP6 PUSH1 0x20 DUP7 ADD PUSH2 0x3C55 JUMP JUMPDEST PUSH2 0x3CBE DUP2 PUSH2 0x3C7F JUMP JUMPDEST DUP5 ADD SWAP2 POP POP SWAP3 SWAP2 POP POP JUMP JUMPDEST PUSH1 0x0 PUSH1 0x20 DUP3 ADD SWAP1 POP DUP2 DUP2 SUB PUSH1 0x0 DUP4 ADD MSTORE PUSH2 0x3CE3 DUP2 DUP5 PUSH2 0x3C90 JUMP JUMPDEST SWAP1 POP SWAP3 SWAP2 POP POP JUMP JUMPDEST PUSH1 0x0 DUP2 SWAP1 POP SWAP2 SWAP1 POP JUMP JUMPDEST PUSH2 0x3CFE DUP2 PUSH2 0x3CEB JUMP JUMPDEST DUP2 EQ PUSH2 0x3D09 JUMPI PUSH1 0x0 DUP1 REVERT JUMPDEST POP JUMP JUMPDEST PUSH1 0x0 DUP2 CALLDATALOAD SWAP1 POP PUSH2 0x3D1B DUP2 PUSH2 0x3CF5 JUMP JUMPDEST SWAP3 SWAP2 POP POP JUMP JUMPDEST PUSH1 0x0 PUSH1 0x20 DUP3 DUP5 SUB SLT ISZERO PUSH2 0x3D37 JUMPI PUSH2 0x3D36 PUSH2 0x3B74 JUMP JUMPDEST JUMPDEST PUSH1 0x0 PUSH2 0x3D45 DUP5 DUP3 DUP6 ADD PUSH2 0x3D0C JUMP JUMPDEST SWAP2 POP POP SWAP3 SWAP2 POP POP JUMP JUMPDEST PUSH1 0x0 PUSH20 0xFFFFFFFFFFFFFFFFFFFFFFFFFFFFFFFFFFFFFFFF DUP3 AND SWAP1 POP SWAP2 SWAP1 POP JUMP JUMPDEST PUSH1 0x0 PUSH2 0x3D79 DUP3 PUSH2 0x3D4E JUMP JUMPDEST SWAP1 POP SWAP2 SWAP1 POP JUMP JUMPDEST PUSH2 0x3D89 DUP2 PUSH2 0x3D6E JUMP JUMPDEST DUP3 MSTORE POP POP JUMP JUMPDEST PUSH1 0x0 PUSH1 0x20 DUP3 ADD SWAP1 POP PUSH2 0x3DA4 PUSH1 0x0 DUP4 ADD DUP5 PUSH2 0x3D80 JUMP JUMPDEST SWAP3 SWAP2 POP POP JUMP JUMPDEST PUSH2 0x3DB3 DUP2 PUSH2 0x3D6E JUMP JUMPDEST DUP2 EQ PUSH2 0x3DBE JUMPI PUSH1 0x0 DUP1 REVERT JUMPDEST POP JUMP JUMPDEST PUSH1 0x0 DUP2 CALLDATALOAD SWAP1 POP PUSH2 0x3DD0 DUP2 PUSH2 0x3DAA JUMP JUMPDEST SWAP3 SWAP2 POP POP JUMP JUMPDEST PUSH1 0x0 DUP1 PUSH1 0x40 DUP4 DUP6 SUB SLT ISZERO PUSH2 0x3DED JUMPI PUSH2 0x3DEC PUSH2 0x3B74 JUMP JUMPDEST JUMPDEST PUSH1 0x0 PUSH2 0x3DFB DUP6 DUP3 DUP7 ADD PUSH2 0x3DC1 JUMP JUMPDEST SWAP3 POP POP PUSH1 0x20 PUSH2 0x3E0C DUP6 DUP3 DUP7 ADD PUSH2 0x3D0C JUMP JUMPDEST SWAP2 POP POP SWAP3 POP SWAP3 SWAP1 POP JUMP JUMPDEST PUSH1 0x0 DUP1 REVERT JUMPDEST PUSH1 0x0 DUP1 REVERT JUMPDEST PUSH32 0x4E487B7100000000000000000000000000000000000000000000000000000000 PUSH1 0x0 MSTORE PUSH1 0x41 PUSH1 0x4 MSTORE PUSH1 0x24 PUSH1 0x0 REVERT JUMPDEST PUSH2 0x3E58 DUP3 PUSH2 0x3C7F JUMP JUMPDEST DUP2 ADD DUP2 DUP2 LT PUSH8 0xFFFFFFFFFFFFFFFF DUP3 GT OR ISZERO PUSH2 0x3E77 JUMPI PUSH2 0x3E76 PUSH2 0x3E20 JUMP JUMPDEST JUMPDEST DUP1 PUSH1 0x40 MSTORE POP POP POP JUMP JUMPDEST PUSH1 0x0 PUSH2 0x3E8A PUSH2 0x3B6A JUMP JUMPDEST SWAP1 POP PUSH2 0x3E96 DUP3 DUP3 PUSH2 0x3E4F JUMP JUMPDEST SWAP2 SWAP1 POP JUMP JUMPDEST PUSH1 0x0 PUSH8 0xFFFFFFFFFFFFFFFF DUP3 GT ISZERO PUSH2 0x3EB6 JUMPI PUSH2 0x3EB5 PUSH2 0x3E20 JUMP JUMPDEST JUMPDEST PUSH2 0x3EBF DUP3 PUSH2 0x3C7F JUMP JUMPDEST SWAP1 POP PUSH1 0x20 DUP2 ADD SWAP1 POP SWAP2 SWAP1 POP JUMP JUMPDEST DUP3 DUP2 DUP4 CALLDATACOPY PUSH1 0x0 DUP4 DUP4 ADD MSTORE POP POP POP JUMP JUMPDEST PUSH1 0x0 PUSH2 0x3EEE PUSH2 0x3EE9 DUP5 PUSH2 0x3E9B JUMP JUMPDEST PUSH2 0x3E80 JUMP JUMPDEST SWAP1 POP DUP3 DUP2 MSTORE PUSH1 0x20 DUP2 ADD DUP5 DUP5 DUP5 ADD GT ISZERO PUSH2 0x3F0A JUMPI PUSH2 0x3F09 PUSH2 0x3E1B JUMP JUMPDEST JUMPDEST PUSH2 0x3F15 DUP5 DUP3 DUP6 PUSH2 0x3ECC JUMP JUMPDEST POP SWAP4 SWAP3 POP POP POP JUMP JUMPDEST PUSH1 0x0 DUP3 PUSH1 0x1F DUP4 ADD SLT PUSH2 0x3F32 JUMPI PUSH2 0x3F31 PUSH2 0x3E16 JUMP JUMPDEST JUMPDEST DUP2 CALLDATALOAD PUSH2 0x3F42 DUP5 DUP3 PUSH1 0x20 DUP7 ADD PUSH2 0x3EDB JUMP JUMPDEST SWAP2 POP POP SWAP3 SWAP2 POP POP JUMP JUMPDEST PUSH1 0x0 DUP2 SWAP1 POP SWAP2 SWAP1 POP JUMP JUMPDEST PUSH2 0x3F5E DUP2 PUSH2 0x3F4B JUMP JUMPDEST DUP2 EQ PUSH2 0x3F69 JUMPI PUSH1 0x0 DUP1 REVERT JUMPDEST POP JUMP JUMPDEST PUSH1 0x0 DUP2 CALLDATALOAD SWAP1 POP PUSH2 0x3F7B DUP2 PUSH2 0x3F55 JUMP JUMPDEST SWAP3 SWAP2 POP POP JUMP JUMPDEST PUSH1 0x0 PUSH1 0xFF DUP3 AND SWAP1 POP SWAP2 SWAP1 POP JUMP JUMPDEST PUSH2 0x3F97 DUP2 PUSH2 0x3F81 JUMP JUMPDEST DUP2 EQ PUSH2 0x3FA2 JUMPI PUSH1 0x0 DUP1 REVERT JUMPDEST POP JUMP JUMPDEST PUSH1 0x0 DUP2 CALLDATALOAD SWAP1 POP PUSH2 0x3FB4 DUP2 PUSH2 0x3F8E JUMP JUMPDEST SWAP3 SWAP2 POP POP JUMP JUMPDEST PUSH1 0x0 DUP1 PUSH1 0x0 DUP1 PUSH1 0x0 PUSH1 0xA0 DUP7 DUP9 SUB SLT ISZERO PUSH2 0x3FD6 JUMPI PUSH2 0x3FD5 PUSH2 0x3B74 JUMP JUMPDEST JUMPDEST PUSH1 0x0 PUSH2 0x3FE4 DUP9 DUP3 DUP10 ADD PUSH2 0x3DC1 JUMP JUMPDEST SWAP6 POP POP PUSH1 0x20 DUP7 ADD CALLDATALOAD PUSH8 0xFFFFFFFFFFFFFFFF DUP2 GT ISZERO PUSH2 0x4005 JUMPI PUSH2 0x4004 PUSH2 0x3B79 JUMP JUMPDEST JUMPDEST PUSH2 0x4011 DUP9 DUP3 DUP10 ADD PUSH2 0x3F1D JUMP JUMPDEST SWAP5 POP POP PUSH1 0x40 PUSH2 0x4022 DUP9 DUP3 DUP10 ADD PUSH2 0x3F6C JUMP JUMPDEST SWAP4 POP POP PUSH1 0x60 PUSH2 0x4033 DUP9 DUP3 DUP10 ADD PUSH2 0x3F6C JUMP JUMPDEST SWAP3 POP POP PUSH1 0x80 PUSH2 0x4044 DUP9 DUP3 DUP10 ADD PUSH2 0x3FA5 JUMP JUMPDEST SWAP2 POP POP SWAP3 SWAP6 POP SWAP3 SWAP6 SWAP1 SWAP4 POP JUMP JUMPDEST PUSH1 0x0 DUP2 MLOAD SWAP1 POP SWAP2 SWAP1 POP JUMP JUMPDEST PUSH1 0x0 DUP3 DUP3 MSTORE PUSH1 0x20 DUP3 ADD SWAP1 POP SWAP3 SWAP2 POP POP JUMP JUMPDEST PUSH1 0x0 PUSH2 0x4078 DUP3 PUSH2 0x4051 JUMP JUMPDEST PUSH2 0x4082 DUP2 DUP6 PUSH2 0x405C JUMP JUMPDEST SWAP4 POP PUSH2 0x4092 DUP2 DUP6 PUSH1 0x20 DUP7 ADD PUSH2 0x3C55 JUMP JUMPDEST PUSH2 0x409B DUP2 PUSH2 0x3C7F JUMP JUMPDEST DUP5 ADD SWAP2 POP POP SWAP3 SWAP2 POP POP JUMP JUMPDEST PUSH1 0x0 PUSH1 0x20 DUP3 ADD SWAP1 POP DUP2 DUP2 SUB PUSH1 0x0 DUP4 ADD MSTORE PUSH2 0x40C0 DUP2 DUP5 PUSH2 0x406D JUMP JUMPDEST SWAP1 POP SWAP3 SWAP2 POP POP JUMP JUMPDEST PUSH2 0x40D1 DUP2 PUSH2 0x3CEB JUMP JUMPDEST DUP3 MSTORE POP POP JUMP JUMPDEST PUSH1 0x0 PUSH1 0x20 DUP3 ADD SWAP1 POP PUSH2 0x40EC PUSH1 0x0 DUP4 ADD DUP5 PUSH2 0x40C8 JUMP JUMPDEST SWAP3 SWAP2 POP POP JUMP JUMPDEST PUSH1 0x0 DUP1 PUSH1 0x40 DUP4 DUP6 SUB SLT ISZERO PUSH2 0x4109 JUMPI PUSH2 0x4108 PUSH2 0x3B74 JUMP JUMPDEST JUMPDEST PUSH1 0x0 PUSH2 0x4117 DUP6 DUP3 DUP7 ADD PUSH2 0x3D0C JUMP JUMPDEST SWAP3 POP POP PUSH1 0x20 PUSH2 0x4128 DUP6 DUP3 DUP7 ADD PUSH2 0x3D0C JUMP JUMPDEST SWAP2 POP POP SWAP3 POP SWAP3 SWAP1 POP JUMP JUMPDEST PUSH2 0x413B DUP2 PUSH2 0x3F4B JUMP JUMPDEST DUP3 MSTORE POP POP JUMP JUMPDEST PUSH1 0x0 PUSH1 0x20 DUP3 ADD SWAP1 POP PUSH2 0x4156 PUSH1 0x0 DUP4 ADD DUP5 PUSH2 0x4132 JUMP JUMPDEST SWAP3 SWAP2 POP POP JUMP JUMPDEST PUSH1 0x0 DUP1 PUSH1 0x0 PUSH1 0x60 DUP5 DUP7 SUB SLT ISZERO PUSH2 0x4175 JUMPI PUSH2 0x4174 PUSH2 0x3B74 JUMP JUMPDEST JUMPDEST PUSH1 0x0 PUSH2 0x4183 DUP7 DUP3 DUP8 ADD PUSH2 0x3DC1 JUMP JUMPDEST SWAP4 POP POP PUSH1 0x20 PUSH2 0x4194 DUP7 DUP3 DUP8 ADD PUSH2 0x3DC1 JUMP JUMPDEST SWAP3 POP POP PUSH1 0x40 PUSH2 0x41A5 DUP7 DUP3 DUP8 ADD PUSH2 0x3D0C JUMP JUMPDEST SWAP2 POP POP SWAP3 POP SWAP3 POP SWAP3 JUMP JUMPDEST PUSH1 0x0 PUSH1 0x20 DUP3 DUP5 SUB SLT ISZERO PUSH2 0x41C5 JUMPI PUSH2 0x41C4 PUSH2 0x3B74 JUMP JUMPDEST JUMPDEST PUSH1 0x0 PUSH2 0x41D3 DUP5 DUP3 DUP6 ADD PUSH2 0x3DC1 JUMP JUMPDEST SWAP2 POP POP SWAP3 SWAP2 POP POP JUMP JUMPDEST PUSH2 0x41E5 DUP2 PUSH2 0x3C03 JUMP JUMPDEST DUP2 EQ PUSH2 0x41F0 JUMPI PUSH1 0x0 DUP1 REVERT JUMPDEST POP JUMP JUMPDEST PUSH1 0x0 DUP2 CALLDATALOAD SWAP1 POP PUSH2 0x4202 DUP2 PUSH2 0x41DC JUMP JUMPDEST SWAP3 SWAP2 POP POP JUMP JUMPDEST PUSH1 0x0 PUSH1 0x20 DUP3 DUP5 SUB SLT ISZERO PUSH2 0x421E JUMPI PUSH2 0x421D PUSH2 0x3B74 JUMP JUMPDEST JUMPDEST PUSH1 0x0 PUSH2 0x422C DUP5 DUP3 DUP6 ADD PUSH2 0x41F3 JUMP JUMPDEST SWAP2 POP POP SWAP3 SWAP2 POP POP JUMP JUMPDEST PUSH1 0x0 DUP1 PUSH1 0x0 PUSH1 0x60 DUP5 DUP7 SUB SLT ISZERO PUSH2 0x424E JUMPI PUSH2 0x424D PUSH2 0x3B74 JUMP JUMPDEST JUMPDEST PUSH1 0x0 PUSH2 0x425C DUP7 DUP3 DUP8 ADD PUSH2 0x3D0C JUMP JUMPDEST SWAP4 POP POP PUSH1 0x20 PUSH2 0x426D DUP7 DUP3 DUP8 ADD PUSH2 0x3D0C JUMP JUMPDEST SWAP3 POP POP PUSH1 0x40 PUSH2 0x427E DUP7 DUP3 DUP8 ADD PUSH2 0x3D0C JUMP JUMPDEST SWAP2 POP POP SWAP3 POP SWAP3 POP SWAP3 JUMP JUMPDEST PUSH1 0x0 PUSH8 0xFFFFFFFFFFFFFFFF DUP3 GT ISZERO PUSH2 0x42A3 JUMPI PUSH2 0x42A2 PUSH2 0x3E20 JUMP JUMPDEST JUMPDEST PUSH1 0x20 DUP3 MUL SWAP1 POP PUSH1 0x20 DUP2 ADD SWAP1 POP SWAP2 SWAP1 POP JUMP JUMPDEST PUSH1 0x0 DUP1 REVERT JUMPDEST PUSH1 0x0 PUSH2 0x42CC PUSH2 0x42C7 DUP5 PUSH2 0x4288 JUMP JUMPDEST PUSH2 0x3E80 JUMP JUMPDEST SWAP1 POP DUP1 DUP4 DUP3 MSTORE PUSH1 0x20 DUP3 ADD SWAP1 POP PUSH1 0x20 DUP5 MUL DUP4 ADD DUP6 DUP2 GT ISZERO PUSH2 0x42EF JUMPI PUSH2 0x42EE PUSH2 0x42B4 JUMP JUMPDEST JUMPDEST DUP4 JUMPDEST DUP2 DUP2 LT ISZERO PUSH2 0x4318 JUMPI DUP1 PUSH2 0x4304 DUP9 DUP3 PUSH2 0x41F3 JUMP JUMPDEST DUP5 MSTORE PUSH1 0x20 DUP5 ADD SWAP4 POP POP PUSH1 0x20 DUP2 ADD SWAP1 POP PUSH2 0x42F1 JUMP JUMPDEST POP POP POP SWAP4 SWAP3 POP POP POP JUMP JUMPDEST PUSH1 0x0 DUP3 PUSH1 0x1F DUP4 ADD SLT PUSH2 0x4337 JUMPI PUSH2 0x4336 PUSH2 0x3E16 JUMP JUMPDEST JUMPDEST DUP2 CALLDATALOAD PUSH2 0x4347 DUP5 DUP3 PUSH1 0x20 DUP7 ADD PUSH2 0x42B9 JUMP JUMPDEST SWAP2 POP POP SWAP3 SWAP2 POP POP JUMP JUMPDEST PUSH1 0x0 PUSH1 0x20 DUP3 DUP5 SUB SLT ISZERO PUSH2 0x4366 JUMPI PUSH2 0x4365 PUSH2 0x3B74 JUMP JUMPDEST JUMPDEST PUSH1 0x0 DUP3 ADD CALLDATALOAD PUSH8 0xFFFFFFFFFFFFFFFF DUP2 GT ISZERO PUSH2 0x4384 JUMPI PUSH2 0x4383 PUSH2 0x3B79 JUMP JUMPDEST JUMPDEST PUSH2 0x4390 DUP5 DUP3 DUP6 ADD PUSH2 0x4322 JUMP JUMPDEST SWAP2 POP POP SWAP3 SWAP2 POP POP JUMP JUMPDEST PUSH1 0x0 PUSH8 0xFFFFFFFFFFFFFFFF DUP3 GT ISZERO PUSH2 0x43B4 JUMPI PUSH2 0x43B3 PUSH2 0x3E20 JUMP JUMPDEST JUMPDEST PUSH1 0x20 DUP3 MUL SWAP1 POP PUSH1 0x20 DUP2 ADD SWAP1 POP SWAP2 SWAP1 POP JUMP JUMPDEST PUSH1 0x0 PUSH2 0x43D8 PUSH2 0x43D3 DUP5 PUSH2 0x4399 JUMP JUMPDEST PUSH2 0x3E80 JUMP JUMPDEST SWAP1 POP DUP1 DUP4 DUP3 MSTORE PUSH1 0x20 DUP3 ADD SWAP1 POP PUSH1 0x20 DUP5 MUL DUP4 ADD DUP6 DUP2 GT ISZERO PUSH2 0x43FB JUMPI PUSH2 0x43FA PUSH2 0x42B4 JUMP JUMPDEST JUMPDEST DUP4 JUMPDEST DUP2 DUP2 LT ISZERO PUSH2 0x4424 JUMPI DUP1 PUSH2 0x4410 DUP9 DUP3 PUSH2 0x3D0C JUMP JUMPDEST DUP5 MSTORE PUSH1 0x20 DUP5 ADD SWAP4 POP POP PUSH1 0x20 DUP2 ADD SWAP1 POP PUSH2 0x43FD JUMP JUMPDEST POP POP POP SWAP4 SWAP3 POP POP POP JUMP JUMPDEST PUSH1 0x0 DUP3 PUSH1 0x1F DUP4 ADD SLT PUSH2 0x4443 JUMPI PUSH2 0x4442 PUSH2 0x3E16 JUMP JUMPDEST JUMPDEST DUP2 CALLDATALOAD PUSH2 0x4453 DUP5 DUP3 PUSH1 0x20 DUP7 ADD PUSH2 0x43C5 JUMP JUMPDEST SWAP2 POP POP SWAP3 SWAP2 POP POP JUMP JUMPDEST PUSH1 0x0 PUSH1 0x20 DUP3 DUP5 SUB SLT ISZERO PUSH2 0x4472 JUMPI PUSH2 0x4471 PUSH2 0x3B74 JUMP JUMPDEST JUMPDEST PUSH1 0x0 DUP3 ADD CALLDATALOAD PUSH8 0xFFFFFFFFFFFFFFFF DUP2 GT ISZERO PUSH2 0x4490 JUMPI PUSH2 0x448F PUSH2 0x3B79 JUMP JUMPDEST JUMPDEST PUSH2 0x449C DUP5 DUP3 DUP6 ADD PUSH2 0x442E JUMP JUMPDEST SWAP2 POP POP SWAP3 SWAP2 POP POP JUMP JUMPDEST PUSH1 0x0 DUP1 PUSH1 0x40 DUP4 DUP6 SUB SLT ISZERO PUSH2 0x44BC JUMPI PUSH2 0x44BB PUSH2 0x3B74 JUMP JUMPDEST JUMPDEST PUSH1 0x0 PUSH2 0x44CA DUP6 DUP3 DUP7 ADD PUSH2 0x3DC1 JUMP JUMPDEST SWAP3 POP POP PUSH1 0x20 PUSH2 0x44DB DUP6 DUP3 DUP7 ADD PUSH2 0x41F3 JUMP JUMPDEST SWAP2 POP POP SWAP3 POP SWAP3 SWAP1 POP JUMP JUMPDEST PUSH1 0x0 DUP1 PUSH1 0x0 DUP1 PUSH1 0x80 DUP6 DUP8 SUB SLT ISZERO PUSH2 0x44FF JUMPI PUSH2 0x44FE PUSH2 0x3B74 JUMP JUMPDEST JUMPDEST PUSH1 0x0 PUSH2 0x450D DUP8 DUP3 DUP9 ADD PUSH2 0x3DC1 JUMP JUMPDEST SWAP5 POP POP PUSH1 0x20 PUSH2 0x451E DUP8 DUP3 DUP9 ADD PUSH2 0x3DC1 JUMP JUMPDEST SWAP4 POP POP PUSH1 0x40 PUSH2 0x452F DUP8 DUP3 DUP9 ADD PUSH2 0x3D0C JUMP JUMPDEST SWAP3 POP POP PUSH1 0x60 DUP6 ADD CALLDATALOAD PUSH8 0xFFFFFFFFFFFFFFFF DUP2 GT ISZERO PUSH2 0x4550 JUMPI PUSH2 0x454F PUSH2 0x3B79 JUMP JUMPDEST JUMPDEST PUSH2 0x455C DUP8 DUP3 DUP9 ADD PUSH2 0x3F1D JUMP JUMPDEST SWAP2 POP POP SWAP3 SWAP6 SWAP2 SWAP5 POP SWAP3 POP JUMP JUMPDEST PUSH1 0x0 DUP1 PUSH1 0x0 DUP1 PUSH1 0x0 DUP1 PUSH1 0xC0 DUP8 DUP10 SUB SLT ISZERO PUSH2 0x4585 JUMPI PUSH2 0x4584 PUSH2 0x3B74 JUMP JUMPDEST JUMPDEST PUSH1 0x0 PUSH2 0x4593 DUP10 DUP3 DUP11 ADD PUSH2 0x3DC1 JUMP JUMPDEST SWAP7 POP POP PUSH1 0x20 PUSH2 0x45A4 DUP10 DUP3 DUP11 ADD PUSH2 0x3DC1 JUMP JUMPDEST SWAP6 POP POP PUSH1 0x40 PUSH2 0x45B5 DUP10 DUP3 DUP11 ADD PUSH2 0x3DC1 JUMP JUMPDEST SWAP5 POP POP PUSH1 0x60 PUSH2 0x45C6 DUP10 DUP3 DUP11 ADD PUSH2 0x3DC1 JUMP JUMPDEST SWAP4 POP POP PUSH1 0x80 PUSH2 0x45D7 DUP10 DUP3 DUP11 ADD PUSH2 0x3DC1 JUMP JUMPDEST SWAP3 POP POP PUSH1 0xA0 PUSH2 0x45E8 DUP10 DUP3 DUP11 ADD PUSH2 0x3DC1 JUMP JUMPDEST SWAP2 POP POP SWAP3 SWAP6 POP SWAP3 SWAP6 POP SWAP3 SWAP6 JUMP JUMPDEST PUSH1 0x0 DUP1 PUSH1 0x40 DUP4 DUP6 SUB SLT ISZERO PUSH2 0x460C JUMPI PUSH2 0x460B PUSH2 0x3B74 JUMP JUMPDEST JUMPDEST PUSH1 0x0 PUSH2 0x461A DUP6 DUP3 DUP7 ADD PUSH2 0x3DC1 JUMP JUMPDEST SWAP3 POP POP PUSH1 0x20 PUSH2 0x462B DUP6 DUP3 DUP7 ADD PUSH2 0x3DC1 JUMP JUMPDEST SWAP2 POP POP SWAP3 POP SWAP3 SWAP1 POP JUMP JUMPDEST PUSH32 0x4E487B7100000000000000000000000000000000000000000000000000000000 PUSH1 0x0 MSTORE PUSH1 0x22 PUSH1 0x4 MSTORE PUSH1 0x24 PUSH1 0x0 REVERT JUMPDEST PUSH1 0x0 PUSH1 0x2 DUP3 DIV SWAP1 POP PUSH1 0x1 DUP3 AND DUP1 PUSH2 0x467C JUMPI PUSH1 0x7F DUP3 AND SWAP2 POP JUMPDEST PUSH1 0x20 DUP3 LT DUP2 SUB PUSH2 0x468F JUMPI PUSH2 0x468E PUSH2 0x4635 JUMP JUMPDEST JUMPDEST POP SWAP2 SWAP1 POP JUMP JUMPDEST PUSH32 0x4552433732313A20617070726F76616C20746F2063757272656E74206F776E65 PUSH1 0x0 DUP3 ADD MSTORE PUSH32 0x7200000000000000000000000000000000000000000000000000000000000000 PUSH1 0x20 DUP3 ADD MSTORE POP JUMP JUMPDEST PUSH1 0x0 PUSH2 0x46F1 PUSH1 0x21 DUP4 PUSH2 0x3C44 JUMP JUMPDEST SWAP2 POP PUSH2 0x46FC DUP3 PUSH2 0x4695 JUMP JUMPDEST PUSH1 0x40 DUP3 ADD SWAP1 POP SWAP2 SWAP1 POP JUMP JUMPDEST PUSH1 0x0 PUSH1 0x20 DUP3 ADD SWAP1 POP DUP2 DUP2 SUB PUSH1 0x0 DUP4 ADD MSTORE PUSH2 0x4720 DUP2 PUSH2 0x46E4 JUMP JUMPDEST SWAP1 POP SWAP2 SWAP1 POP JUMP JUMPDEST PUSH32 0x4552433732313A20617070726F76652063616C6C6572206973206E6F7420746F PUSH1 0x0 DUP3 ADD MSTORE PUSH32 0x6B656E206F776E6572206F7220617070726F76656420666F7220616C6C000000 PUSH1 0x20 DUP3 ADD MSTORE POP JUMP JUMPDEST PUSH1 0x0 PUSH2 0x4783 PUSH1 0x3D DUP4 PUSH2 0x3C44 JUMP JUMPDEST SWAP2 POP PUSH2 0x478E DUP3 PUSH2 0x4727 JUMP JUMPDEST PUSH1 0x40 DUP3 ADD SWAP1 POP SWAP2 SWAP1 POP JUMP JUMPDEST PUSH1 0x0 PUSH1 0x20 DUP3 ADD SWAP1 POP DUP2 DUP2 SUB PUSH1 0x0 DUP4 ADD MSTORE PUSH2 0x47B2 DUP2 PUSH2 0x4776 JUMP JUMPDEST SWAP1 POP SWAP2 SWAP1 POP JUMP JUMPDEST PUSH32 0x5369676E657220616E64207369676E617475726520646F206E6F74206D617463 PUSH1 0x0 DUP3 ADD MSTORE PUSH32 0x6800000000000000000000000000000000000000000000000000000000000000 PUSH1 0x20 DUP3 ADD MSTORE POP JUMP JUMPDEST PUSH1 0x0 PUSH2 0x4815 PUSH1 0x21 DUP4 PUSH2 0x3C44 JUMP JUMPDEST SWAP2 POP PUSH2 0x4820 DUP3 PUSH2 0x47B9 JUMP JUMPDEST PUSH1 0x40 DUP3 ADD SWAP1 POP SWAP2 SWAP1 POP JUMP JUMPDEST PUSH1 0x0 PUSH1 0x20 DUP3 ADD SWAP1 POP DUP2 DUP2 SUB PUSH1 0x0 DUP4 ADD MSTORE PUSH2 0x4844 DUP2 PUSH2 0x4808 JUMP JUMPDEST SWAP1 POP SWAP2 SWAP1 POP JUMP JUMPDEST PUSH1 0x0 PUSH2 0x4856 DUP3 PUSH2 0x3D4E JUMP JUMPDEST SWAP1 POP SWAP2 SWAP1 POP JUMP JUMPDEST PUSH2 0x4866 DUP2 PUSH2 0x484B JUMP JUMPDEST DUP3 MSTORE POP POP JUMP JUMPDEST PUSH1 0x0 PUSH1 0x60 DUP3 ADD SWAP1 POP PUSH2 0x4881 PUSH1 0x0 DUP4 ADD DUP7 PUSH2 0x3D80 JUMP JUMPDEST PUSH2 0x488E PUSH1 0x20 DUP4 ADD DUP6 PUSH2 0x485D JUMP JUMPDEST DUP2 DUP2 SUB PUSH1 0x40 DUP4 ADD MSTORE PUSH2 0x48A0 DUP2 DUP5 PUSH2 0x406D JUMP JUMPDEST SWAP1 POP SWAP5 SWAP4 POP POP POP POP JUMP JUMPDEST PUSH1 0x0 DUP2 SWAP1 POP SWAP3 SWAP2 POP POP JUMP JUMPDEST PUSH1 0x0 PUSH2 0x48C0 DUP3 PUSH2 0x4051 JUMP JUMPDEST PUSH2 0x48CA DUP2 DUP6 PUSH2 0x48AA JUMP JUMPDEST SWAP4 POP PUSH2 0x48DA DUP2 DUP6 PUSH1 0x20 DUP7 ADD PUSH2 0x3C55 JUMP JUMPDEST DUP1 DUP5 ADD SWAP2 POP POP SWAP3 SWAP2 POP POP JUMP JUMPDEST PUSH1 0x0 DUP2 PUSH1 0x60 SHL SWAP1 POP SWAP2 SWAP1 POP JUMP JUMPDEST PUSH1 0x0 PUSH2 0x48FE DUP3 PUSH2 0x48E6 JUMP JUMPDEST SWAP1 POP SWAP2 SWAP1 POP JUMP JUMPDEST PUSH1 0x0 PUSH2 0x4910 DUP3 PUSH2 0x48F3 JUMP JUMPDEST SWAP1 POP SWAP2 SWAP1 POP JUMP JUMPDEST PUSH2 0x4928 PUSH2 0x4923 DUP3 PUSH2 0x3D6E JUMP JUMPDEST PUSH2 0x4905 JUMP JUMPDEST DUP3 MSTORE POP POP JUMP JUMPDEST PUSH1 0x0 PUSH2 0x493A DUP3 DUP6 PUSH2 0x48B5 JUMP JUMPDEST SWAP2 POP PUSH2 0x4946 DUP3 DUP5 PUSH2 0x4917 JUMP JUMPDEST PUSH1 0x14 DUP3 ADD SWAP2 POP DUP2 SWAP1 POP SWAP4 SWAP3 POP POP POP JUMP JUMPDEST PUSH1 0x0 PUSH2 0x4962 DUP3 DUP5 PUSH2 0x48B5 JUMP JUMPDEST SWAP2 POP DUP2 SWAP1 POP SWAP3 SWAP2 POP POP JUMP JUMPDEST PUSH32 0x46756E6374696F6E2063616C6C206E6F74207375636365737366756C00000000 PUSH1 0x0 DUP3 ADD MSTORE POP JUMP JUMPDEST PUSH1 0x0 PUSH2 0x49A3 PUSH1 0x1C DUP4 PUSH2 0x3C44 JUMP JUMPDEST SWAP2 POP PUSH2 0x49AE DUP3 PUSH2 0x496D JUMP JUMPDEST PUSH1 0x20 DUP3 ADD SWAP1 POP SWAP2 SWAP1 POP JUMP JUMPDEST PUSH1 0x0 PUSH1 0x20 DUP3 ADD SWAP1 POP DUP2 DUP2 SUB PUSH1 0x0 DUP4 ADD MSTORE PUSH2 0x49D2 DUP2 PUSH2 0x4996 JUMP JUMPDEST SWAP1 POP SWAP2 SWAP1 POP JUMP JUMPDEST PUSH32 0x4E487B7100000000000000000000000000000000000000000000000000000000 PUSH1 0x0 MSTORE PUSH1 0x32 PUSH1 0x4 MSTORE PUSH1 0x24 PUSH1 0x0 REVERT JUMPDEST PUSH32 0x43757272656E6379206973206E6F7420616C6C6F7765642E0000000000000000 PUSH1 0x0 DUP3 ADD MSTORE POP JUMP JUMPDEST PUSH1 0x0 PUSH2 0x4A3E PUSH1 0x18 DUP4 PUSH2 0x3C44 JUMP JUMPDEST SWAP2 POP PUSH2 0x4A49 DUP3 PUSH2 0x4A08 JUMP JUMPDEST PUSH1 0x20 DUP3 ADD SWAP1 POP SWAP2 SWAP1 POP JUMP JUMPDEST PUSH1 0x0 PUSH1 0x20 DUP3 ADD SWAP1 POP DUP2 DUP2 SUB PUSH1 0x0 DUP4 ADD MSTORE PUSH2 0x4A6D DUP2 PUSH2 0x4A31 JUMP JUMPDEST SWAP1 POP SWAP2 SWAP1 POP JUMP JUMPDEST PUSH32 0x4552433732313A20746F6B656E20616C7265616479206D696E74656400000000 PUSH1 0x0 DUP3 ADD MSTORE POP JUMP JUMPDEST PUSH1 0x0 PUSH2 0x4AAA PUSH1 0x1C DUP4 PUSH2 0x3C44 JUMP JUMPDEST SWAP2 POP PUSH2 0x4AB5 DUP3 PUSH2 0x4A74 JUMP JUMPDEST PUSH1 0x20 DUP3 ADD SWAP1 POP SWAP2 SWAP1 POP JUMP JUMPDEST PUSH1 0x0 PUSH1 0x20 DUP3 ADD SWAP1 POP DUP2 DUP2 SUB PUSH1 0x0 DUP4 ADD MSTORE PUSH2 0x4AD9 DUP2 PUSH2 0x4A9D JUMP JUMPDEST SWAP1 POP SWAP2 SWAP1 POP JUMP JUMPDEST PUSH32 0x4E487B7100000000000000000000000000000000000000000000000000000000 PUSH1 0x0 MSTORE PUSH1 0x11 PUSH1 0x4 MSTORE PUSH1 0x24 PUSH1 0x0 REVERT JUMPDEST PUSH1 0x0 PUSH2 0x4B1A DUP3 PUSH2 0x3CEB JUMP JUMPDEST SWAP2 POP PUSH2 0x4B25 DUP4 PUSH2 0x3CEB JUMP JUMPDEST SWAP3 POP DUP3 DUP3 SUB SWAP1 POP DUP2 DUP2 GT ISZERO PUSH2 0x4B3D JUMPI PUSH2 0x4B3C PUSH2 0x4AE0 JUMP JUMPDEST JUMPDEST SWAP3 SWAP2 POP POP JUMP JUMPDEST PUSH1 0x0 PUSH2 0x4B4E DUP3 PUSH2 0x3CEB JUMP JUMPDEST SWAP2 POP PUSH32 0xFFFFFFFFFFFFFFFFFFFFFFFFFFFFFFFFFFFFFFFFFFFFFFFFFFFFFFFFFFFFFFFF DUP3 SUB PUSH2 0x4B80 JUMPI PUSH2 0x4B7F PUSH2 0x4AE0 JUMP JUMPDEST JUMPDEST PUSH1 0x1 DUP3 ADD SWAP1 POP SWAP2 SWAP1 POP JUMP JUMPDEST PUSH32 0x4552433732313A2063616C6C6572206973206E6F7420746F6B656E206F776E65 PUSH1 0x0 DUP3 ADD MSTORE PUSH32 0x72206F7220617070726F76656400000000000000000000000000000000000000 PUSH1 0x20 DUP3 ADD MSTORE POP JUMP JUMPDEST PUSH1 0x0 PUSH2 0x4BE7 PUSH1 0x2D DUP4 PUSH2 0x3C44 JUMP JUMPDEST SWAP2 POP PUSH2 0x4BF2 DUP3 PUSH2 0x4B8B JUMP JUMPDEST PUSH1 0x40 DUP3 ADD SWAP1 POP SWAP2 SWAP1 POP JUMP JUMPDEST PUSH1 0x0 PUSH1 0x20 DUP3 ADD SWAP1 POP DUP2 DUP2 SUB PUSH1 0x0 DUP4 ADD MSTORE PUSH2 0x4C16 DUP2 PUSH2 0x4BDA JUMP JUMPDEST SWAP1 POP SWAP2 SWAP1 POP JUMP JUMPDEST PUSH1 0x0 PUSH1 0x40 DUP3 ADD SWAP1 POP PUSH2 0x4C32 PUSH1 0x0 DUP4 ADD DUP6 PUSH2 0x40C8 JUMP JUMPDEST PUSH2 0x4C3F PUSH1 0x20 DUP4 ADD DUP5 PUSH2 0x3D80 JUMP JUMPDEST SWAP4 SWAP3 POP POP POP JUMP JUMPDEST PUSH32 0x4552433732313A20696E76616C696420746F6B656E2049440000000000000000 PUSH1 0x0 DUP3 ADD MSTORE POP JUMP JUMPDEST PUSH1 0x0 PUSH2 0x4C7C PUSH1 0x18 DUP4 PUSH2 0x3C44 JUMP JUMPDEST SWAP2 POP PUSH2 0x4C87 DUP3 PUSH2 0x4C46 JUMP JUMPDEST PUSH1 0x20 DUP3 ADD SWAP1 POP SWAP2 SWAP1 POP JUMP JUMPDEST PUSH1 0x0 PUSH1 0x20 DUP3 ADD SWAP1 POP DUP2 DUP2 SUB PUSH1 0x0 DUP4 ADD MSTORE PUSH2 0x4CAB DUP2 PUSH2 0x4C6F JUMP JUMPDEST SWAP1 POP SWAP2 SWAP1 POP JUMP JUMPDEST PUSH32 0x4552433732313A2061646472657373207A65726F206973206E6F742061207661 PUSH1 0x0 DUP3 ADD MSTORE PUSH32 0x6C6964206F776E65720000000000000000000000000000000000000000000000 PUSH1 0x20 DUP3 ADD MSTORE POP JUMP JUMPDEST PUSH1 0x0 PUSH2 0x4D0E PUSH1 0x29 DUP4 PUSH2 0x3C44 JUMP JUMPDEST SWAP2 POP PUSH2 0x4D19 DUP3 PUSH2 0x4CB2 JUMP JUMPDEST PUSH1 0x40 DUP3 ADD SWAP1 POP SWAP2 SWAP1 POP JUMP JUMPDEST PUSH1 0x0 PUSH1 0x20 DUP3 ADD SWAP1 POP DUP2 DUP2 SUB PUSH1 0x0 DUP4 ADD MSTORE PUSH2 0x4D3D DUP2 PUSH2 0x4D01 JUMP JUMPDEST SWAP1 POP SWAP2 SWAP1 POP JUMP JUMPDEST PUSH1 0x0 DUP2 MLOAD SWAP1 POP PUSH2 0x4D53 DUP2 PUSH2 0x3CF5 JUMP JUMPDEST SWAP3 SWAP2 POP POP JUMP JUMPDEST PUSH1 0x0 PUSH1 0x20 DUP3 DUP5 SUB SLT ISZERO PUSH2 0x4D6F JUMPI PUSH2 0x4D6E PUSH2 0x3B74 JUMP JUMPDEST JUMPDEST PUSH1 0x0 PUSH2 0x4D7D DUP5 DUP3 DUP6 ADD PUSH2 0x4D44 JUMP JUMPDEST SWAP2 POP POP SWAP3 SWAP2 POP POP JUMP JUMPDEST PUSH32 0x4E6F2073756368206120746F6B656E0000000000000000000000000000000000 PUSH1 0x0 DUP3 ADD MSTORE POP JUMP JUMPDEST PUSH1 0x0 PUSH2 0x4DBC PUSH1 0xF DUP4 PUSH2 0x3C44 JUMP JUMPDEST SWAP2 POP PUSH2 0x4DC7 DUP3 PUSH2 0x4D86 JUMP JUMPDEST PUSH1 0x20 DUP3 ADD SWAP1 POP SWAP2 SWAP1 POP JUMP JUMPDEST PUSH1 0x0 PUSH1 0x20 DUP3 ADD SWAP1 POP DUP2 DUP2 SUB PUSH1 0x0 DUP4 ADD MSTORE PUSH2 0x4DEB DUP2 PUSH2 0x4DAF JUMP JUMPDEST SWAP1 POP SWAP2 SWAP1 POP JUMP JUMPDEST PUSH1 0x0 DUP2 SWAP1 POP SWAP3 SWAP2 POP POP JUMP JUMPDEST PUSH1 0x0 PUSH2 0x4E08 DUP3 PUSH2 0x3C39 JUMP JUMPDEST PUSH2 0x4E12 DUP2 DUP6 PUSH2 0x4DF2 JUMP JUMPDEST SWAP4 POP PUSH2 0x4E22 DUP2 DUP6 PUSH1 0x20 DUP7 ADD PUSH2 0x3C55 JUMP JUMPDEST DUP1 DUP5 ADD SWAP2 POP POP SWAP3 SWAP2 POP POP JUMP JUMPDEST PUSH1 0x0 PUSH2 0x4E3A DUP3 DUP6 PUSH2 0x4DFD JUMP JUMPDEST SWAP2 POP PUSH2 0x4E46 DUP3 DUP5 PUSH2 0x4DFD JUMP JUMPDEST SWAP2 POP DUP2 SWAP1 POP SWAP4 SWAP3 POP POP POP JUMP JUMPDEST PUSH32 0x4552433732313A207365727669636520666565206973206E6F7420636F727265 PUSH1 0x0 DUP3 ADD MSTORE PUSH32 0x6374000000000000000000000000000000000000000000000000000000000000 PUSH1 0x20 DUP3 ADD MSTORE POP JUMP JUMPDEST PUSH1 0x0 PUSH2 0x4EAE PUSH1 0x22 DUP4 PUSH2 0x3C44 JUMP JUMPDEST SWAP2 POP PUSH2 0x4EB9 DUP3 PUSH2 0x4E52 JUMP JUMPDEST PUSH1 0x40 DUP3 ADD SWAP1 POP SWAP2 SWAP1 POP JUMP JUMPDEST PUSH1 0x0 PUSH1 0x20 DUP3 ADD SWAP1 POP DUP2 DUP2 SUB PUSH1 0x0 DUP4 ADD MSTORE PUSH2 0x4EDD DUP2 PUSH2 0x4EA1 JUMP JUMPDEST SWAP1 POP SWAP2 SWAP1 POP JUMP JUMPDEST PUSH32 0x53656E646572206973206E6F7420746865204F776E6572000000000000000000 PUSH1 0x0 DUP3 ADD MSTORE POP JUMP JUMPDEST PUSH1 0x0 PUSH2 0x4F1A PUSH1 0x17 DUP4 PUSH2 0x3C44 JUMP JUMPDEST SWAP2 POP PUSH2 0x4F25 DUP3 PUSH2 0x4EE4 JUMP JUMPDEST PUSH1 0x20 DUP3 ADD SWAP1 POP SWAP2 SWAP1 POP JUMP JUMPDEST PUSH1 0x0 PUSH1 0x20 DUP3 ADD SWAP1 POP DUP2 DUP2 SUB PUSH1 0x0 DUP4 ADD MSTORE PUSH2 0x4F49 DUP2 PUSH2 0x4F0D JUMP JUMPDEST SWAP1 POP SWAP2 SWAP1 POP JUMP JUMPDEST PUSH1 0x0 PUSH2 0x4F5B DUP3 PUSH2 0x3D6E JUMP JUMPDEST SWAP1 POP SWAP2 SWAP1 POP JUMP JUMPDEST PUSH2 0x4F6B DUP2 PUSH2 0x4F50 JUMP JUMPDEST DUP2 EQ PUSH2 0x4F76 JUMPI PUSH1 0x0 DUP1 REVERT JUMPDEST POP JUMP JUMPDEST PUSH1 0x0 DUP2 MLOAD SWAP1 POP PUSH2 0x4F88 DUP2 PUSH2 0x4F62 JUMP JUMPDEST SWAP3 SWAP2 POP POP JUMP JUMPDEST PUSH1 0x0 PUSH1 0x20 DUP3 DUP5 SUB SLT ISZERO PUSH2 0x4FA4 JUMPI PUSH2 0x4FA3 PUSH2 0x3B74 JUMP JUMPDEST JUMPDEST PUSH1 0x0 PUSH2 0x4FB2 DUP5 DUP3 DUP6 ADD PUSH2 0x4F79 JUMP JUMPDEST SWAP2 POP POP SWAP3 SWAP2 POP POP JUMP JUMPDEST PUSH32 0x4F776E61626C653A206E6577206F776E657220697320746865207A65726F2061 PUSH1 0x0 DUP3 ADD MSTORE PUSH32 0x6464726573730000000000000000000000000000000000000000000000000000 PUSH1 0x20 DUP3 ADD MSTORE POP JUMP JUMPDEST PUSH1 0x0 PUSH2 0x5017 PUSH1 0x26 DUP4 PUSH2 0x3C44 JUMP JUMPDEST SWAP2 POP PUSH2 0x5022 DUP3 PUSH2 0x4FBB JUMP JUMPDEST PUSH1 0x40 DUP3 ADD SWAP1 POP SWAP2 SWAP1 POP JUMP JUMPDEST PUSH1 0x0 PUSH1 0x20 DUP3 ADD SWAP1 POP DUP2 DUP2 SUB PUSH1 0x0 DUP4 ADD MSTORE PUSH2 0x5046 DUP2 PUSH2 0x500A JUMP JUMPDEST SWAP1 POP SWAP2 SWAP1 POP JUMP JUMPDEST PUSH32 0x4E61746976654D6574615472616E73616374696F6E3A20494E56414C49445F53 PUSH1 0x0 DUP3 ADD MSTORE PUSH32 0x49474E4552000000000000000000000000000000000000000000000000000000 PUSH1 0x20 DUP3 ADD MSTORE POP JUMP JUMPDEST PUSH1 0x0 PUSH2 0x50A9 PUSH1 0x25 DUP4 PUSH2 0x3C44 JUMP JUMPDEST SWAP2 POP PUSH2 0x50B4 DUP3 PUSH2 0x504D JUMP JUMPDEST PUSH1 0x40 DUP3 ADD SWAP1 POP SWAP2 SWAP1 POP JUMP JUMPDEST PUSH1 0x0 PUSH1 0x20 DUP3 ADD SWAP1 POP DUP2 DUP2 SUB PUSH1 0x0 DUP4 ADD MSTORE PUSH2 0x50D8 DUP2 PUSH2 0x509C JUMP JUMPDEST SWAP1 POP SWAP2 SWAP1 POP JUMP JUMPDEST PUSH2 0x50E8 DUP2 PUSH2 0x3F81 JUMP JUMPDEST DUP3 MSTORE POP POP JUMP JUMPDEST PUSH1 0x0 PUSH1 0x80 DUP3 ADD SWAP1 POP PUSH2 0x5103 PUSH1 0x0 DUP4 ADD DUP8 PUSH2 0x4132 JUMP JUMPDEST PUSH2 0x5110 PUSH1 0x20 DUP4 ADD DUP7 PUSH2 0x50DF JUMP JUMPDEST PUSH2 0x511D PUSH1 0x40 DUP4 ADD DUP6 PUSH2 0x4132 JUMP JUMPDEST PUSH2 0x512A PUSH1 0x60 DUP4 ADD DUP5 PUSH2 0x4132 JUMP JUMPDEST SWAP6 SWAP5 POP POP POP POP POP JUMP JUMPDEST PUSH1 0x0 PUSH2 0x513E DUP3 PUSH2 0x3CEB JUMP JUMPDEST SWAP2 POP PUSH2 0x5149 DUP4 PUSH2 0x3CEB JUMP JUMPDEST SWAP3 POP DUP3 DUP3 ADD SWAP1 POP DUP1 DUP3 GT ISZERO PUSH2 0x5161 JUMPI PUSH2 0x5160 PUSH2 0x4AE0 JUMP JUMPDEST JUMPDEST SWAP3 SWAP2 POP POP JUMP JUMPDEST PUSH32 0x5061757361626C653A2070617573656400000000000000000000000000000000 PUSH1 0x0 DUP3 ADD MSTORE POP JUMP JUMPDEST PUSH1 0x0 PUSH2 0x519D PUSH1 0x10 DUP4 PUSH2 0x3C44 JUMP JUMPDEST SWAP2 POP PUSH2 0x51A8 DUP3 PUSH2 0x5167 JUMP JUMPDEST PUSH1 0x20 DUP3 ADD SWAP1 POP SWAP2 SWAP1 POP JUMP JUMPDEST PUSH1 0x0 PUSH1 0x20 DUP3 ADD SWAP1 POP DUP2 DUP2 SUB PUSH1 0x0 DUP4 ADD MSTORE PUSH2 0x51CC DUP2 PUSH2 0x5190 JUMP JUMPDEST SWAP1 POP SWAP2 SWAP1 POP JUMP JUMPDEST PUSH1 0x0 PUSH1 0x60 DUP3 ADD SWAP1 POP PUSH2 0x51E8 PUSH1 0x0 DUP4 ADD DUP7 PUSH2 0x3D80 JUMP JUMPDEST PUSH2 0x51F5 PUSH1 0x20 DUP4 ADD DUP6 PUSH2 0x3D80 JUMP JUMPDEST PUSH2 0x5202 PUSH1 0x40 DUP4 ADD DUP5 PUSH2 0x40C8 JUMP JUMPDEST SWAP5 SWAP4 POP POP POP POP JUMP JUMPDEST PUSH1 0x0 DUP2 MLOAD SWAP1 POP PUSH2 0x5219 DUP2 PUSH2 0x41DC JUMP JUMPDEST SWAP3 SWAP2 POP POP JUMP JUMPDEST PUSH1 0x0 PUSH1 0x20 DUP3 DUP5 SUB SLT ISZERO PUSH2 0x5235 JUMPI PUSH2 0x5234 PUSH2 0x3B74 JUMP JUMPDEST JUMPDEST PUSH1 0x0 PUSH2 0x5243 DUP5 DUP3 DUP6 ADD PUSH2 0x520A JUMP JUMPDEST SWAP2 POP POP SWAP3 SWAP2 POP POP JUMP JUMPDEST PUSH32 0x4552433732313A207472616E736665722066726F6D20696E636F727265637420 PUSH1 0x0 DUP3 ADD MSTORE PUSH32 0x6F776E6572000000000000000000000000000000000000000000000000000000 PUSH1 0x20 DUP3 ADD MSTORE POP JUMP JUMPDEST PUSH1 0x0 PUSH2 0x52A8 PUSH1 0x25 DUP4 PUSH2 0x3C44 JUMP JUMPDEST SWAP2 POP PUSH2 0x52B3 DUP3 PUSH2 0x524C JUMP JUMPDEST PUSH1 0x40 DUP3 ADD SWAP1 POP SWAP2 SWAP1 POP JUMP JUMPDEST PUSH1 0x0 PUSH1 0x20 DUP3 ADD SWAP1 POP DUP2 DUP2 SUB PUSH1 0x0 DUP4 ADD MSTORE PUSH2 0x52D7 DUP2 PUSH2 0x529B JUMP JUMPDEST SWAP1 POP SWAP2 SWAP1 POP JUMP JUMPDEST PUSH32 0x4552433732313A207472616E7366657220746F20746865207A65726F20616464 PUSH1 0x0 DUP3 ADD MSTORE PUSH32 0x7265737300000000000000000000000000000000000000000000000000000000 PUSH1 0x20 DUP3 ADD MSTORE POP JUMP JUMPDEST PUSH1 0x0 PUSH2 0x533A PUSH1 0x24 DUP4 PUSH2 0x3C44 JUMP JUMPDEST SWAP2 POP PUSH2 0x5345 DUP3 PUSH2 0x52DE JUMP JUMPDEST PUSH1 0x40 DUP3 ADD SWAP1 POP SWAP2 SWAP1 POP JUMP JUMPDEST PUSH1 0x0 PUSH1 0x20 DUP3 ADD SWAP1 POP DUP2 DUP2 SUB PUSH1 0x0 DUP4 ADD MSTORE PUSH2 0x5369 DUP2 PUSH2 0x532D JUMP JUMPDEST SWAP1 POP SWAP2 SWAP1 POP JUMP JUMPDEST PUSH32 0x4F776E61626C653A2063616C6C6572206973206E6F7420746865206F776E6572 PUSH1 0x0 DUP3 ADD MSTORE POP JUMP JUMPDEST PUSH1 0x0 PUSH2 0x53A6 PUSH1 0x20 DUP4 PUSH2 0x3C44 JUMP JUMPDEST SWAP2 POP PUSH2 0x53B1 DUP3 PUSH2 0x5370 JUMP JUMPDEST PUSH1 0x20 DUP3 ADD SWAP1 POP SWAP2 SWAP1 POP JUMP JUMPDEST PUSH1 0x0 PUSH1 0x20 DUP3 ADD SWAP1 POP DUP2 DUP2 SUB PUSH1 0x0 DUP4 ADD MSTORE PUSH2 0x53D5 DUP2 PUSH2 0x5399 JUMP JUMPDEST SWAP1 POP SWAP2 SWAP1 POP JUMP JUMPDEST PUSH32 0x4552433732313A20617070726F766520746F2063616C6C657200000000000000 PUSH1 0x0 DUP3 ADD MSTORE POP JUMP JUMPDEST PUSH1 0x0 PUSH2 0x5412 PUSH1 0x19 DUP4 PUSH2 0x3C44 JUMP JUMPDEST SWAP2 POP PUSH2 0x541D DUP3 PUSH2 0x53DC JUMP JUMPDEST PUSH1 0x20 DUP3 ADD SWAP1 POP SWAP2 SWAP1 POP JUMP JUMPDEST PUSH1 0x0 PUSH1 0x20 DUP3 ADD SWAP1 POP DUP2 DUP2 SUB PUSH1 0x0 DUP4 ADD MSTORE PUSH2 0x5441 DUP2 PUSH2 0x5405 JUMP JUMPDEST SWAP1 POP SWAP2 SWAP1 POP JUMP JUMPDEST PUSH32 0x4552433732313A207472616E7366657220746F206E6F6E204552433732315265 PUSH1 0x0 DUP3 ADD MSTORE PUSH32 0x63656976657220696D706C656D656E7465720000000000000000000000000000 PUSH1 0x20 DUP3 ADD MSTORE POP JUMP JUMPDEST PUSH1 0x0 PUSH2 0x54A4 PUSH1 0x32 DUP4 PUSH2 0x3C44 JUMP JUMPDEST SWAP2 POP PUSH2 0x54AF DUP3 PUSH2 0x5448 JUMP JUMPDEST PUSH1 0x40 DUP3 ADD SWAP1 POP SWAP2 SWAP1 POP JUMP JUMPDEST PUSH1 0x0 PUSH1 0x20 DUP3 ADD SWAP1 POP DUP2 DUP2 SUB PUSH1 0x0 DUP4 ADD MSTORE PUSH2 0x54D3 DUP2 PUSH2 0x5497 JUMP JUMPDEST SWAP1 POP SWAP2 SWAP1 POP JUMP JUMPDEST PUSH32 0x4E487B7100000000000000000000000000000000000000000000000000000000 PUSH1 0x0 MSTORE PUSH1 0x12 PUSH1 0x4 MSTORE PUSH1 0x24 PUSH1 0x0 REVERT JUMPDEST PUSH1 0x0 PUSH1 0x80 DUP3 ADD SWAP1 POP PUSH2 0x551E PUSH1 0x0 DUP4 ADD DUP8 PUSH2 0x4132 JUMP JUMPDEST PUSH2 0x552B PUSH1 0x20 DUP4 ADD DUP7 PUSH2 0x40C8 JUMP JUMPDEST PUSH2 0x5538 PUSH1 0x40 DUP4 ADD DUP6 PUSH2 0x3D80 JUMP JUMPDEST PUSH2 0x5545 PUSH1 0x60 DUP4 ADD DUP5 PUSH2 0x4132 JUMP JUMPDEST SWAP6 SWAP5 POP POP POP POP POP JUMP JUMPDEST PUSH32 0x1901000000000000000000000000000000000000000000000000000000000000 PUSH1 0x0 DUP3 ADD MSTORE POP JUMP JUMPDEST PUSH1 0x0 PUSH2 0x5584 PUSH1 0x2 DUP4 PUSH2 0x4DF2 JUMP JUMPDEST SWAP2 POP PUSH2 0x558F DUP3 PUSH2 0x554E JUMP JUMPDEST PUSH1 0x2 DUP3 ADD SWAP1 POP SWAP2 SWAP1 POP JUMP JUMPDEST PUSH1 0x0 DUP2 SWAP1 POP SWAP2 SWAP1 POP JUMP JUMPDEST PUSH2 0x55B5 PUSH2 0x55B0 DUP3 PUSH2 0x3F4B JUMP JUMPDEST PUSH2 0x559A JUMP JUMPDEST DUP3 MSTORE POP POP JUMP JUMPDEST PUSH1 0x0 PUSH2 0x55C6 DUP3 PUSH2 0x5577 JUMP JUMPDEST SWAP2 POP PUSH2 0x55D2 DUP3 DUP6 PUSH2 0x55A4 JUMP JUMPDEST PUSH1 0x20 DUP3 ADD SWAP2 POP PUSH2 0x55E2 DUP3 DUP5 PUSH2 0x55A4 JUMP JUMPDEST PUSH1 0x20 DUP3 ADD SWAP2 POP DUP2 SWAP1 POP SWAP4 SWAP3 POP POP POP JUMP JUMPDEST PUSH32 0x5061757361626C653A206E6F7420706175736564000000000000000000000000 PUSH1 0x0 DUP3 ADD MSTORE POP JUMP JUMPDEST PUSH1 0x0 PUSH2 0x5628 PUSH1 0x14 DUP4 PUSH2 0x3C44 JUMP JUMPDEST SWAP2 POP PUSH2 0x5633 DUP3 PUSH2 0x55F2 JUMP JUMPDEST PUSH1 0x20 DUP3 ADD SWAP1 POP SWAP2 SWAP1 POP JUMP JUMPDEST PUSH1 0x0 PUSH1 0x20 DUP3 ADD SWAP1 POP DUP2 DUP2 SUB PUSH1 0x0 DUP4 ADD MSTORE PUSH2 0x5657 DUP2 PUSH2 0x561B JUMP JUMPDEST SWAP1 POP SWAP2 SWAP1 POP JUMP JUMPDEST PUSH1 0x0 PUSH1 0x80 DUP3 ADD SWAP1 POP PUSH2 0x5673 PUSH1 0x0 DUP4 ADD DUP8 PUSH2 0x3D80 JUMP JUMPDEST PUSH2 0x5680 PUSH1 0x20 DUP4 ADD DUP7 PUSH2 0x3D80 JUMP JUMPDEST PUSH2 0x568D PUSH1 0x40 DUP4 ADD DUP6 PUSH2 0x40C8 JUMP JUMPDEST DUP2 DUP2 SUB PUSH1 0x60 DUP4 ADD MSTORE PUSH2 0x569F DUP2 DUP5 PUSH2 0x406D JUMP JUMPDEST SWAP1 POP SWAP6 SWAP5 POP POP POP POP POP JUMP JUMPDEST PUSH1 0x0 DUP2 MLOAD SWAP1 POP PUSH2 0x56B9 DUP2 PUSH2 0x3BAA JUMP JUMPDEST SWAP3 SWAP2 POP POP JUMP JUMPDEST PUSH1 0x0 PUSH1 0x20 DUP3 DUP5 SUB SLT ISZERO PUSH2 0x56D5 JUMPI PUSH2 0x56D4 PUSH2 0x3B74 JUMP JUMPDEST JUMPDEST PUSH1 0x0 PUSH2 0x56E3 DUP5 DUP3 DUP6 ADD PUSH2 0x56AA JUMP JUMPDEST SWAP2 POP POP SWAP3 SWAP2 POP POP JUMP JUMPDEST PUSH32 0x4552433732313A206D696E7420746F20746865207A65726F2061646472657373 PUSH1 0x0 DUP3 ADD MSTORE POP JUMP JUMPDEST PUSH1 0x0 PUSH2 0x5722 PUSH1 0x20 DUP4 PUSH2 0x3C44 JUMP JUMPDEST SWAP2 POP PUSH2 0x572D DUP3 PUSH2 0x56EC JUMP JUMPDEST PUSH1 0x20 DUP3 ADD SWAP1 POP SWAP2 SWAP1 POP JUMP JUMPDEST PUSH1 0x0 PUSH1 0x20 DUP3 ADD SWAP1 POP DUP2 DUP2 SUB PUSH1 0x0 DUP4 ADD MSTORE PUSH2 0x5751 DUP2 PUSH2 0x5715 JUMP JUMPDEST SWAP1 POP SWAP2 SWAP1 POP JUMP INVALID 0x4D PUSH6 0x74615472616E PUSH20 0x616374696F6E2875696E74323536206E6F6E6365 0x2C PUSH2 0x6464 PUSH19 0x6573732066726F6D2C62797465732066756E63 PUSH21 0x696F6E5369676E617475726529A264697066735822 SLT KECCAK256 0xD9 PC 0x23 EXTCODECOPY 0x2F DELEGATECALL PUSH14 0xBCB526423C380B16FD7454633F65 JUMPI 0xD3 PUSH31 0xEA6B366251D9FAEF64736F6C63430008110033000000000000000000000000 "
		},
		"gasEstimates": {
			"creation": {
				"codeDepositCost": "4496200",
				"executionCost": "infinite",
				"totalCost": "infinite"
			},
			"external": {
				"AC(uint256)": "6674",
				"ERC712_VERSION()": "infinite",
				"approve(address,uint256)": "infinite",
				"balanceOf(address)": "2944",
				"easyFee(uint256)": "infinite",
				"easyTransferTo(address,uint256)": "infinite",
				"executeMetaTransaction(address,bytes,bytes32,bytes32,uint8)": "infinite",
				"getApproved(uint256)": "5323",
				"getChainId()": "461",
				"getDomainSeperator()": "2571",
				"getNonce(address)": "2887",
				"getTokenTier(uint256)": "infinite",
				"ind(uint256)": "infinite",
				"inquiry(uint256)": "infinite",
				"isApprovedForAll(address,address)": "infinite",
				"isMinted(uint256)": "6631",
				"maxSupply()": "2473",
				"mint(uint256,uint256)": "infinite",
				"mintwithCode(uint256,uint256,uint256)": "infinite",
				"name()": "infinite",
				"owner()": "2639",
				"ownerOf(uint256)": "3045",
				"pause()": "infinite",
				"paused()": "2612",
				"referralAddress()": "2582",
				"referralIsOn()": "2539",
				"renounceOwnership()": "infinite",
				"safeMint(address,uint256)": "infinite",
				"safeTransferFrom(address,address,uint256)": "infinite",
				"safeTransferFrom(address,address,uint256,bytes)": "infinite",
				"setAllowedCurrencies(bool[])": "infinite",
				"setApprovalForAll(address,bool)": "infinite",
				"setEasyFees(uint256[])": "infinite",
				"setPaymentContracts(address,address,address,address,address,address)": "infinite",
				"setPrices(uint256[])": "infinite",
				"setRCAddress(address)": "infinite",
				"supportsInterface(bytes4)": "820",
				"swithReferral(bool)": "infinite",
				"symbol()": "infinite",
				"tiersPrices(uint256)": "infinite",
				"tokenURI(uint256)": "3548",
				"totalSupply()": "2519",
				"transferFrom(address,address,uint256)": "infinite",
				"transferOwnership(address)": "infinite",
				"unpause()": "infinite"
			},
			"internal": {
				"_beforeTokenTransfer(address,address,uint256)": "infinite",
				"_msgSender()": "infinite",
				"makePayment(address,uint256,uint256)": "infinite"
			}
		},
		"methodIdentifiers": {
			"AC(uint256)": "c4f57351",
			"ERC712_VERSION()": "0f7e5970",
			"approve(address,uint256)": "095ea7b3",
			"balanceOf(address)": "70a08231",
			"easyFee(uint256)": "bf687504",
			"easyTransferTo(address,uint256)": "d780c9d7",
			"executeMetaTransaction(address,bytes,bytes32,bytes32,uint8)": "0c53c51c",
			"getApproved(uint256)": "081812fc",
			"getChainId()": "3408e470",
			"getDomainSeperator()": "20379ee5",
			"getNonce(address)": "2d0335ab",
			"getTokenTier(uint256)": "c26b265f",
			"ind(uint256)": "e80af73a",
			"inquiry(uint256)": "c25b2368",
			"isApprovedForAll(address,address)": "e985e9c5",
			"isMinted(uint256)": "33c41a90",
			"maxSupply()": "d5abeb01",
			"mint(uint256,uint256)": "1b2ef1ca",
			"mintwithCode(uint256,uint256,uint256)": "5a6fd817",
			"name()": "06fdde03",
			"owner()": "8da5cb5b",
			"ownerOf(uint256)": "6352211e",
			"pause()": "8456cb59",
			"paused()": "5c975abb",
			"referralAddress()": "15a88d22",
			"referralIsOn()": "30d72acb",
			"renounceOwnership()": "715018a6",
			"safeMint(address,uint256)": "a1448194",
			"safeTransferFrom(address,address,uint256)": "42842e0e",
			"safeTransferFrom(address,address,uint256,bytes)": "b88d4fde",
			"setAllowedCurrencies(bool[])": "5fc26ba3",
			"setApprovalForAll(address,bool)": "a22cb465",
			"setEasyFees(uint256[])": "e48513dc",
			"setPaymentContracts(address,address,address,address,address,address)": "c45dd18f",
			"setPrices(uint256[])": "79cf92d3",
			"setRCAddress(address)": "73acc408",
			"supportsInterface(bytes4)": "01ffc9a7",
			"swithReferral(bool)": "4f3dfe8a",
			"symbol()": "95d89b41",
			"tiersPrices(uint256)": "3904d0ba",
			"tokenURI(uint256)": "c87b56dd",
			"totalSupply()": "18160ddd",
			"transferFrom(address,address,uint256)": "23b872dd",
			"transferOwnership(address)": "f2fde38b",
			"unpause()": "3f4ba83a"
		}
	},
	"abi": [
		{
			"inputs": [],
			"stateMutability": "nonpayable",
			"type": "constructor"
		},
		{
			"anonymous": false,
			"inputs": [
				{
					"indexed": true,
					"internalType": "address",
					"name": "owner",
					"type": "address"
				},
				{
					"indexed": true,
					"internalType": "address",
					"name": "approved",
					"type": "address"
				},
				{
					"indexed": true,
					"internalType": "uint256",
					"name": "tokenId",
					"type": "uint256"
				}
			],
			"name": "Approval",
			"type": "event"
		},
		{
			"anonymous": false,
			"inputs": [
				{
					"indexed": true,
					"internalType": "address",
					"name": "owner",
					"type": "address"
				},
				{
					"indexed": true,
					"internalType": "address",
					"name": "operator",
					"type": "address"
				},
				{
					"indexed": false,
					"internalType": "bool",
					"name": "approved",
					"type": "bool"
				}
			],
			"name": "ApprovalForAll",
			"type": "event"
		},
		{
			"anonymous": false,
			"inputs": [
				{
					"indexed": false,
					"internalType": "address",
					"name": "userAddress",
					"type": "address"
				},
				{
					"indexed": false,
					"internalType": "address payable",
					"name": "relayerAddress",
					"type": "address"
				},
				{
					"indexed": false,
					"internalType": "bytes",
					"name": "functionSignature",
					"type": "bytes"
				}
			],
			"name": "MetaTransactionExecuted",
			"type": "event"
		},
		{
			"anonymous": false,
			"inputs": [
				{
					"indexed": true,
					"internalType": "address",
					"name": "previousOwner",
					"type": "address"
				},
				{
					"indexed": true,
					"internalType": "address",
					"name": "newOwner",
					"type": "address"
				}
			],
			"name": "OwnershipTransferred",
			"type": "event"
		},
		{
			"anonymous": false,
			"inputs": [
				{
					"indexed": false,
					"internalType": "address",
					"name": "account",
					"type": "address"
				}
			],
			"name": "Paused",
			"type": "event"
		},
		{
			"anonymous": false,
			"inputs": [
				{
					"indexed": true,
					"internalType": "address",
					"name": "from",
					"type": "address"
				},
				{
					"indexed": true,
					"internalType": "address",
					"name": "to",
					"type": "address"
				},
				{
					"indexed": true,
					"internalType": "uint256",
					"name": "tokenId",
					"type": "uint256"
				}
			],
			"name": "Transfer",
			"type": "event"
		},
		{
			"anonymous": false,
			"inputs": [
				{
					"indexed": false,
					"internalType": "address",
					"name": "account",
					"type": "address"
				}
			],
			"name": "Unpaused",
			"type": "event"
		},
		{
			"inputs": [
				{
					"internalType": "uint256",
					"name": "",
					"type": "uint256"
				}
			],
			"name": "AC",
			"outputs": [
				{
					"internalType": "bool",
					"name": "",
					"type": "bool"
				}
			],
			"stateMutability": "view",
			"type": "function"
		},
		{
			"inputs": [],
			"name": "ERC712_VERSION",
			"outputs": [
				{
					"internalType": "string",
					"name": "",
					"type": "string"
				}
			],
			"stateMutability": "view",
			"type": "function"
		},
		{
			"inputs": [
				{
					"internalType": "address",
					"name": "to",
					"type": "address"
				},
				{
					"internalType": "uint256",
					"name": "tokenId",
					"type": "uint256"
				}
			],
			"name": "approve",
			"outputs": [],
			"stateMutability": "nonpayable",
			"type": "function"
		},
		{
			"inputs": [
				{
					"internalType": "address",
					"name": "owner",
					"type": "address"
				}
			],
			"name": "balanceOf",
			"outputs": [
				{
					"internalType": "uint256",
					"name": "",
					"type": "uint256"
				}
			],
			"stateMutability": "view",
			"type": "function"
		},
		{
			"inputs": [
				{
					"internalType": "uint256",
					"name": "",
					"type": "uint256"
				}
			],
			"name": "easyFee",
			"outputs": [
				{
					"internalType": "uint256",
					"name": "",
					"type": "uint256"
				}
			],
			"stateMutability": "view",
			"type": "function"
		},
		{
			"inputs": [
				{
					"internalType": "address",
					"name": "to",
					"type": "address"
				},
				{
					"internalType": "uint256",
					"name": "id",
					"type": "uint256"
				}
			],
			"name": "easyTransferTo",
			"outputs": [],
			"stateMutability": "payable",
			"type": "function"
		},
		{
			"inputs": [
				{
					"internalType": "address",
					"name": "userAddress",
					"type": "address"
				},
				{
					"internalType": "bytes",
					"name": "functionSignature",
					"type": "bytes"
				},
				{
					"internalType": "bytes32",
					"name": "sigR",
					"type": "bytes32"
				},
				{
					"internalType": "bytes32",
					"name": "sigS",
					"type": "bytes32"
				},
				{
					"internalType": "uint8",
					"name": "sigV",
					"type": "uint8"
				}
			],
			"name": "executeMetaTransaction",
			"outputs": [
				{
					"internalType": "bytes",
					"name": "",
					"type": "bytes"
				}
			],
			"stateMutability": "payable",
			"type": "function"
		},
		{
			"inputs": [
				{
					"internalType": "uint256",
					"name": "tokenId",
					"type": "uint256"
				}
			],
			"name": "getApproved",
			"outputs": [
				{
					"internalType": "address",
					"name": "",
					"type": "address"
				}
			],
			"stateMutability": "view",
			"type": "function"
		},
		{
			"inputs": [],
			"name": "getChainId",
			"outputs": [
				{
					"internalType": "uint256",
					"name": "",
					"type": "uint256"
				}
			],
			"stateMutability": "view",
			"type": "function"
		},
		{
			"inputs": [],
			"name": "getDomainSeperator",
			"outputs": [
				{
					"internalType": "bytes32",
					"name": "",
					"type": "bytes32"
				}
			],
			"stateMutability": "view",
			"type": "function"
		},
		{
			"inputs": [
				{
					"internalType": "address",
					"name": "user",
					"type": "address"
				}
			],
			"name": "getNonce",
			"outputs": [
				{
					"internalType": "uint256",
					"name": "nonce",
					"type": "uint256"
				}
			],
			"stateMutability": "view",
			"type": "function"
		},
		{
			"inputs": [
				{
					"internalType": "uint256",
					"name": "id",
					"type": "uint256"
				}
			],
			"name": "getTokenTier",
			"outputs": [
				{
					"internalType": "uint256",
					"name": "",
					"type": "uint256"
				}
			],
			"stateMutability": "view",
			"type": "function"
		},
		{
			"inputs": [
				{
					"internalType": "uint256",
					"name": "",
					"type": "uint256"
				}
			],
			"name": "ind",
			"outputs": [
				{
					"internalType": "uint256",
					"name": "",
					"type": "uint256"
				}
			],
			"stateMutability": "view",
			"type": "function"
		},
		{
			"inputs": [
				{
					"internalType": "uint256",
					"name": "code",
					"type": "uint256"
				}
			],
			"name": "inquiry",
			"outputs": [
				{
					"internalType": "uint256",
					"name": "",
					"type": "uint256"
				}
			],
			"stateMutability": "view",
			"type": "function"
		},
		{
			"inputs": [
				{
					"internalType": "address",
					"name": "owner",
					"type": "address"
				},
				{
					"internalType": "address",
					"name": "operator",
					"type": "address"
				}
			],
			"name": "isApprovedForAll",
			"outputs": [
				{
					"internalType": "bool",
					"name": "",
					"type": "bool"
				}
			],
			"stateMutability": "view",
			"type": "function"
		},
		{
			"inputs": [
				{
					"internalType": "uint256",
					"name": "",
					"type": "uint256"
				}
			],
			"name": "isMinted",
			"outputs": [
				{
					"internalType": "bool",
					"name": "",
					"type": "bool"
				}
			],
			"stateMutability": "view",
			"type": "function"
		},
		{
			"inputs": [],
			"name": "maxSupply",
			"outputs": [
				{
					"internalType": "uint256",
					"name": "",
					"type": "uint256"
				}
			],
			"stateMutability": "view",
			"type": "function"
		},
		{
			"inputs": [
				{
					"internalType": "uint256",
					"name": "tokenId",
					"type": "uint256"
				},
				{
					"internalType": "uint256",
					"name": "currency",
					"type": "uint256"
				}
			],
			"name": "mint",
			"outputs": [],
			"stateMutability": "nonpayable",
			"type": "function"
		},
		{
			"inputs": [
				{
					"internalType": "uint256",
					"name": "tokenId",
					"type": "uint256"
				},
				{
					"internalType": "uint256",
					"name": "currency",
					"type": "uint256"
				},
				{
					"internalType": "uint256",
					"name": "code",
					"type": "uint256"
				}
			],
			"name": "mintwithCode",
			"outputs": [],
			"stateMutability": "nonpayable",
			"type": "function"
		},
		{
			"inputs": [],
			"name": "name",
			"outputs": [
				{
					"internalType": "string",
					"name": "",
					"type": "string"
				}
			],
			"stateMutability": "view",
			"type": "function"
		},
		{
			"inputs": [],
			"name": "owner",
			"outputs": [
				{
					"internalType": "address",
					"name": "",
					"type": "address"
				}
			],
			"stateMutability": "view",
			"type": "function"
		},
		{
			"inputs": [
				{
					"internalType": "uint256",
					"name": "tokenId",
					"type": "uint256"
				}
			],
			"name": "ownerOf",
			"outputs": [
				{
					"internalType": "address",
					"name": "",
					"type": "address"
				}
			],
			"stateMutability": "view",
			"type": "function"
		},
		{
			"inputs": [],
			"name": "pause",
			"outputs": [],
			"stateMutability": "nonpayable",
			"type": "function"
		},
		{
			"inputs": [],
			"name": "paused",
			"outputs": [
				{
					"internalType": "bool",
					"name": "",
					"type": "bool"
				}
			],
			"stateMutability": "view",
			"type": "function"
		},
		{
			"inputs": [],
			"name": "referralAddress",
			"outputs": [
				{
					"internalType": "address",
					"name": "",
					"type": "address"
				}
			],
			"stateMutability": "view",
			"type": "function"
		},
		{
			"inputs": [],
			"name": "referralIsOn",
			"outputs": [
				{
					"internalType": "bool",
					"name": "",
					"type": "bool"
				}
			],
			"stateMutability": "view",
			"type": "function"
		},
		{
			"inputs": [],
			"name": "renounceOwnership",
			"outputs": [],
			"stateMutability": "nonpayable",
			"type": "function"
		},
		{
			"inputs": [
				{
					"internalType": "address",
					"name": "to",
					"type": "address"
				},
				{
					"internalType": "uint256",
					"name": "tokenId",
					"type": "uint256"
				}
			],
			"name": "safeMint",
			"outputs": [],
			"stateMutability": "nonpayable",
			"type": "function"
		},
		{
			"inputs": [
				{
					"internalType": "address",
					"name": "from",
					"type": "address"
				},
				{
					"internalType": "address",
					"name": "to",
					"type": "address"
				},
				{
					"internalType": "uint256",
					"name": "tokenId",
					"type": "uint256"
				}
			],
			"name": "safeTransferFrom",
			"outputs": [],
			"stateMutability": "nonpayable",
			"type": "function"
		},
		{
			"inputs": [
				{
					"internalType": "address",
					"name": "from",
					"type": "address"
				},
				{
					"internalType": "address",
					"name": "to",
					"type": "address"
				},
				{
					"internalType": "uint256",
					"name": "tokenId",
					"type": "uint256"
				},
				{
					"internalType": "bytes",
					"name": "data",
					"type": "bytes"
				}
			],
			"name": "safeTransferFrom",
			"outputs": [],
			"stateMutability": "nonpayable",
			"type": "function"
		},
		{
			"inputs": [
				{
					"internalType": "bool[]",
					"name": "alwd",
					"type": "bool[]"
				}
			],
			"name": "setAllowedCurrencies",
			"outputs": [],
			"stateMutability": "nonpayable",
			"type": "function"
		},
		{
			"inputs": [
				{
					"internalType": "address",
					"name": "operator",
					"type": "address"
				},
				{
					"internalType": "bool",
					"name": "approved",
					"type": "bool"
				}
			],
			"name": "setApprovalForAll",
			"outputs": [],
			"stateMutability": "nonpayable",
			"type": "function"
		},
		{
			"inputs": [
				{
					"internalType": "uint256[]",
					"name": "prices",
					"type": "uint256[]"
				}
			],
			"name": "setEasyFees",
			"outputs": [],
			"stateMutability": "nonpayable",
			"type": "function"
		},
		{
			"inputs": [
				{
					"internalType": "address",
					"name": "busd",
					"type": "address"
				},
				{
					"internalType": "address",
					"name": "usdt",
					"type": "address"
				},
				{
					"internalType": "address",
					"name": "usdc",
					"type": "address"
				},
				{
					"internalType": "address",
					"name": "third",
					"type": "address"
				},
				{
					"internalType": "address",
					"name": "forth",
					"type": "address"
				},
				{
					"internalType": "address",
					"name": "fifth",
					"type": "address"
				}
			],
			"name": "setPaymentContracts",
			"outputs": [],
			"stateMutability": "nonpayable",
			"type": "function"
		},
		{
			"inputs": [
				{
					"internalType": "uint256[]",
					"name": "prices",
					"type": "uint256[]"
				}
			],
			"name": "setPrices",
			"outputs": [],
			"stateMutability": "nonpayable",
			"type": "function"
		},
		{
			"inputs": [
				{
					"internalType": "address",
					"name": "adr",
					"type": "address"
				}
			],
			"name": "setRCAddress",
			"outputs": [],
			"stateMutability": "nonpayable",
			"type": "function"
		},
		{
			"inputs": [
				{
					"internalType": "bytes4",
					"name": "interfaceId",
					"type": "bytes4"
				}
			],
			"name": "supportsInterface",
			"outputs": [
				{
					"internalType": "bool",
					"name": "",
					"type": "bool"
				}
			],
			"stateMutability": "view",
			"type": "function"
		},
		{
			"inputs": [
				{
					"internalType": "bool",
					"name": "isOn",
					"type": "bool"
				}
			],
			"name": "swithReferral",
			"outputs": [],
			"stateMutability": "nonpayable",
			"type": "function"
		},
		{
			"inputs": [],
			"name": "symbol",
			"outputs": [
				{
					"internalType": "string",
					"name": "",
					"type": "string"
				}
			],
			"stateMutability": "view",
			"type": "function"
		},
		{
			"inputs": [
				{
					"internalType": "uint256",
					"name": "",
					"type": "uint256"
				}
			],
			"name": "tiersPrices",
			"outputs": [
				{
					"internalType": "uint256",
					"name": "",
					"type": "uint256"
				}
			],
			"stateMutability": "view",
			"type": "function"
		},
		{
			"inputs": [
				{
					"internalType": "uint256",
					"name": "tokenId",
					"type": "uint256"
				}
			],
			"name": "tokenURI",
			"outputs": [
				{
					"internalType": "string",
					"name": "",
					"type": "string"
				}
			],
			"stateMutability": "view",
			"type": "function"
		},
		{
			"inputs": [],
			"name": "totalSupply",
			"outputs": [
				{
					"internalType": "uint256",
					"name": "",
					"type": "uint256"
				}
			],
			"stateMutability": "view",
			"type": "function"
		},
		{
			"inputs": [
				{
					"internalType": "address",
					"name": "from",
					"type": "address"
				},
				{
					"internalType": "address",
					"name": "to",
					"type": "address"
				},
				{
					"internalType": "uint256",
					"name": "tokenId",
					"type": "uint256"
				}
			],
			"name": "transferFrom",
			"outputs": [],
			"stateMutability": "nonpayable",
			"type": "function"
		},
		{
			"inputs": [
				{
					"internalType": "address",
					"name": "newOwner",
					"type": "address"
				}
			],
			"name": "transferOwnership",
			"outputs": [],
			"stateMutability": "nonpayable",
			"type": "function"
		},
		{
			"inputs": [],
			"name": "unpause",
			"outputs": [],
			"stateMutability": "nonpayable",
			"type": "function"
		}
	]
}